:020000040800F2
:10000000E8150020A10100085F2B00085129000815
:100010005D2B00086509000863450008000000002A
:100020000000000000000000000000005F2E00083B
:10003000E9090008000000005D2E0008612E00089C
:10004000BB010008BB010008BB010008BB010008A0
:10005000BB010008BB010008BB010008BB01000890
:10006000BB010008BB010008BB010008BB01000880
:10007000BB010008BB010008BB010008BB01000870
:10008000BB010008BB010008BB010008BB01000860
:10009000F1440008BB010008BB010008BB010008D7
:1000A000BB010008BB010008BB010008BB01000840
:1000B000BB010008BB010008BB010008BB01000830
:1000C000BB010008BB010008BB010008BB01000820
:1000D000BB010008BB010008BB010008BB01000810
:1000E000BB010008BB010008BB010008BB01000800
:1000F000BB010008BB010008BB010008BB010008F0
:10010000000000000000000000000000BB0100082B
:10011000BB010008BB010008BB010008BB010008CF
:10012000BB010008BB010008BB010008BB010008BF
:10013000BB010008BB010008000000000000000037
:10014000BB010008BB010008BB0100080000000063
:10015000000000000000000000000000000000009F
:100160000000000000000000BB010008BB01000807
:10017000BB010008000000000000000000000000BB
:1001800000000000BB010008DFF810D000F0DAFA30
:1001900000480047614E0008AFF30080E8150020DA
:1001A0000648804706480047FEE7FEE7FEE7FEE711
:1001B000FEE7FEE7FEE7FEE7FEE7FEE7E52E0008C6
:1001C000890100082DE9F05F0546002092469B4614
:1001D00088460646814640241BE02846414647465D
:1001E000224600F020F853465A46C01A914110D3D7
:1001F00011461846224600F061F92D1A67EB0108F6
:100200004F4622460120002100F058F917EB000963
:100210004E41201EA4F10104DFDC484631462A4647
:100220004346BDE8F09F202A04DB203A21FA02F081
:100230000021704721FA02F3D040C2F12002914020
:1002400008431946704740EA01039B0703D009E0C1
:1002500008C9121F08C0042AFAD203E011F8013BB2
:1002600000F8013B521EF9D27047D2B201E000F80B
:10027000012B491EFBD270470022F6E710B513464A
:100280000A4604461946FFF7F0FF204610BD10B598
:10029000044604E00B7800F8013B03B1491C521EF0
:1002A000F8D2204610BD421C10F8011B0029FBD1DA
:1002B000801A70472DE9FE4F81EA030404F00044E0
:1002C00021F0004100944FF0000B23F0004350EA6E
:1002D00001045ED052EA03045BD0C3F30A54C1F3B5
:1002E0000A552C44A4F2F3340194A0FB0254C1F348
:1002F000130141F48011C3F3130343F4801301FB92
:10030000024400FB034E840A970A44EA815447EAF8
:100310008357A4FB076802958D0A05FB07854FEA02
:10032000932C04FB0C542705029D4FEA065847EA1C
:100330001637B5EB08056EEB070C870E920E47EAF1
:10034000811742EA8312A7FB0201B6EB0B0164EBB3
:1003500000042B0D43EA0C335E1844EB1C50DA46C4
:100360005146E7FB0201C5F313044FEA0B3343EA9E
:1003700014534FEA0432019C43EA0603A4F10C042F
:100380000294009CCDE900B400F0B6F803B0BDE8DB
:10039000F08F00200146F9E72DE9F04D81EA0304D2
:1003A00004F0004B21F0004514464FF0000A23F002
:1003B000004150EA050220D054EA01021DD0C5F3E5
:1003C0000A570246C5F31303C1F31300C1F30A56DB
:1003D00040F4801543F48013A7EB0608101BD646A3
:1003E00008F2FD3873EB050002D308F1010801E0C3
:1003F00092185B41B8F1000F03DA00200146BDE816
:10040000F08D00204FF48011064684460EE0171B45
:1004100073EB050705D3121B63EB050306434CEA98
:10042000010C49084FEA300092185B4150EA01077D
:10043000EDD152EA030012D082EA040083EA0501FA
:10044000084305D0101BAB4106D20122002306E071
:1004500000224FF0004302E06FF0010253101AEB4C
:1004600006004CEB085110EB0A0041EB0B01BDE814
:10047000F04D00F032B80EB540F233410291002148
:10048000CDE900110A460B4600F036F803B000BD76
:1004900030B50B46014600202022012409E021FA54
:1004A00002F59D4205D303FA02F5491B04FA02F551
:1004B0002844151EA2F10102F1DC30BD202A04DB24
:1004C000203A00FA02F1002070479140C2F1200367
:1004D00020FA03F319439040704710B5141E73F1CE
:1004E000000408DA401C41F1000192185B411A43F4
:1004F00001D120F0010010BD2DE9F04D92469B4640
:1005000011B1B1FA81F202E0B0FA80F220329046E5
:10051000FFF7D4FF04460F4640EA0A0041EA0B0108
:1005200053465A46084313D0114653EA010019D0E6
:10053000C8F140025046FFF776FE05460E4650468B
:1005400059464246FFF7BAFF084305D0012004E0B0
:1005500020463946BDE8F08D0020054346EAE076A6
:100560002C4337430A986305E40AA0EB08000022F5
:10057000FD0A44EA47540A3002D500200146E9E763
:10058000010510196941DDE9084500196941BDE817
:10059000F04DA2E72DE9FE4F804681EA0300C00F2F
:1005A0000C46009021F0004123F00045B8EB02001A
:1005B000A94105D24046214690461C460B460246BC
:1005C00023F00040104347D0270DC7F30A00C3F3C0
:1005D0000A510290401A019040286BDAC3F31300CD
:1005E00040F4801B0098924620B10023D2EB030A0E
:1005F00063EB0B0B01985946C0F140025046FFF7E0
:100600005DFF06460D4650465946019A00F0ACF88B
:1006100010EB08006141002487EA115284EAE77375
:100620001A4340D0009A62B3019A012A4FEA075256
:1006300015DC001B61EB02014FF0004202EA075299
:10064000CDE90042001C41F5801132462B46FFF7F0
:1006500053FF03B0BDE8F08F40462146F9E7001B89
:1006600061EB0201001C41F5801300185B4120186A
:10067000A2F5001747EB030140EAD570B6196D41AA
:1006800011E06D084FEA360645EAC0754FEA075299
:10069000001B61EB0201001C41F5801149084FEA83
:1006A00030000019514132462B4603B0BDE8F04FEF
:1006B000FFF713BF0098012240000023D0EB020295
:1006C00063EBE073009821464FEAE074B8EB00005A
:1006D00061EB0401E9E783F000435BE781F000414F
:1006E00058E7C1F30A52C1F3130140F2FF3341F45A
:1006F00080119A4202DA00200146704740F23343EB
:100700009A42A2F2334202DC5242FFF78CBDFFF75D
:10071000D5BE000030B5041E71F1000404DB4FF0BB
:100720000044404264EB0101141E73F1000405DB38
:100730001C464FF00043524263EB0403994208BF4A
:10074000904230BD064C074D06E0E06840F00103E2
:1007500094E8070098471034AC42F6D3FFF718FD31
:10076000E84F000808500008202A06DBCB17203A83
:1007700041FA02F043EAE07306E041FA02F3D040A6
:10078000C2F12002914008431946704770B58C1899
:1007900010F8015B15F0070301D110F8013B2A1195
:1007A00006D110F8012B03E010F8016B01F8016B82
:1007B0005B1EF9D12B0705D40023521E0DD401F87E
:1007C000013BFAE710F8013BCB1A921C03E013F847
:1007D000015B01F8015B521EF9D5A142D8D300207C
:1007E00070BD000070B5044600680022836813F0F5
:1007F0000C0F50D0C3689B0105D5637E012B02D13D
:10080000237E012B22D060290CD0206882685207F9
:1008100006D58268920703D4826842F01002826093
:100820000C290ED020688268120706D582689207CC
:1008300003D4826842F020028260602915D06C29BE
:1008400011D0042500F0FCFE064620E00C21134BDD
:1008500002E09A4211D2521C0568ED436D06F8D4AD
:1008600040220260D1E70C25ECE70825EAE700BF4B
:1008700000F0E6FE801B0B2809D9206C40F0100028
:100880002064606C40F001006064012070BD20684D
:1008900080682842ECD1002070BD0000009409005F
:1008A00070B504460068816801F00301012926D172
:1008B0000168C90723D0816801F00D01012910D119
:1008C000816841F00201816021680320086000F026
:1008D000B7FE05460FE000BF00F0B2FE401B022845
:1008E00009D9206C40F010002064606C40F00100D9
:1008F0006064012070BD20688068C007ECD10020D2
:1009000070BD000070B504460068816801F0030105
:10091000012902D10168C90720D18168104A11421A
:100920000DD1816841F00101816000F089FE05462A
:100930000FE000BF00F084FE401B022809D9206CA4
:1009400040F010002064606C40F001006064012001
:1009500070BD20680068C043C007EBD1002070BDA7
:100960003F000080FEE70020704700207047000035
:1009700010B500220449054802F0AEFB04490348C3
:1009800002F0A4FB002010BDF40900204802002062
:100990000C06002010B50C460A6801460548FFF712
:1009A00076FC044A216800205054034802F072FB90
:1009B000002010BD8801002048020020094A10B51F
:1009C000D2F8B822D2F814210AB1012010BD0A468B
:1009D0000146044802F080FBBDE81040014802F0E7
:1009E000D9BB000048020020704772B6FEE7000045
:1009F00010B5002248F208414FF0904000F01AFE76
:100A0000BDE81040002248F23821014800F012BE33
:100A100000040048F0B5002302684FF0A04C3E4CA3
:100A200094B01F46624501D100940DE0A24202D16C
:100A3000CDF800C008E0394D394EAA4201D10096E8
:100A400002E0B24214D1009590F83C50012D12D032
:100A5000012580F83C5095686D0753D4009DAD6822
:100A60006D074FD4624501D0A24206D12D4A05E060
:100A7000012014B0F0BD0220FBE72B4A0D6840F6C0
:100A80001F7425B3956890F8306025F4604545EAF9
:100A900046354E68354395600568AE6806F0030636
:100AA000012E02D12D68ED0731D1009DAD6805F012
:100AB0000305012D03D1009D2D68ED0727D10D6899
:100AC00089680D439168A1430D4395601FE09168CB
:100AD00021F46041916001688D6805F00305012DE6
:100AE00002D10968C90712D10099896801F0030190
:100AF000012903D100990968C90708D19168A14368
:100B0000916004E0016C41F020010164012380F850
:100B10003C701846ADE70000000100500004005092
:100B2000000500500003005000070050F0B594B0DD
:100B30000024009490F83C202546012A19D0012772
:100B400080F83C7003689A6852077CD44A681F2674
:100B5000052A11D2D3F830C002EB4202520096406F
:100B60002CEA060C0E6896404CEA060CC3F830C01E
:100B700035E0022014B0F0BD0A2A0FD2D3F834C0F9
:100B8000521F02EB4202520096402CEA060C0E68FD
:100B900096404CEA060CC3F834C020E00F2A0FD26E
:100BA000D3F838C00A3A02EB4202520096402CEACF
:100BB000060C0E6896404CEA060CC3F838C00EE0EE
:100BC000D3F83CC00F3A02EB4202520096402CEAA6
:100BD000060C0E6896404CEA060CC3F83CC002684E
:100BE000936813F00C0F4FF0070374D1D1F800E0B5
:100BF000BEF10A0F10D39669AEF10A0E0EEB4E0C41
:100C000003FA0CFE26EA0E06D1F808E00EFA0CFEF6
:100C100046EA0E0696610FE0D2F814C00EEB4E06BF
:100C200003FA06FE2CEA0E0CD1F808E00EFA06FED6
:100C30004CEA0E0CC2F814C002684E69D2F80CC01F
:100C4000CCF3C10C00E0FDE04FEA4C0C06FA0CF6C8
:100C5000D1F810E0DFF848C2BEF1010F42D0BEF17A
:100C6000020F4DD0BEF1030F58D0BEF1040F63D078
:100C7000166E91F800C006F0F846B6EB8C6F03D103
:100C8000166E26F0004616660268566E91F800C091
:100C900006F0F846B6EB8C6F03D1566E26F0004690
:100CA00056660268966E91F800C006F0F846B6EBFC
:100CB0008C6F03D1966E26F0004696660268D66E5B
:100CC00091F800C006F0F846B6EB8C6F03D1D66EF3
:100CD00026F00046D6660268966806F00306012EE6
:100CE0003AD136E0D2F860E00EEA0C0E91F800C07E
:100CF00046EA8C664EEA060E4EF000461666EAE7B5
:100D0000D2F864E00EEA0C0E91F800C046EA8C6658
:100D10004EEA060E4EF000465666DCE7D2F868E072
:100D20000EEA0C0E91F800C046EA8C664EEA060EFA
:100D30004EF000469666CEE7D2F86CE00EEA0C0E56
:100D400091F800C046EA8C664EEA060E4EF0004668
:100D5000C0E71668F6077AD1CE68012E06D052F8A1
:100D6000B03F0E78B740BB43136021E052F8B06F3C
:100D700091F800C007FA0CF73E4316600A680A2A89
:100D80000BD30668B769093A02EB420293409F43CE
:100D90008B6893401F43B7610AE007687E69521C65
:100DA00002EB420293409E438B6893401E437E6158
:100DB00003684FF0A0473B4EBB4201D0B34201D184
:100DC000394A00E0394A0968102904D0112907D0AE
:100DD00012290AD03BE0D2F808C04FEA0C2C08E0F8
:100DE000D2F808C04FEACC1C03E0D2F808C04FEAA2
:100DF0004C2CBCF1000F2ADBBB420DD0B34201D119
:100E000000970CE02A4EDFF8ACC0B34202D1CDF817
:100E100000C004E0634501D1009600E000959E68A3
:100E200006F00306012E02D11E68F6070AD1009EC5
:100E30008EB1B66806F00306012E0CD1009E36680E
:100E4000F60708D0016C41F020010164012480F80C
:100E50003C5020468EE6102908D011291AD01229BC
:100E6000F5D1916841F480019160F0E7BB42EED189
:100E7000916841F4000191600F49104A0968B1FB83
:100E8000F2F101EB8101490000E0491E00910029C7
:100E9000FBD1DCE7BB42DAD1916841F08071E3E736
:100EA00000F0FF83000100500003005000070050D5
:100EB00000040050000500507000002040420F0068
:100EC0000068006C70470000F0B54FF0000695B068
:100ED000040037463546009605D0206CC00648D43D
:100EE000206C18B133E0012015B0F0BD6564E564F5
:100EF000A56484F83C50204600F00CF92068806816
:100F0000C00024D42046FFF7CBFC0646206CC00668
:100F10001DD4E6B9206C20F4885040F00200206413
:100F20002068816821F0405181602068816841F02B
:100F3000805181606E486F490068B0FBF1F000EBB2
:100F40008000400000E0401E00900028FBD1206897
:100F50008168C90002D5806880000AD5206C20F025
:100F6000020040F010002064606C40F001006064FA
:100F70000126206CC00676D4002E74D120688168CA
:100F8000490770D4216C21F4807141F00201216481
:100F90004FF0A04E584B704501D0984201D1574AAE
:100FA00000E0574ADFF85CC15749704501D1009312
:100FB0000EE0984202D1CDF800E009E0884202D16B
:100FC000CDF800C004E0604501D1009100E000953B
:100FD000836803F00303012B02D10068C00710D11E
:100FE000009840B1806800F00300012803D1009808
:100FF0000068C00705D19068636820F4403018434A
:101000009060D4E902201043626B012A02D04FF4B1
:10101000805300E00023627E43EA4233184394F891
:1010200020303843012B0AD1F2B1226C22F00202A7
:1010300042F020022264626C42F001026264A26A01
:10104000012A21D023688B4201D0634518D14FF487
:1010500030774FF4E071BA4213D04FF480739A4264
:101060000AD139460DE039E0A28C284B03EB42420D
:10107000024342F48030E2E78A4201D1194600E09F
:1010800011460143E06A084321688A6812F00C0F98
:101090000BD1CA6844F202039A43CA60217E94F8D5
:1010A0003020890341EA420108432268D168184B85
:1010B00019400143D160206901282068016B21F0AB
:1010C0000F0102D1E269521E114301636564206C75
:1010D00020F0020040F00100206406E0206C20F0C7
:1010E000020040F01000206401263046FCE60000BB
:1010F0007000002040420F0000010050000300502B
:101100000007005000050050000400500000FEFFE2
:1011100007C0F0FFF0B587B0044614216846FFF71A
:10112000ABF8204B266800241A6803251E49521C80
:101130004FF09040B6F1A04F06D01C4FBE422FD1C9
:101140001A60012A15D01CE01A60012A07D14A69E9
:1011500042F080524A614A6902F0805205924A691F
:1011600042F400324A61496901F4003105910121DC
:1011700010E04A6942F080524A614A6902F08052A6
:1011800005924A6942F400324A61496901F400312A
:1011900005911021CDE900150294694600F06EF921
:1011A00007B0F0BD00000020001002400001005018
:1011B0002DE9F0470D46044641693F4A00684FF06B
:1011C00000084FF0A043082905D0984201D0904272
:1011D00003D13A4902E0082614E039498E68F60640
:1011E0000CD0896801F4404159B1206C40F02000D6
:1011F000206484F83C800120BDE8F087C168C907FD
:10120000F2E70C26984201D0904202D1D3F808139D
:1012100002E02B490831096811F01F0F04D09842F1
:1012200002D02849884201D1C76803E0904200D12A
:101230001946CF6800F004FA814610E0681C0ED011
:101240002DB100F0FDF9A0EB0900A84207D9206CF0
:1012500040F00400206484F83C800320CCE7206840
:1012600000683042EAD0206C40F4007020642068AE
:10127000C16811F4406F1AD1B90418D40168090784
:1012800015D581684907216C0AD421F48071216445
:10129000216CC9040BD4216C41F00101216406E0EA
:1012A00041F020012164616C41F001016164790425
:1012B00000D4066000209FE70001005000030050AA
:1012C00000070050000400502DE9F041044600687A
:1012D0008068400770D494F83C0001280CD00120AD
:1012E00084F83C002046FFF70DFB03004FF000069A
:1012F00005D084F83C6086E00220BDE8F081206CD7
:1013000040F60161884340F48070206420684FF00B
:10131000A0413E4A3E4D884201D0904202D1D1F8D0
:10132000087300E02F6817F01F0F3A4F03D0884270
:1013300001D0B8420BD1D4F840C02CF4801CC4F8C2
:1013400040C0D0F80CC05FEA8C1C14D41BE0D4F869
:1013500040C04CF4801CC4F840C0904202D1D1F887
:101360000CC005E0DFF8ACC00CF10C0CDCF800C0E0
:101370001CF0007F07D0D4F840C02CF4005C4CF483
:10138000805CC4F840C0D4F840C05FEACC4C06D5BD
:10139000D4F844C02CF0060CC4F844C000E06664E5
:1013A00084F83C601C2606602068884201D0904288
:1013B00003D1D1F8084301E024E02C6814F01F0F9A
:1013C0001BD0884201D0904202D1D1F8084300E0FE
:1013D0002C6804F01F04052C0FD0884201D09042E5
:1013E00002D1D1F8082300E02A6802F01F02092A7E
:1013F00003D0884201D0B84205D1816841F0040190
:10140000816000E00223184677E7000000010050E9
:10141000080700500004005010B5044690F83C0046
:10142000012808D0012084F83C006C212046FFF7F9
:10143000D9F910B10BE0022010BD2046FFF730FAB9
:1014400028B9216C21F4885141F001012164002167
:1014500084F83C1010BD000070B5044600F0F0F8B0
:101460000546601C02D004480078044400F0E8F807
:10147000401BA042FAD370BD640000202DE9FC4F50
:10148000DFF894A1002301250AF1040B03244FF097
:101490000F0C0BF1040EB8E005FA03F632406FD0E2
:1014A0004F68012F05D0022F03D0112F01D0122F2A
:1014B00017D1D0F808905F0004FA07F829EA080964
:1014C0000097D1F80C8008FA07F848EA0908C0F834
:1014D00008804768B7430E79C6F300169E403E4326
:1014E0004660C6684FEA430804FA08F7BE4301970E
:1014F0008F6807FA08F73743C7604E68022E01D09D
:10150000122E13D1DE0800EB86060096366A5F07BE
:10151000FF0E0CFA07F926EA0906D1F8109009FA2D
:1015200007F949EA0609009EC6F820900668019F5F
:10153000BE430F7907F0030707FA08F73743076040
:101540004E68F60060D5354EB76947F00107B761C0
:10155000B66923F0030706F001060096304E3E44BC
:10156000B146B6689F074FEA17780CFA08F7BE43F2
:10157000B0F1904F05D02B4FB84204D1012712E0B3
:1015800042E000270FE0284FB84201D102270AE0CD
:10159000264FB84201D1032705E0254FB84201D1BB
:1015A000042700E0052707FA08F73743C9F8087051
:1015B000DAF800605746D1F8048096435FEAC838ED
:1015C00000D516433E60DBF800605F46D1F804802A
:1015D00096435FEA883800D516433E60DEF8006027
:1015E0007746D1F8048096435FEAC82800D51643B1
:1015F0003E60094F0C373E68D1F8048096435FEA9D
:10160000882800D516433E605B1C0A6832FA03F650
:101610007FF442AFBDE8FC8F00040140001002409F
:10162000000001400004004800080048000C004889
:10163000001000480AB18161704781627047000064
:1016400001488068704700006400002002488168FB
:10165000027811448160704764000020074810B58B
:10166000016841F010010160032000F06DF80020D6
:1016700000F006F800F024F8002010BD0020024021
:1016800070B50D4D04464FF47A712878B1FBF0F037
:101690000A490968B1FBF0F001F046F948B9102C8D
:1016A00007D200222146501E00F02EF800206C6068
:1016B00070BD012070BD000064000020700000209B
:1016C000094808B5816941F001018161816901F032
:1016D00001010091C16941F08051C161C06900F010
:1016E0008050009008BD000000100240002809DB77
:1016F00000F01F02012191404009800000F1E0202C
:10170000C0F8001170470000F0B40E4B1B680C4687
:10171000C3F30223C3F10705042D00D90425191DC5
:10172000072901D2002300E0DB1E012606FA05F19D
:10173000491E214099409E40761E16403143F0BC20
:1017400002F024BF0CED00E0064900F00702086833
:101750004FF6FF03184040EA0220034A1043086096
:10176000704700000CED00E00000FA0510B50C0613
:1017700007D501F0070101EB810100EBC100283022
:1017800005E001EB810100EBC10000F5B47099B2F6
:1017900032B1012202730181190C4181002010BD78
:1017A00000220273C180F9E7704701EB810200EB70
:1017B000C202D0F8E802D26B01F09BBE01EB8102BD
:1017C00000EBC202D0F8E802D2F87C2101F0F4BEAE
:1017D00070B504460B0601F0070000EB800104EB36
:1017E000C1014FF001024FF0000503D581F8292017
:1017F000283103E081F8695101F5B471087094F85B
:10180000A802012808D084F8A822206802F012FB60
:1018100084F8A852002070BD022070BD70B5044647
:1018200001F00F006268904201D9012070BD0B06E3
:1018300001F0070000EB800104EBC1014FF0010251
:101840004FF0000503D581F82920283103E081F805
:10185000695101F5B4718D70087094F8A8020128DF
:1018600008D084F8A822206802F07DFB84F8A852F2
:10187000002070BD022070BD2DE9F05F04685FEAB2
:10188000424C0B788D69B4F850C04FF000064BF60F
:101890008F7948F2800A48F68F7B48F2C00E4FF4E9
:1018A00080672AD54FF0020808EBC308C44407EB51
:1018B0004C07E45BC4F30904A54203D32D1B8D61DF
:1018C00001D00BE08E61066836F8235005EA090561
:1018D00085F4005545EA0A0526F82350520609D535
:1018E0000D78036833F8252002EA0B0242EA0E0263
:1018F00023F8252084B30A8929E04FF0060808EB75
:10190000C308C44407EB4C07E45BC4F30904A542D5
:1019100003D32D1B8D6101D00BE08E61066836F874
:10192000235005EA090585F4005545EA0A0526F81D
:101930002350520609D40B78056835F8232002EAB3
:101940000B0242EA0E0225F823202CB14A8949698C
:101950000068234602F0D6FD2046BDE8F09F2DE941
:10196000F05F05460C4600685FEA426C1646227836
:10197000A369B0F850C04FF0000148F68F774CF2E1
:1019800080094FF6FF7B4FF4004E4FF4806A6CD510
:101990004FF0020808EBC208E0440AEB480C30F8AC
:1019A0000C00C0F30900834211D91B1AA3610FD0A8
:1019B000730407D52E6836F822303B4043EA09030A
:1019C00026F8223094F82420012A08D0C6E0A1612C
:1019D00011462846FFF7E9FE70046CD4BEE0626948
:1019E00002446261E2690244E2612369226A9A4226
:1019F00002D31846111A03E084F824100AB11046E5
:101A00002162617811B1012923D02BE02968B1F856
:101A100050201144227801EB021101F2044148B137
:101A20003E280FD84208C30700D0521C0BEA82227E
:101A30000A8017E00A8822F4F8420A800A8842F4F1
:101A40000042F5E74209C30600D1521E4EEA822247
:101A5000EEE72968B1F850201144227801EB021119
:101A6000A1F8040483B2228974E04FF0060808EB61
:101A7000C208E0440AEB480C30F80C00C0F309003F
:101A8000834211D31B1AA3610FD0730407D42E68AD
:101A900036F822303B4043EA090326F8223094F816
:101AA0002420012A11D059E0A16111462846FFF7F0
:101AB0007CFE700452D42278296831F82200384024
:101AC00040EA090021F8220048E0626902446261AC
:101AD000E2690244E2612369226A9A4203D318460A
:101AE000111A216204E00AB11046216284F8241020
:101AF0006278296812B1012A22D029E0B1F8502079
:101B00001144227801EB021101F20C4148B13E2848
:101B10000FD84208C30700D0521C0BEA82220A8069
:101B200016E00A8822F4F8420A800A8842F4004249
:101B3000F5E74209C30600D1521E4EEA8222EEE7C3
:101B4000B1F850201144227801EB0211A1F80C04E5
:101B5000628983B26169286802F0F0FC2278296802
:101B600031F8220048F6BF73184080F0300048F288
:101B70008003184321F822000020BDE8F09F01F007
:101B8000070101EB810100EBC100D0F8840170472F
:101B90002DE9F04104460F0601F0070000EB80013B
:101BA00004EBC1014FF001064FF0000503D581F8A9
:101BB0002960283103E081F8695101F5B47108709A
:101BC0000A61CB704A7802B1C881022B00D10D7135
:101BD00094F8A802012809D084F8A862206801F0CE
:101BE000FDFF284684F8A852BDE8F0810220FBE7FB
:101BF00070B50C4601F0070505EB850100EBC1014E
:101C0000C1E95F230022C1F8842181F8692181F8AC
:101C1000685101F5B4716207006802F0F9F900201B
:101C200070BD70B5044601F007006268904201D9AA
:101C3000012070BD0B064FF000054FF0010207D5E3
:101C400000EB800104EBC10181F82920283107E075
:101C500001EB810104EBC10181F8695101F5B47117
:101C60008A70087094F8A802012808D084F8A82285
:101C7000206802F0B4F984F8A852002070BD022058
:101C800070BD70B50C4601F0070505EB850100EB52
:101C9000C101C1E90F23012281F84C208B6400238C
:101CA0004B6481F8292001F8285F6207006802F080
:101CB000AFF9002070BD10B50446006802F01EFCAC
:101CC000000402D5204600F04BFF206802F016FC0D
:101CD00040050CD5206830F8441F21F48061018054
:101CE000204600F0F5F80021204600F00CF92068AD
:101CF00002F004FC400405D5206830F8441F21F4AC
:101D000080410180206802F0F9FB800405D520683D
:101D100030F8441F21F400510180206802F0EEFBEE
:101D2000C00414D5206830F8401F21F00401018060
:101D3000206830F8401F21F008010180204600F0A3
:101D4000DAF8206830F8441F21F4805101802068BF
:101D500002F0D4FB000514D5206830F8401F41F094
:101D600008010180206830F8441F21F400610180DF
:101D7000206830F8401F41F004010180204600F047
:101D8000F7F8206802F0BAFB800508D5206830F823
:101D9000441F21F400710180204600F0B0F8206853
:101DA00002F0ACFBC00505D5206830F8441F21F4D3
:101DB0008071018010BD70B586B0040004D094F825
:101DC000A902002518B107E0012006B070BD84F813
:101DD000A852204600F042F8032084F8A9022068A7
:101DE00002F0BAF8002001260EE000EB800104EBBF
:101DF000C10181F8296001F8280FC881CD700D61FB
:101E00004D61401CC0B28D6161688142EDD80020F7
:101E100011E000EB800104EBC10181F8695181F808
:101E2000680181F86B51C1F87851C1F87C51401CB0
:101E3000C0B2C1F8805161688142EAD8142204F12D
:101E400010016846FEF7FFF994E80F0002F07BF8F6
:101E500084F8245084F8A9620020B6E710B586B053
:101E6000044614216846FEF707FA1749206888429D
:101E700028D1164C606940F40030606160696946A1
:101E800000F4003005904FF4C05000900220019003
:101E900000200290032003900E2004904FF0904009
:101EA000FFF7ECFAE06940F40000E061E06900222D
:101EB00000F40000059011461420FFF725FC1420C3
:101EC000FFF714FC06B010BD005C0040001002409B
:101ED00070B5044680680125022801D0FEF785FD13
:101EE0002946D4F8E80201F050FCD4F8E802BDE835
:101EF000704001F00CBCD0F8E80201F030BCD0F822
:101F0000E80201F036BC10B5044690F8A80201289A
:101F10000BD0012084F8A80284F82410206802F075
:101F200007FB002084F8A80210BD022010BDD0F8E5
:101F3000E82200F52C71104601F033BC10B50446C0
:101F400090F8A802012810D0012084F8A802206887
:101F500002F0C5FA01212046FFF726FC206801F0B7
:101F6000F0FF002084F8A80210BD022010BD000080
:101F700010B50446D0F8E80201F052FCA069002830
:101F800004D00348016841F00601016010BD000063
:101F900010ED00E02DE9F84F044600680026804D62
:101FA000C0036ED5E869C00008D4E86940F08050ED
:101FB000E861E869012600F08050009079480168E6
:101FC000C90512D40168804641F480710160FFF7B1
:101FD00037FB074605E000BFFFF732FBC01B642854
:101FE00035D8D8F80000C005F6D5286A10F440703E
:101FF00053D0A18801F4407181424ED0286A4FF439
:10200000803191FAA1F2B2FA82F29700664A4FF05B
:102010000108174420F44070C7F8008491FAA1F138
:10202000B1FA81F102EB81010023C1F8003428628A
:10203000C00732D0FFF704FB074641F2883A4FF061
:10204000020907E0FFF7FCFAC11B514502D9032042
:10205000BDE8F88F99FAA9F0B0FA80F040F040029C
:102060004946B8EB521F01D12A680CE091FAA1F25F
:10207000B2FA82F242F04002B1EB521F02D12A6A58
:1020800001E015E06A6A99FAA9F1B1FA81F101F06B
:102090001F0108FA01F00242D4D0286A616820F4D6
:1020A0004070084328621EB1E86920F08050E86162
:1020B0002078C00705D0286BA16820F003000843F2
:1020C00028632078800705D5286BE16820F440302C
:1020D000084328632078400705D5286B216920F440
:1020E0004020084328632078800605D5286BE169E5
:1020F00020F01000084328632068800305D5686835
:10210000A16B20F48000084368602078400605D564
:10211000286B216A20F020000843286320780007FC
:1021200005D5286B616920F44010084328632078A6
:10213000C00605D5286BA16920F440000843286338
:102140002088800505D56868E16A20F4000008430E
:1021500068602078000605D5E86A616A20F4F870A6
:102160000843E8622088C00505D5E86AA16A20F422
:1021700078500843E8622088C00405D5286B216B9D
:1021800020F48070084328632088800405D5286BDC
:10219000616B20F4007008432863002058E70000BA
:1021A0000010024000700040000042422DE9F0475C
:1021B0000F46050069D04A4E306800F00700B8426B
:1021C00009D2306820F0070038433060306800F0F2
:1021D0000700B84259D12878424C800705D560687D
:1021E000A96820F0F000084360602878C0073DD05F
:1021F0006968012001290DD0022923D05FF0020374
:1022000093FAA3F2B2FA82F242F02002520904D009
:10221000226803E04FF40033F2E7626A93FAA3F313
:10222000B3FA83F303F01F03984002422DD0606895
:1022300020F0030008436060FFF702FA804641F295
:1022400088390CE04FF00073DAE700BFFFF7F8F9C8
:10225000A0EB0801494502D90320BDE8F08760687A
:10226000696800F00C00B0EB810FEFD1306800F02E
:102270000700B8420BD9306820F0070038433060BF
:10228000306800F00700B84201D00120E5E7287867
:10229000400705D56068E96820F4E06008436060A5
:1022A0002878000706D56068296920F4605040EA64
:1022B000C100606000F01EF86168F02292FAA2F29C
:1022C00001F0F001B2FA82F2D140074A515CC840F5
:1022D0000649086006480068FFF7D2F90020BCE70D
:1022E0000020024000100240D84F0008700000207B
:1022F00068000020164A10B55168164801F00C031A
:10230000042B20D0082B1ED14FF4701494FAA4F49F
:1023100001F47013B4FA84F4E3400F4CD26AE45C25
:102320000F2393FAA3F302F00F02B3FA83F3DA4018
:10233000094B1033C9039A5C06D500231946FDF7F3
:1023400041FFA0FB040110BD0448A4FB000110BD27
:102350000010024000127A00B84F000800093D004A
:102360002DE9F84F050071D02878FC4EC0074FF0DA
:10237000010425D070686704C0F38100012807D0EC
:102380007068C0F3810002281BD17068C00318D5A3
:1023900097FAA7F0B0FA80F040F02000400901D091
:1023A000306800E0706A97FAA7F1B1FA81F101F0A4
:1023B0001F0104FA01F1084265D068680028D2D0F4
:1023C00061E06868B0F5803F0BD010B1B0F5A02F88
:1023D00017D0306820F480303060306820F48020DE
:1023E00002E0306840F480303060F06AA96820F084
:1023F0000F000843F062686820B3FFF721F98046B8
:102400000AE0306840F480203060EAE7FFF718F90E
:10241000A0EB0800642871D897FAA7F0B0FA80F012
:1024200040F02000400901D0306800E0706A97FA5F
:10243000A7F1B1FA81F101F01F0104FA01F108429C
:10244000E4D020E0FFF7FCF8804607E0C2E000BFE0
:10245000FFF7F6F8A0EB08006428DCD897FAA7F09D
:10246000B0FA80F040F02000400901D0306800E070
:10247000706A97FAA7F1B1FA81F101F01F0104FA2D
:1024800001F10842E4D12878DFF8D48280074FF0C8
:10249000000A4FF0020730D570684FF0F80B10F0CB
:1024A0000C0F07D07068C0F38100022827D1706834
:1024B000C00324D497FAA7F0B0FA80F040F02000CF
:1024C000400901D0306800E0706A97FAA7F1B1FACC
:1024D00081F101F01F0104FA01F1084202D02869DC
:1024E000012877D130689BFAABF220F0F8016869D7
:1024F000B2FA82F29040014331605AE064E1286907
:1025000088B394FAA4F0B0FA80F048F82040FFF7BE
:1025100097F8814606E000BFFFF792F8A0EB0900AC
:1025200002289AD897FAA7F0B0FA80F040F020007D
:10253000400901D0306800E0706A97FAA7F1B1FA5B
:1025400081F101F01F0104FA01F10842E4D0306882
:102550009BFAABF26969B2FA82F220F0F80091407E
:102560000843306025E0FFE794FAA4F0B0FA80F069
:1025700048F820A0FFF764F8814605E0FFF760F80F
:10258000A0EB09000228CCD897FAA7F0B0FA80F0A7
:1025900040F02000400901D0306800E0706A97FAEE
:1025A000A7F1B1FA81F101F01F0104FA01F108422B
:1025B000E4D1287800076CD5A869A8B394FAA4F0F0
:1025C000B0FA80F008EB8000C0F88044FFF738F8DC
:1025D000814607E0A4E100BFFFF732F8A0EB090055
:1025E00002289ED897FAA7F0B0FA80F040F0600079
:1025F000B4EB501F01D130680BE097FAA7F0B0FAA6
:1026000080F040F06000B7EB501F01D1306A00E06D
:10261000706A97FAA7F1B1FA81F101F01F0104FA8B
:1026200001F21042D8D034E0FFE794FAA4F1B1FAF5
:1026300081F108EB8101C1F880A4FFF701F8814620
:1026400006E000BFFEF7FCFFA0EB090002289AD8C5
:1026500097FAA7F0B0FA80F040F06000B4EB501F9A
:1026600001D130680BE097FAA7F0B0FA80F040F0A3
:102670006000B7EB501F01D1306A00E0706A97FA32
:10268000A7F1B1FA81F101F01F0104FA01F2104241
:10269000D8D12878400768D5F0694FF00009C0000C
:1026A00009D4F06940F08050F061F0694FF0010901
:1026B00000F0805000902B480168C90512D40168D1
:1026C00041F480710160FEF7BBFF834606E000BF66
:1026D000FEF7B6FFA0EB0B00642875D82148006810
:1026E000C005F5D5E86801280AD008B1052811D041
:1026F000306A20F001003062306A20F0040002E00D
:10270000306A40F001003062E86868B3FEF798FF75
:1027100083460DE0306A40F004003062F0E700BF0D
:10272000FEF78EFFA0EB0B0141F2883081424BD8BF
:1027300097FAA7F0B0FA80F040F04000B4EB501FD9
:1027400001D1306813E097FAA7F0B0FA80F040F0BA
:102750004000B7EB501F09D1306A08E0001002407A
:1027600000004242007000400CE040E0706A97FABE
:10277000A7F1B1FA81F101F01F0104FA01F2104250
:10278000CED02DE0FEF75CFF834607E0FEF758FF52
:10279000A0EB0B0141F28830814215D897FAA7F0DF
:1027A000B0FA80F040F04000B4EB501F01D1306827
:1027B0000CE097FAA7F0B0FA80F040F04000B7EBD9
:1027C000501F02D1306A01E083E0706A97FAA7F1E6
:1027D000B1FA81F101F01F0104FA01F21042D5D1E2
:1027E000B9F1000F03D0F06920F08050F061E86982
:1027F00080B37168C1F38101022977D04FF08071F5
:102800004F000228504609D091FAA1F1B1FA81F1A6
:1028100048F82100FEF714FF05465DE0894691FA6D
:10282000A1F1B1FA81F1C24648F82100FEF708FF94
:10283000804605E0FEF704FFA0EB0800022848D818
:1028400097FAA7F0B0FA80F040F02000400902D0DB
:10285000306801E066E0706A97FAA7F1B1FA81F199
:1028600001F01F0104FA01F10842E3D1D5E9081093
:102870000843716821F474110843706099FAA9F053
:10288000B0FA80F04AF82040FEF7DAFE054604E090
:10289000FEF7D6FE401B02281BD897FAA7F0B0FA25
:1028A00080F040F02000400901D0306800E0706AFC
:1028B00097FAA7F1B1FA81F101F01F0104FA01F1D1
:1028C0000842E5D02EE000BFFEF7BAFE401B02280A
:1028D00002D90320BDE8F88F97FAA7F0B0FA80F08C
:1028E00040F02000400902D0306801E00BE0706A3F
:1028F00097FAA7F1B1FA81F101F01F0104FA01F191
:102900000842E1D10EE00128E4D070682A6A00F4A0
:102910008031914204D1696A00F47010884201D07C
:102920000120D7E70020D5E710B5401EB0F1807F29
:1029300001D3012010BD4FF0E02460610F2160172A
:1029400001F024FE0020A06107202061002010BDBE
:10295000FEE70000F0B500230A24302537261F4685
:1029600011E000BFB4EB107F02D905EB107C01E051
:1029700006EB107C01F813C001EB430C00015B1C5B
:102980008CF80170DBB29342ECD3F0BD30B589B066
:10299000002406940794182168460894FDF76CFCFF
:1029A00018484FF0A0410125C0E90014846004617B
:1029B000447680F82040C0E90A54C561C46080F8BC
:1029C00030400421416104764463FEF77DFA08B18A
:1029D00072B6FEE706A90B480694FEF71BF808B18D
:1029E00072B6FEE700950394CDE90154049469465C
:1029F00004480594FEF79AF8002801D072B6FEE765
:102A000009B030BDA801002030B587B01821684654
:102A1000FDF732FC154814490024C0E90014846015
:102A200001250461457680F82040C0E90A54C5615B
:102A3000C46080F830400421416104764463FEF7AD
:102A400043FA08B172B6FEE700950394CDE901544C
:102A50000494694605480594FEF768F8002801D0FB
:102A600072B6FEE707B030BD00010050F80100204B
:102A70002DE9F04186B014216846FDF7FDFB2048A2
:102A8000416941F480014161416901F4800105918E
:102A9000416941F400314161416901F4003105911E
:102AA000416941F480214161406948F2084400F4E1
:102AB00080204FF090470590002221463846FEF7CF
:102AC000B9FDDFF8408048F2382600223146404602
:102AD000FEF7B0FD0125CDE90045002402946946CA
:102AE00038460394FEF7CAFC0096CDE901546946C6
:102AF00040460394FEF7C2FC06B0BDE8F08100003A
:102B0000001002400004004810B500220F49104890
:102B100000F0C8FC08B1FDF768FF0E490C4800F052
:102B2000A5FE08B1FDF761FF0B49094800F0C6FAA0
:102B300008B1FDF75AFF064800F0EEFE002803D06A
:102B4000BDE81040FDF751BF10BD0000040000209B
:102B5000480200205001002054000020FEE7FEE75C
:102B60002DE9F84F044640F68F7B48F60F7A4FF078
:102B700002094FF4806868E1B0F8441011F00F06C4
:102B800038D030F8267039047ED530F8261001EAA6
:102B90000B0141F0800120F8261006EB860004EBC3
:102BA000C00595F8740105F5B47500286DD0E87876
:102BB00002286BD02A78216831F8220048F68F73FA
:102BC000184048F2C003184321F8220029782068F1
:102BD00030F82120B0F8503052047DD509EBC10106
:102BE0005A1808EB4201415A8905890D009174D0A9
:102BF0002A89D2E0C9062DD4018801EA0A0141F4EC
:102C000000410180206804F12805B0F850302A788E
:102C100009EBC2015A1808EB4201405AC0F30900FF
:102C20006064E16B0844E06300212046FEF7BDFDCF
:102C300094F8240000289ED0A86900289BD194F81D
:102C4000240040F080012068A0F84C10002084F897
:102C50002400FAE0018804F5B4750A0521D5B0F81E
:102C600050302A78062101EBC2015A1808EB4201C4
:102C7000405A04F52C71C0F30903EB61EA8820681F
:102C800001F040FC216802E0A2E062E072E0088806
:102C900000EA0B0040F0800008802046FFF747F96B
:102CA000D3E00904D5D5018801EA0B0141F0800188
:102CB00001802068B0F850202B78062101EBC30179
:102CC0000A4408EB4201405A83059B0DEB6110D08A
:102CD000696971B1EA8801E053E051E0206801F0D0
:102CE00011FCE96968690844686100212046FEF723
:102CF00065FD2068B0F850100844296900F20C40C6
:102D000051B13E2910D84A08C90700D0521C4FF6CD
:102D1000FF7101EA82210FE0018821F4F84101806E
:102D2000018841F4004107E04A09C90600D1521E5A
:102D30004FF4004141EA82210180206801884BF66E
:102D40008F72114081F4405148F28002114301809A
:102D50007BE02068B0F850102A78062303EBC2020B
:102D60000A4408EB4201415A8905890D009118D0A7
:102D7000EA8812E03A4629462046FEF77DFD00909B
:102D80000FE0062202EBC1015A1808EB4201415A3A
:102D90008905890D009104D06A896969009B01F059
:102DA000B1FBE96900980844E86169690098084442
:102DB0006861A86918B129690098814204D9297805
:102DC0002046FEF7FBFC03E02946206801F020F9CD
:102DD00038063AD5226806EB860004EBC00132F8CB
:102DE000260000EA0A0040F4004022F8260091F88C
:102DF0002B002831022801D1F80522D42268B2F82C
:102E000050300D7809EBC500034408EB4300105A1D
:102E10008A69C0F3090082420CD9121A8A610BD068
:102E20004A6902444A61CA691044C861206801F0D5
:102E3000EFF80AE000208861E9B22046FEF7B5FC11
:102E400003E03A462046FEF78AFD2068B0F84410B9
:102E500009043FF591AE0020BDE8F88F7047704738
:102E6000FEF7F4BB30B59FB028210FA8FDF704FA98
:102E7000142119A8FDF700FA3C216846FDF7FCF97A
:102E80000121002408041194CDE90F100225CDE999
:102E900016501391000118900FA8FFF761FA08B1BE
:102EA00072B6FEE70F20CDE919054FF48060CDE939
:102EB0001B40012119A81D94FFF778F908B172B6DB
:102EC000FEE7074800904012099080030E90684684
:102ED000FFF760F8002801D072B6FEE71FB030BDE2
:102EE000800002000248016841F4700101607047EF
:102EF00088ED00E02DE9F041D0F8C032D0F8B822DA
:102F0000CAB101EB810500EB85040026E7693FB1FA
:102F100003EBC5039B6BB7FBF3F503FB157323B101
:102F2000C2F814610020BDE8F08100231A46E66172
:102F300000F07FFCF6E70220F5E770B50546D0F813
:102F4000B84200F07AFBC4F80C01D5F8B80248B1D9
:102F5000D5F8BC12D4F80401CA6804F5867190470C
:102F6000002070BD022070BD70B50446002681218E
:102F700000F0B6FA002501212046E56200F0B0FA23
:102F800082212046C4F86C5100F0AAFA2564D4F8D6
:102F9000B80248B1D4F8BC0204F52E7440688047EA
:102FA000206800F016FE2560304670BD10B5D0E9EF
:102FB000AE4159B194F80001FF2807D08B6894F80E
:102FC000012121469847FF2084F80001002010BD10
:102FD0000A210180004870477800002043210180C9
:102FE00000487047C8000020432101800048704716
:102FF0008400002043210180004870470C0100201C
:103000002DE9F04104460026007C4FF4807701252D
:1030100090B3402302228121204600F063FB40232D
:10302000E56202220121204600F05CFB0823032216
:1030300082212046C4F86C5100F054FB4FF48E708E
:10304000256400F0C7FDC4F8B802F8B10546D4F80D
:10305000BC02006880470020C5F81401C5F81801BB
:10306000207CD5F8042198B140230121204600F0AE
:1030700045FB3046BDE8F081FFE73B460222812157
:10308000204600F02FFB3B46E562CAE70126F0E749
:103090003B46EAE710B5D0F8B81269B1027C002AC5
:1030A000D1F8042105D04023012100F027FB0020A6
:1030B00010BD4FF48073F7E7022010BD02460220D6
:1030C000002902D00020C2F8BC127047D0F8B80224
:1030D000C0F8041100207047D0F8B802C0F81021E1
:1030E000C0F80811002070472DE9FC410546D0F8D2
:1030F000B87200208DF80000ADF80400064608788C
:103100000C4610F0600121D020293BD1E288AAB101
:103110000006607807D5D5F8BC128B683946984709
:10312000E288394626E087F80001A07987F8010196
:10313000E2883946284600F06AF828E0D5F8BC1243
:10314000607800228B682146984720E0607820B1A3
:103150000A2809D00B2815D110E095F89C02032805
:1031600010D1022201A905E095F89C02032809D19B
:1031700001226946284600F064F808E095F89C02B0
:10318000032804D02146284600F036F802263046AF
:10319000BDE8FC8110B5D0F8B812A1B1D1F8142166
:1031A0000AB1012010BD0122C1F81421D1F810216B
:1031B0000263B1F8102193B2D1F80821812100F007
:1031C00038FB002010BD022010BD10B5D0F8B4228D
:1031D00052689047002010BD134610B50A460021E2
:1031E00000F08CFA002010BD134610B50A460021ED
:1031F00000F01FFB002010BD10B50446802100F038
:10320000FDFA2046BDE81040002100F0F7BA10B5E5
:103210000323C0F85C21C0F89432C0F86021134643
:103220000A46002100F06AFA002010BD10B5052101
:103230000023C0F894121A46194600F05FFA0020E5
:1032400010BD10B50223C261C0F894320262134669
:103250000A46002100F0EDFA002010BD10B504214F
:103260000023C0F894121A46194600F0E2FA002032
:1032700010BD000010B50A46024903A000F0E2F8B4
:10328000004810BD0C05002043444320436F6E6688
:103290006967000012200880004870472400002061
:1032A00010B50A46024903A000F0CCF8004810BD52
:1032B0000C05002043444320496E746572666163C7
:1032C00065000000042008800048704720000020AE
:1032D00010B50A46024903A000F0B4F8004810BD3A
:1032E0000C05002053544D6963726F656C656374FF
:1032F000726F6E696373000010B50A46024903A03D
:1033000000F0A0F8004810BD0C05002053544D33C8
:1033100032205669727475616C20436F6D506F7204
:103320007400000010B51A2008800A480168001DCA
:103330000468001D0068081809D008220649FFF734
:1033400009FB0549042210312046FFF703FB024820
:10335000801E10BDACF7FF1F3A000020F8B50446F0
:103360000020ADF8000048880D46010A082948D21F
:10337000DFE801F04704091747473C45D4F8B0128D
:10338000207C0A6819E0207C02260028D4F8B402C8
:1033900005D0C16A68468847014646703EE0816AAA
:1033A000F8E7C0B206282CD2DFE800F0030A1014B8
:1033B000181CD4F8B002426805E0694690471CE04A
:1033C000D4F8B0028268E2B1207CF6E7D4F8B0020B
:1033D000C268F8E7D4F8B0020269F4E7D4F8B002A2
:1033E0004269F0E7D4F8B0028269ECE7207C40B98A
:1033F000D4F8B402416B6846884701460EE0207C51
:1034000020B129462046FFF7F7FEF8BDD4F8B402F4
:10341000016B68468847014607204870BDF80000E8
:1034200048B1EA8852B1824200D90246ADF8002084
:103430002046FFF706FFE8880028E6D12046FFF780
:103440000DFFF8BD70B5002300281ED004460025EE
:1034500002E06D1CEDB2641C2678002EF9D1022426
:1034600004EB450414801278CA545B1C0322CA542E
:1034700000245B1C06E0CA545B1CDAB28C54521C5C
:10348000D3B2401C0278002AF5D170BD01004FF084
:10349000000004D0012901D0022901D00220704788
:1034A0000120704710B580B1D0F8B43213B10023B9
:1034B000C0F8B43209B1C0F8B012012180F89C12F2
:1034C000027000F0BFF8002010BD022010BD10B542
:1034D000D0F8C002FEF7A2F9BDE81040FFF7D6BF52
:1034E00010B5D0F8C002FEF773F9BDE81040FFF741
:1034F000CDBF2DE9F0411746044651B1D4F8B402CE
:1035000042691AB194F89C02032851D00220BDE808
:10351000F081D4F89432002504F11400022B03D07A
:10352000042B3AD0C3B33CE0D0E903639E4207D9F1
:10353000F11AC1608AB239462046FFF755FE12E003
:103540008068B0FBF3F103FB110199B9984211D3E4
:10355000D4F8981288420DD2002211462046FFF777
:1035600043FEC4F8985200231A461946204600F03C
:10357000C5F816E0D4F8B402C16829B194F89C02E9
:10358000032801D1204688478021204600F036F9E3
:103590002046FFF74BFE04E0FFE78021204600F0C5
:1035A0002DF994F8A002012804D184F8A05201E07A
:1035B000204690470020AAE770B51546044649B159
:1035C000D4F8B40282691AB194F89C02032830D06E
:1035D000022070BDD4F8941204F5AA70032902D019
:1035E00005291ED027E0D0E903218A420BD9531ABE
:1035F000C3600846834200D303469AB22946204658
:10360000FFF7EAFD17E0D4F8B402016929B194F894
:103610009C02032801D1204688472046FFF71EFE62
:1036200009E000200146C4F89402204600F0E6F8C4
:1036300001E020469047002070BDD0F8C002FEF7A0
:103640009EBA000010B504461C481D49C0F8E84267
:10365000C4F8C0020160082141600221816001615B
:10366000002181610162FEF7A6FB08B1FDF7BDF9FB
:103670000022D4F8C0021823114604F53074FEF776
:1036800075F85823002280212068FEF76FF8C023C8
:10369000002281212068FEF769F84FF48873002228
:1036A00001212068FEF762F84FF480730022822126
:1036B0002068FEF75BF8002010BD0000FC0E002023
:1036C000005C00400A0601F07F01D0F8C00201EB67
:1036D000810100EBC10002D590F82A00704790F8F4
:1036E0006A01704710B51C461346D0F8C002224646
:1036F000FEF74EFABDE81040FFF7C8BE10B5D0F88F
:10370000C002FEF775FABDE81040FFF7BFBE70B506
:103710000022044640231146FFF7E4FF402601251E
:10372000C4F864613346002280212046C4F8585111
:10373000FFF7D8FF6662A56184F89C520020C4F8A8
:1037400094026060C4F8A402D4F8B80228B1D4F896
:10375000B4020021426820469047002070BD90F8D6
:103760009C12042903D190F89D1280F89C1200202D
:10377000704710B590F89C12032904D1D0F8B41208
:10378000C96901B18847002010BD0174002070474D
:1037900010B5D0F8C002FEF7B6FBBDE81040FFF749
:1037A00075BE70B5044600F52A70054600F04AF86B
:1037B0000120C4F89402B4F8AE02C4F8980294F858
:1037C000A80210F01F010AD001290DD0022910D043
:1037D00000F08001204600F011F8002070BD29465D
:1037E000204600F09EF8F8E72946204600F0CAF986
:1037F000F3E72946204600F01DF9EEE710B5D0F8B2
:10380000C002FEF70EFABDE81040FFF73FBE10B54C
:10381000D0F8C002FEF792FBBDE81040FFF736BEBD
:1038200090F89C1280F89D12042180F89C120020D0
:10383000704710B5D0F8C002FEF723FABDE810407B
:10384000FFF724BE0A7802704A7842708A78CB78F3
:1038500002EB032242800A794B7902EB0322828039
:103860008A79C97902EB0121C180704702460020A4
:1038700011B1C2F8B41270470220704710B5D0F8E9
:10388000B42202241AB11268904700B900242046DD
:1038900010BD000070B50E461E4D89780446297093
:1038A000012931D894F89C0202280BD003280FD0AC
:1038B00031462046FFF7A0FC29782046BDE870403D
:1038C000FFF783BCD9B10320616084F89C0209E052
:1038D00071B16068884212D0C1B22046FFF775FC12
:1038E000297861602046FFF7C9FF02280CD006E066
:1038F000022084F89C0220466160FFF766FC2046A7
:10390000BDE87040FFF7AABC31462046BDE87040D4
:10391000FFF772BC7400002010B5FFF778FF00209D
:1039200010BD2DE9F0410A78002612F0600208D09F
:10393000202A01D0402A70D1D0F8B4229268904752
:103940006DE04B78002201250A2B66D2DFE803F0F8
:10395000405D6557650805652C29FFF7FFFC5EE0B3
:1039600004468888D8B9C888C8B94888802816D23B
:1039700000F07F0794F89C02032810D084F89E7210
:1039800039462046FFF704FF2046FFF767FC1FB1CA
:10399000022084F89C0242E084F89C523FE02046DA
:1039A0003BE0FFF777FF3AE0CB88012B35D190F869
:1039B0009C32012B04D0022B02D0032B2DD104E02A
:1039C0008260012200F1080116E00122011D13E0CE
:1039D00090F89C22012A03D0022A01D0032A1CD18C
:1039E000CA88022A19D1C560D0F8A41209B10321EE
:1039F000C160022200F10C01FFF723FC0FE04988AF
:103A000001290CD1C0F8A45211E090F89C32012B8E
:103A100008D0022B06D0032B04D0FFF7EDFB304675
:103A2000BDE8F08149880129F9D1C0F8A422FFF747
:103A300015FCF4E72DE9F0410A460446107800270A
:103A4000097910F060030AD0202B01D0402B50D10F
:103A5000D4F8B40211468368204698478FE0C0F33B
:103A60004110012806D05078D0B301282AD003286D
:103A70003FD107E0D4F8B402114683682046BDE880
:103A8000F041184794F89C02022802D0032872D112
:103A90000AE071B380296ED02046FFF7AFFE802187
:103AA0002046FFF7ABFE6AE0508838B931B1802973
:103AB00004D0D08810B92046FFF7A0FE2046FFF7BB
:103AC000CDFB5CE094F89C020228E2D0032852D19E
:103AD000508898BB4806F1D02046FFF7F8FCEDE788
:103AE000FFE794F89C020026022803D0032842D165
:103AF00012E040E009B180293DD1080601F07F00C5
:103B000000EB800004EB800101D5143101E001F5E8
:103B1000AA7102220E602AE0080601F00F0000EBF5
:103B2000800004EB80000AD5806920B301F07F009B
:103B300000EB800004EB800514350BE01FE0D0F8AB
:103B40005801C0B101F07F0000EB800004EB80055C
:103B500005F5AA7541B1802906D02046FFF7B2FDD0
:103B600010B10120286000E02E6002222946204684
:103B7000FFF767FB03E011462046FFF73DFB3846A1
:103B8000BDE8F08170B5054608780C4610F060007D
:103B900003D0202801D0402816D195F89C02012896
:103BA00003D0022801D003280ED1207901280BD898
:103BB000D5F8B402826828469047E188014306D1CF
:103BC0002846FFF74BFB02E02846FFF715FB0020D5
:103BD00070BD704700487047DC0D00202DE9F047AC
:103BE0000C78002630F8243048F68F121340CA783B
:103BF000002A7DD0012A7CD0022A02D0032A7FD05D
:103C0000012648F28002134320F824300D7830F862
:103C1000254048F68F731C402C43144320F8254060
:103C20000D7B48F2C00C48F6BF744CF280074BF68F
:103C30008F79EDB391F80080C24630F8285048F2F1
:103C400080181D4045EA080520F82A50B0F8505069
:103C500091F80080054405EB0815B1F8088028F0BC
:103C60000108A5F80084B0F8505091F80080054490
:103C700005EB0815B1F80A8028F00108A5F80884BA
:103C80004D78002D0D7830F825804FEA48487DD0DA
:103C9000B8F1000F07DA30F8258008EA030848EA8F
:103CA000070820F825800F7830F827506D0600E0CF
:103CB0002CE006D530F827501D4045EA0C0520F8C9
:103CC0002750CB780D78012B30F8253003EA040318
:103CD00001D083F02003134320F825300B7830F80F
:103CE000231001EA0901114320F82310304602E0B5
:103CF00003E008E004E0BDE8F08743F4007380E7E8
:103D000043F4C0637DE743F480637AE74D782DB3D5
:103D1000B0F850500F78054405EB0715CF8827F011
:103D20000107A5F800740F7830F827506D0606D506
:103D300030F827501D4045EA0C0520F82750CB7875
:103D4000012B06D00B7830F82310214081F02001A0
:103D5000C9E70B7830F823102140C4E7B0F8504091
:103D60000D78044404EB0514CD8825F00105A4F872
:103D70000854B0F850400D78044404EB05140D6964
:103D800004F20C4475B13E2D14D800E030E04FEA47
:103D9000550CED0701D00CF1010C4FF6FF7505EA4B
:103DA0008C2511E0258825F4F8452580258845F4E3
:103DB000004509E04FEA551CED0601D1ACF1010CBC
:103DC0004FF4004545EA8C2525800D7830F82540D4
:103DD000640405D530F825401C403C4320F82540BC
:103DE0000B7830F8231001EA090181F440517AE799
:103DF000B8F1000F07DA30F8258008EA030848EA2E
:103E0000070820F825800F7830F827506D0606D572
:103E100030F827501D4045EA0C0520F827500D7852
:103E200030F8253003EA090383F44053134320F8A4
:103E300025308EE72DE9F04391F80C804F780A7811
:103E400048F6BF7C4BF68F7948F2800348F2C005F4
:103E50004CF2800648F68F74B8F1000F28D0002F7E
:103E600030F822704FEA474748D0002F05DA30F883
:103E700022702740374320F822700A7830F82270E9
:103E80007F0605D530F8227027402F4320F8227096
:103E90000D7830F825202240324320F825200C7878
:103EA00030F8242002EA0C021A4320F824201AE0F9
:103EB0007FB130F82260760605D530F822602640C2
:103EC0002E4320F822600A7830F8221001EA0C0113
:103ED0000EE030F822506D0405D530F82250254010
:103EE000354320F822500A7830F8221001EA0901FF
:103EF000194320F822100020BDE8F083002F05DAD6
:103F000030F822702740374320F822700A7830F8C2
:103F10002260760605D530F8226026402E4320F830
:103F200022600E7830F8262022402A4320F82620EE
:103F30000C7830F8242002EA09021A4320F82420E1
:103F4000C1E700207047012120F8401F00210180B7
:103F5000818001820846704730F8401F21F43F41BC
:103F600001800020704730B50A7BB2BB4A7848F622
:103F70008F7548F28004C2B10B7830F823205206C6
:103F800007D530F823202A4048F2C0052A4320F8FC
:103F90002320CA78012A20D00A7830F8221048F667
:103FA000BF73194081F0200114E00A7830F8223004
:103FB0005B0407D530F822302B404CF280052B43B0
:103FC00020F822300A7830F822104BF68F7319400F
:103FD00081F44051214320F82210002030BD10B55B
:103FE0004A780978002A48F2800330F8212005D069
:103FF00048F6BF74224082F0100204E04BF68F7442
:10400000224082F480521A4320F82120002010BD63
:104010002DE9F04F0D464A78097B04464FF0000920
:1040200048F68F7A48F2800B4FF6FF774FF400483E
:10403000012A09D000297DD0E87802287BD0012808
:104040007AD00120BDE8F08FAE692869864200D998
:10405000064681B1E97802291CD0287834F820106E
:104060004906B4F85010214401EB001070D5A0F8B7
:104070000C646A8928E1B3B2EA882046696900F0D5
:104080005DFAB4F850002978204400EB0110A0F844
:10409000046435E1296A814276D9297834F821000F
:1040A00048F2801200EA0A00104324F82100286A2E
:1040B000801B2862287834F820104906697876D564
:1040C00011B1012921D027E0B4F85010214401EBAF
:1040D000001000F20C404EB13E2E0FD87108F207CE
:1040E00000D0491C07EA8121018015E0018821F4F4
:1040F000F8410180018841F40041F5E77109F206B9
:1041000000D1491E48EA8121EEE7B4F85020111988
:1041100001EB0010A0F80C646A89B3B2204669690B
:1041200000F00CFA6869304468612969286A88429D
:1041300006D902E0EDE00DE178E1801B286202E0A3
:104140000646C5F82090687818B1012824D02BE0E5
:10415000B7E0B4F850002978204400EB011000F2D9
:1041600004404EB13E2E10D87108F20700D0491C11
:1041700007EA8121018017E0018821F4F8410180DC
:10418000018841F40041F5E786E07109F20600D1AB
:10419000491E48EA8121EDE7B4F85000297820440F
:1041A00000EB0110A0F804642A896FE0FFE711B169
:1041B000012921D027E0B4F85010214401EB001070
:1041C00000F204404EB13E2E0FD87108F20700D025
:1041D000491C07EA8121018015E0018821F4F8419A
:1041E0000180018841F40041F5E77109F20600D130
:1041F000491E48EA8121EEE7B4F85010214401EB52
:104200000010A0F804642A89B3B22046696900F05E
:1042100095F96869304468612969286A884202D939
:10422000801B286202E00646C5F82090687810B12D
:10423000012822D029E0B4F850002978204400EB6E
:10424000011000F20C404EB13E2E0FD87108F2075B
:1042500000D0491C07EA8121018016E0018821F481
:10426000F8410180018841F40041F5E77109F20647
:1042700000D1491E48EA8121EEE7B4F85010081930
:10428000297800EB0110A0F80C646A89B3B22046CB
:10429000696900F053F933E02A7834F8220048F6CF
:1042A0008F63184040EA0B0024F82200B4F8500055
:1042B0002A78204400EB02108BB2A0F804342A893B
:1042C000E5E7A0F804642A89B3B22046696900F0E2
:1042D00035F9687810B1012808D011E0297834F850
:1042E000210048F2C00200EA0A0006E0297834F80A
:1042F00021004CF2800200EA0A00104324F8210059
:10430000297834F8210048F6BF72104080F0300060
:10431000DFE0A9692869814202D9091AA961B6E0DA
:104320000846C5F81890B2E0088820F4F8400880E4
:10433000088840F400400BE03E2876D84208C007C9
:1043400000D0521C07EA822002E000BF48EA822027
:104350000880B6E092B9B4F850002978204400EB08
:104360000110296900F2044069B13E2913D84A08B6
:10437000C90700D0521C07EA82210180687888B101
:10438000012832D03AE0018821F4F8410180018807
:1043900041F40041F1E74A09C90600D1521E48EA3A
:1043A0008221EAE7B4F850002978204400EB01109C
:1043B000296900F20C4049B13E290FD84A08C907C3
:1043C00000D0521C07EA8221018017E0018821F405
:1043D000F8410180018841F40041F5E74A09C90626
:1043E00000D1521E48EA8221EEE7B4F850100819B5
:1043F000297800EB0110298AA0F80C14E869B0B301
:10440000297834F82100420401D5420603D444F24D
:104410004002104255D134F8210048F2C00200EAAF
:104420000A00104324F821004BE03CE0A969286908
:10443000814202D9091AA96102E00846C5F818901C
:104440008AB9B4F850102A78214401EB021101F224
:10445000044168B13E2813D84208C30700D0521C5B
:1044600007EA82220A80697889B1012921D028E0EF
:104470000A8822F4F8420A800A8842F40042F1E7EE
:104480004209C30600D1521E48EA8222EAE7B4F884
:1044900050102A78214401EB021101F20C4100284E
:1044A0007FF44AAF40E74209C0067FF44FAF521E87
:1044B0004CE7B4F8502011192A7801EB0211A1F849
:1044C0000C04297834F821004BF68F72104080F4E8
:1044D000405040EA0B0024F821000020B2E5002102
:1044E000A0F844104FF43F41A0F84010002070475E
:1044F0000148FDF7E0BB0000FC0E0020B0F84400CE
:104500007047000010B500EB42005C0800F58060C9
:1045100009D000BF30F8042B01F8012B120A01F872
:10452000012B641EF6D1DA0701D00088087010BD97
:1045300011B98021A0F84C100020704710B55B1C09
:1045400000EB42005B0800F5806009D011F8012BF8
:1045500011F8014B42EA042220F8042B5B1EF5D12E
:1045600010BDFEE70FB4084B10B504A902AA0398CA
:1045700000F0EEF8044602A9002000F06CFC204692
:1045800010BC5DF814FB0000574E00080907090E27
:10459000002804DB00F1E02080F80014704700F0F0
:1045A0000F0000F1E02080F8141D704702E008C8F9
:1045B000121F08C1002AFAD170477047002001E09D
:1045C00001C1121F002AFBD1704700002DE9FF5FD7
:1045D00082B00021DDE90430020DDDF840B0034374
:1045E00018D044F61050A2F2FF324243151411982D
:1045F00001281FD0A5EB0B00401C5FEA000A4FF01A
:1046000000064E4FDFF83891B046504615D5CAF136
:10461000000413E0119801244AA3012801D16FEA94
:104620000B010298119AC0E90031C0E9024206B0BC
:10463000BDE8F09FCBF10000DFE704460021404ACF
:10464000491842EB0450CDE9001012E0E00707D012
:1046500032463B4640464946FBF72CFE804689469B
:1046600032463B4610461946FBF724FE06460F46E7
:104670006410002CEAD1DDE90401DDE90023BAF180
:10468000000F06DAFBF716FE42464B46FBF712FE1A
:1046900005E0FBF781FE42464B46FBF77DFE0446F4
:1046A0000E460022284BFCF735F803D84FF0FF30B8
:1046B000014607E00022254B20463146FBF76AFF02
:1046C000FCF70FF8102409E0002C0ADB0A22002373
:1046D000FBF778FD039B30321A55641E50EA010245
:1046E000F2D1641C039AC4F111031444119A012AF3
:1046F00003D0012208430DD10AE0084304D0002072
:104700004FF0110B119072E7A3EB0B056D1E0DE03E
:104710005B4504DD4FF0000205F1010504E003DA1A
:104720004FF00002A5F10105002AECD00298119982
:10473000C0E90231C0E9004579E7000000001440FB
:104740000000F03F300000000000F0430000E03FB8
:104750002DE9FF4F95B09A46884606460025EEE1C2
:10476000252877D100242746F94A0121039400E047
:10477000044316F8013F203B01FA03F01042F7D141
:1047800030782A2811D06FF02F033078A0F1300252
:10479000092A16D8039A44F0020402EB820203EBC2
:1047A00042021044761C0390EFE758F8042B039262
:1047B000002A03DA504244F40054039044F0020407
:1047C000761C30782E2816D116F8010F44F0040418
:1047D0002A280DD06FF02F023078A0F13003092B7A
:1047E00009D807EB870302EB4303C718761CF3E7EE
:1047F00058F8047B761C30786C280FD006DC4C28E7
:1048000017D068280DD06A2814D104E0742810D07D
:104810007A280FD10DE044F400140AE044F4801427
:1048200001E044F440147278824202D104F580140D
:10483000761C761C307866280BD013DC582877D08D
:1048400009DC002875D04528F6D04628F4D0472842
:104850001AD193E118E0632835D0642879D065280F
:1048600012D18BE1702873D008DC6728F1D0692859
:104870006FD06E280DD06F2806D1ACE073282CD0F5
:10488000752874D0782853D05246179990476D1CDC
:1048900054E1C4F30250022809D003280DD0D8F8FF
:1048A000001004280DD00D6008F1040846E1D8F886
:1048B0000010EA17C1E90052F6E7D8F800100D80A1
:1048C000F2E70D70F0E718F8041B8DF800100020D7
:1048D0008DF80100EB46012003E058F804BB4FF0CF
:1048E000FF3061074FF0000102D40DE009F1010132
:1048F0008946B9420FDA8145F8DB1BF80910002917
:10490000F4D108E009F1010189468142FADB1BF884
:1049100009100029F6D103985346A0EB0907214658
:104920003846179A00F080FA284400EB090507E0A2
:1049300044E008E10DE01BF8010B5246179990473F
:10494000B9F10109F7D2534621463846179AF2E0E9
:1049500039E00A21C4F302524FF0000B0091022A01
:1049600006D058F8040BC117032A09D00AE023E047
:1049700008F1070020F00702F2E80201904605E086
:1049800000B2C117042A01D140B2C117002906DACA
:104990000A460021404261EB02012D2202E022057D
:1049A00004D52B228DF80420012203E0E20701D078
:1049B0002022F7E7914657E00A2100E010214FF04E
:1049C000000B00910BE010214FF0000B44F00404A9
:1049D0000827009103E008204FF0000B0090C4F37B
:1049E0000252022A05D058F8040B0021032A08D0ED
:1049F00008E008F1070020F00702F2E80201904603
:104A000003E080B2042A00D1C0B24FF000092207AF
:104A10002AD53278702A07D0DDF800C08CF0100C4F
:104A20005CEA0B0C05D00EE040228DF80420012238
:104A300008E050EA010306D030238DF804308DF8E9
:104A4000052002229146009B83F0080353EA0B03E2
:104A50000AD150EA010201D1620705D530228DF852
:104A600004204FF001097F1E3278582A04D039A261
:104A70000C920CAA02920BE03BA2F9E75B46009A6B
:104A8000FBF7A0FB0C9B9B5C029A521E02921370D8
:104A900050EA0102F2D1029804A9081A00F1200B91
:104AA000600702D524F4803400E001275F4502DD71
:104AB000A7EB0B0000E0002000EB0B010090039837
:104AC0004944401A0390E00306D453462146179AFE
:104AD000039800F0A9F90544002706E001A8524612
:104AE000C05D179990476D1C7F1C4F45F6DBE003B6
:104AF0000CD553462146179A039800F095F90544C2
:104B000004E030205246179990476D1C0099481ECA
:104B100000900029F5DC08E00298029952460078DE
:104B2000491C0291179990476D1CBBF10001ABF134
:104B3000010BF1DC5BE100F065F90544761C30788F
:104B400000287FF40DAE19B02846BDE8F08F0000B4
:104B50000928010030313233343536373839616253
:104B60006364656600000000303132333435363717
:104B7000383941424344454600000000600700D4F4
:104B8000062708F1070020F00700F0E8022380461E
:104B900003F0004C5FEA0C0001D097A009E020056B
:104BA00001D596A005E0E00701D095A001E0AFF2A5
:104BB0004C001390307823F0004365280CD006DCBD
:104BC000452809D046281DD047287FD13BE06628DC
:104BD00018D067287AD136E00021112F01DB11208F
:104BE00000E0781CCDE9000104A90CA8FFF7EEFC59
:104BF000DDE90D010C9A4FF0000B07F1010910924D
:104C000000914EE04FF000400097CDE9011004A95B
:104C10000CA8FFF7DBFCDDE90D020C9B0F994FF0B0
:104C2000000B91461093009211B9791C00EB010919
:104C3000B7EB090003D4C0F1FF3B07F10109A9EB71
:104C40000700019042E0012F00DA01270021112F17
:104C500001DD112000E03846CDE9000104A90CA8CF
:104C6000FFF7B4FCDDE90D010C9A00914FF0000B49
:104C7000B946109221070FD4009A4A4503DA9146AB
:104C800001E0A9F10109B9F1010F05DD109AA9F1BF
:104C90000101515C3029F4D0B84202DA10F1040F5E
:104CA00003DA0121CDE9011010E0002803DC834480
:104CB000A9EB000102E0411C494500DD8946A0EB5B
:104CC0000B00401C01904FF000400290200705D4DB
:104CD0000198484502DB4FF0FF30019000208DF82D
:104CE0004B0002980DF14B07B0F1004F25D0022088
:104CF0000C902B200D90029800280CDA4042029074
:104D00002D200D9007E00A210298FBF7C1FB3031FE
:104D1000029007F8011D0C99481E0C900029F2DC46
:104D200002980028EFD1791E0D980870307800F0B5
:104D3000200040F0450007F8020D11A8C01BC01D5F
:104D400002901398007800B1012000EB090101984E
:104D500001EBE071029801440398401A401E039051
:104D6000E00306D453462146179A039800F05CF8F6
:104D700005441398007818B15246179990476D1C56
:104D8000E00323D553462146179A039800F04CF8C8
:104D900005441BE0BBF1000F07DB0098584504DD1C
:104DA0001098179910F80B0001E01799302052461F
:104DB000904701980BF1010B401E05F10105019090
:104DC00004D12E205246179990476D1CB9F100016D
:104DD000A9F10109DEDC05E017F8010B524617992D
:104DE00090476D1C0299481E02900029F4DC53463E
:104DF0002146179A03989EE62D0000002B00000024
:104E0000200000002DE9F041044600251E4617460B
:104E1000880404D405E039462020B0476D1C641E88
:104E2000F9D52846BDE8F0812DE9F041044600257A
:104E30001E469046C80301D5302700E0202788048D
:104E400004D505E041463846B0476D1C641EF9D5CF
:104E50002846BDE8F0810A68531C0B60107070474B
:104E60002DED068B48A384B00FCB8DE80F00FCF727
:104E7000F5FBFDF7F7FFFDF7FBFDFDF745FEFDF741
:104E800085FDFDF7C1FD9FED449B9FED45AB464D74
:104E9000464C4FF400464FF0904744487030FCF7C2
:104EA00013FA424864217030FCF782F93F487030B1
:104EB000FCF706F8FBF7DFFA41EC180B3B487030C3
:104EC000FCF7AAFA53EC192B51EC180BFBF7F2F98B
:104ED00053EC1A2BFBF760FA41EC100B34A153ECA6
:104EE000102B6846FFF73EFB6846FBF7DCF981B202
:104EF0006846FBF763FD0A20FCF7AEFA20784728E6
:104F000011D13220FCF7A8FA012231462846FCF7DD
:104F100091FB012231463846FCF78CFB012220210F
:104F20002846FCF787FB2078672809D1FBF760FD4E
:104F30003220FCF791FA002231462846FCF77AFB32
:104F40002078522811D13220FCF786FA012208215C
:104F50003846FCF76FFB012208212846FCF76AFB64
:104F6000012251022846FCF765FB2078722894D173
:104F7000FBF73EFD3220FCF76FFA0022082138468D
:104F8000FCF758FB89E700002048656C6C6F2057E0
:104F90006F726C64210D0A006666666666660A407A
:104FA0000000000000FEAF4000040048880100201F
:104FB00025660D0A00000000020304050607080923
:104FC0000A0B0C0D0E0F1010010203040506070852
:104FD000090A0B0C0D0E0F1000000000000000006D
:104FE0000102030406070809085000080000002019
:104FF000880100008C070008C850000888010020C4
:1050000060140000BC450008411395321B08C5041C
:105010001AD1041AF9041325331B0875081AA104C0
:10502000170403090412011402020216408304400B
:1050300057260201020301031A1A031371091B0800
:105040006B041A67041A9504192F11821053127AEF
:10505000130A0632022A401C1C090243571125C0BC
:105060003209041B01020B1305241610010524014B
:105070001009010424020205240617010705820312
:10508000081C1009048D320A15070501021A0107D0
:105090002A81070938442A40072A8107112B09076A
:1050A000440A3B04441301301408692F1B08E90823
:1050B000411AAD0C13F52E1B083B08C11AE9102A42
:0850C000DD1C19041AD10400E3
:040000050800018965
:00000001FF
