:020000040800F2
:1000000040150020A10100080F1A0008E918000897
:100010000D1A0008670300080F34000800000000F4
:100020000000000000000000000000000F1D00089C
:10003000E9030008000000000D1D0008111D000864
:10004000BB010008BB010008BB010008BB010008A0
:10005000BB010008BB010008BB010008BB01000890
:10006000BB010008BB010008BB010008BB01000880
:10007000BB010008BB010008BB010008BB01000870
:10008000BB010008BB010008BB010008BB01000860
:100090009D330008BB010008BB010008BB0100083C
:1000A000BB010008BB010008BB010008BB01000840
:1000B000BB010008BB010008BB010008BB01000830
:1000C000BB010008BB010008BB010008BB01000820
:1000D000BB010008BB010008BB010008BB01000810
:1000E000BB010008BB010008BB010008BB01000800
:1000F000BB010008BB010008BB010008BB010008F0
:10010000000000000000000000000000BB0100082B
:10011000BB010008BB010008BB010008BB010008CF
:10012000BB010008BB010008BB010008BB010008BF
:10013000BB010008BB010008000000000000000037
:10014000BB010008BB010008BB0100080000000063
:10015000000000000000000000000000000000009F
:100160000000000000000000BB010008BB01000807
:10017000BB010008000000000000000000000000BB
:1001800000000000BB010008DFF810D000F0AEF85E
:100190000048004759350008AFF3008040150020A3
:1001A0000648804706480047FEE7FEE7FEE7FEE711
:1001B000FEE7FEE7FEE7FEE7FEE7FEE7911D00082B
:1001C000890100082DE9F05F0546002092469B4614
:1001D00088460646814640241BE02846414647465D
:1001E000224600F020F853465A46C01A914110D3D7
:1001F00011461846224600F069F82D1A67EB0108EF
:100200004F4622460120002100F060F817EB00095C
:100210004E41201EA4F10104DFDC484631462A4647
:100220004346BDE8F09F202A04DB203A21FA02F081
:100230000021704721FA02F3D040C2F12002914020
:1002400008431946704740EA01039B0703D009E0C1
:1002500008C9121F08C0042AFAD203E011F8013BB2
:1002600000F8013B521EF9D27047D2B201E000F80B
:10027000012B491EFBD270470022F6E710B513464A
:100280000A4604461946FFF7F0FF204610BD421EFD
:1002900012F8013F002BFBD111F8013B02F8013BA2
:1002A000002BF9D1704710B5044604E00B7800F834
:1002B000013B03B1491C521EF8D2204610BD421C1E
:1002C00010F8011B0029FBD1801A7047202A04DB9B
:1002D000203A00FA02F1002070479140C2F1200359
:1002E00020FA03F31943904070470000064C074D75
:1002F00006E0E06840F0010394E8070098471034F6
:10030000AC42F6D3FFF744FF203600084036000821
:1003100070B58C1810F8015B15F0070301D110F8C7
:10032000013B2A1106D110F8012B03E010F8016BF4
:1003300001F8016B5B1EF9D12B0705D40023521E77
:100340000DD401F8013BFAE710F8013BCB1A921CDF
:1003500003E013F8015B01F8015B521EF9D5A142DD
:10036000D8D3002070BDFEE7002070470020704702
:1003700010B500220449054801F004FE0449034871
:1003800001F0FAFD002010BD480900209C0100206A
:100390006005002010B50C460A6801460548FFF7C5
:1003A00082FF044A216800205054034801F0C8FD30
:1003B000002010BD840100209C010020094A10B5D6
:1003C000D2F8B822D2F814210AB1012010BD0A4691
:1003D0000146044801F0D6FDBDE81040014801F097
:1003E0002FBE00009C010020704772B6FEE700009F
:1003F00070B5044600F0F0F80546601C02D00448D1
:100400000078044400F0E8F8401BA042FAD370BD25
:10041000600000202DE9FC4FDFF894A100230125A6
:100420000AF1040B03244FF00F0C0BF1040EB8E09B
:1004300005FA03F632406FD04F68012F05D0022F26
:1004400003D0112F01D0122F17D1D0F808905F00E0
:1004500004FA07F829EA08090097D1F80C8008FA8D
:1004600007F848EA0908C0F808804768B7430E79DA
:10047000C6F300169E403E434660C6684FEA4308F6
:1004800004FA08F7BE4301978F6807FA08F7374365
:10049000C7604E68022E01D0122E13D1DE0800EB89
:1004A00086060096366A5F07FF0E0CFA07F926EA01
:1004B0000906D1F8109009FA07F949EA0609009EE1
:1004C000C6F820900668019FBE430F7907F0030726
:1004D00007FA08F7374307604E68F60060D5354ED7
:1004E000B76947F00107B761B66923F0030706F063
:1004F00001060096304E3E44B146B6689F074FEA6B
:1005000017780CFA08F7BE43B0F1904F05D02B4F87
:10051000B84204D1012712E042E000270FE0284F43
:10052000B84201D102270AE0264FB84201D1032781
:1005300005E0254FB84201D1042700E0052707FA5E
:1005400008F73743C9F80870DAF800605746D1F861
:10055000048096435FEAC83800D516433E60DBF856
:1005600000605F46D1F8048096435FEA883800D582
:1005700016433E60DEF800607746D1F8048096436B
:100580005FEAC82800D516433E60094F0C373E6825
:10059000D1F8048096435FEA882800D516433E6070
:1005A0005B1C0A6832FA03F67FF442AFBDE8FC8FA9
:1005B0000004014000100240000001400004004817
:1005C00000080048000C0048001000480AB1816192
:1005D00070478162704700000148806870470000E2
:1005E00060000020024881680278114481607047F1
:1005F00060000020074810B5016841F0100101605B
:10060000032000F06DF8002000F006F800F024F858
:10061000002010BD0020024070B50D4D04464FF47F
:100620007A712878B1FBF0F00A490968B1FBF0F063
:1006300001F046F948B9102C07D200222146501E7D
:1006400000F02EF800206C6070BD012070BD00002D
:10065000600000206C000020094808B5816941F065
:1006600001018161816901F001010091C16941F0DD
:100670008051C161C06900F08050009008BD000049
:1006800000100240002809DB00F01F020121914008
:100690004009800000F1E020C0F800117047000020
:1006A000F0B40E4B1B680C46C3F30223C3F10705DD
:1006B000042D00D90425191D072901D2002300E0CB
:1006C000DB1E012606FA05F1491E214099409E4095
:1006D000761E16403143F0BC02F0AEBE0CED00E0D9
:1006E000064900F0070208684FF6FF03184040EA89
:1006F0000220034A10430860704700000CED00E040
:100700000000FA0510B50C0607D501F0070101EB52
:10071000810100EBC100283005E001EB810100EB15
:10072000C10000F5B47099B232B1012202730181A7
:10073000190C4181002010BD00220273C180F9E72D
:10074000704701EB810200EBC202D0F8E802D26BE5
:1007500001F025BE01EB810200EBC202D0F8E802F5
:10076000D2F87C2101F07EBE70B504460B0601F084
:10077000070000EB800104EBC1014FF001024FF0D4
:10078000000503D581F82920283103E081F869515B
:1007900001F5B471087094F8A802012808D084F813
:1007A000A822206802F09CFA84F8A852002070BDAC
:1007B000022070BD70B5044601F00F0062689042DF
:1007C00001D9012070BD0B0601F0070000EB80018C
:1007D00004EBC1014FF001024FF0000503D581F891
:1007E0002920283103E081F8695101F5B4718D7039
:1007F000087094F8A802012808D084F8A82220687C
:1008000002F007FB84F8A852002070BD022070BDE2
:100810002DE9F05F04685FEA424C0B788D69B4F80B
:1008200050C04FF000064BF68F7948F2800A48F628
:100830008F7B48F2C00E4FF480672AD54FF0020834
:1008400008EBC308C44407EB4C07E45BC4F309049A
:10085000A54203D32D1B8D6101D00BE08E6106688C
:1008600036F8235005EA090585F4005545EA0A05DE
:1008700026F82350520609D50D78036833F8252051
:1008800002EA0B0242EA0E0223F8252084B30A8909
:1008900029E04FF0060808EBC308C44407EB4C07F7
:1008A000E45BC4F30904A54203D32D1B8D6101D081
:1008B0000BE08E61066836F8235005EA090585F4D9
:1008C000005545EA0A0526F82350520609D40B784C
:1008D000056835F8232002EA0B0242EA0E0225F8E9
:1008E00023202CB14A8949690068234602F060FD43
:1008F0002046BDE8F09F2DE9F05F05460C460068F4
:100900005FEA426C16462278A369B0F850C04FF0F7
:10091000000148F68F774CF280094FF6FF7B4FF4C9
:10092000004E4FF4806A6CD54FF0020808EBC20805
:10093000E0440AEB480C30F80C00C0F30900834295
:1009400011D91B1AA3610FD0730407D52E6836F88E
:1009500022303B4043EA090326F8223094F8242051
:10096000012A08D0C6E0A16111462846FFF7E9FE3A
:1009700070046CD4BEE0626902446261E2690244C0
:10098000E2612369226A9A4202D31846111A03E0EF
:1009900084F824100AB110462162617811B101294E
:1009A00023D02BE02968B1F850201144227801EBC4
:1009B000021101F2044148B13E280FD84208C30792
:1009C00000D0521C0BEA82220A8017E00A8822F427
:1009D000F8420A800A8842F40042F5E74209C30659
:1009E00000D1521E4EEA8222EEE72968B1F850206B
:1009F0001144227801EB0211A1F8040483B2228988
:100A000074E04FF0060808EBC208E0440AEB480C1B
:100A100030F80C00C0F30900834211D31B1AA36104
:100A20000FD0730407D42E6836F822303B4043EAD7
:100A3000090326F8223094F82420012A11D059E025
:100A4000A16111462846FFF77CFE700452D422783B
:100A5000296831F82200384040EA090021F82200D4
:100A600048E0626902446261E2690244E26123692A
:100A7000226A9A4203D31846111A216204E00AB18D
:100A80001046216284F824106278296812B1012A84
:100A900022D029E0B1F850201144227801EB021154
:100AA00001F20C4148B13E280FD84208C30700D0DC
:100AB000521C0BEA82220A8016E00A8822F4F842CD
:100AC0000A800A8842F40042F5E74209C30600D1D1
:100AD000521E4EEA8222EEE7B1F8502011442278ED
:100AE00001EB0211A1F80C04628983B261692868E4
:100AF00002F07AFC2278296831F8220048F6BF73A8
:100B0000184080F0300048F28003184321F822009A
:100B10000020BDE8F09F01F0070101EB810100EB2F
:100B2000C100D0F8840170472DE9F04104460F065A
:100B300001F0070000EB800104EBC1014FF001065A
:100B40004FF0000503D581F82960283103E081F8D2
:100B5000695101F5B47108700A61CB704A7802B12D
:100B6000C881022B00D10D7194F8A802012809D088
:100B700084F8A862206801F087FF284684F8A8520C
:100B8000BDE8F0810220FBE770B50C4601F00705D7
:100B900005EB850100EBC101C1E95F230022C1F82B
:100BA000842181F8692181F8685101F5B4716207E7
:100BB000006802F083F9002070BD70B5044601F0B2
:100BC00007006268904201D9012070BD0B064FF00A
:100BD00000054FF0010207D500EB800104EBC101D5
:100BE00081F82920283107E001EB810104EBC101E4
:100BF00081F8695101F5B4718A70087094F8A802FF
:100C0000012808D084F8A822206802F03EF984F870
:100C1000A852002070BD022070BD70B50C4601F0D6
:100C2000070505EB850100EBC101C1E90F23012296
:100C300081F84C208B6400234B6481F8292001F853
:100C4000285F6207006802F039F9002070BD10B516
:100C50000446006802F0A8FB000402D5204600F01C
:100C6000D7FE206802F0A0FB40050CD5206830F8C4
:100C7000441F21F480610180204600F0F5F8002136
:100C8000204600F00CF9206802F08EFB400405D5E8
:100C9000206830F8441F21F480410180206802F070
:100CA00083FB800405D5206830F8441F21F40051EF
:100CB0000180206802F078FBC00414D5206830F869
:100CC000401F21F004010180206830F8401F21F00E
:100CD00008010180204600F0DAF8206830F8441F4F
:100CE00021F480510180206802F05EFB000514D5DC
:100CF000206830F8401F41F008010180206830F87A
:100D0000441F21F400610180206830F8401F41F049
:100D100004010180204600F0F7F8206802F044FB4F
:100D2000800508D5206830F8441F21F40071018047
:100D3000204600F0B0F8206802F036FBC00505D56B
:100D4000206830F8441F21F48071018010BD70B517
:100D500086B0040004D094F8A902002518B107E079
:100D6000012006B070BD84F8A852204600F042F879
:100D7000032084F8A902206802F044F8002001262C
:100D80000EE000EB800104EBC10181F8296001F85D
:100D9000280FC881CD700D614D61401CC0B28D61BE
:100DA00061688142EDD8002011E000EB800104EB86
:100DB000C10181F8695181F8680181F86B51C1F86E
:100DC0007851C1F87C51401CC0B2C1F880516168B3
:100DD0008142EAD8142204F110016846FFF733FA81
:100DE00094E80F0002F005F884F8245084F8A96212
:100DF0000020B6E710B586B0044614216846FFF718
:100E00003BFA17492068884228D1164C606940F4A3
:100E1000003060616069694600F4003005904FF46D
:100E2000C050009002200190002002900320039007
:100E30000E2004904FF09040FFF7ECFAE06940F488
:100E40000000E061E069002200F400000590114616
:100E50001420FFF725FC1420FFF714FC06B010BD8A
:100E6000005C00400010024070B504468068012517
:100E7000022801D0FFF7B9FA2946D4F8E80201F0B8
:100E8000DAFBD4F8E802BDE8704001F096BBD0F878
:100E9000E80201F0BABBD0F8E80201F0C0BB10B51F
:100EA000044690F8A80201280BD0012084F8A8027B
:100EB00084F82410206802F091FA002084F8A80237
:100EC00010BD022010BDD0F8E82200F52C711046AC
:100ED00001F0BDBB10B5044690F8A802012810D05F
:100EE000012084F8A802206802F04FFA0121204670
:100EF000FFF726FC206801F07AFF002084F8A802A2
:100F000010BD022010BD000010B50446D0F8E80264
:100F100001F0DCFBA069002804D00348016841F01F
:100F20000601016010BD000010ED00E02DE9F84F52
:100F3000044600680026804DC0036ED5E869C000F5
:100F400008D4E86940F08050E861E869012600F0C3
:100F50008050009079480168C90512D40168804624
:100F600041F480710160FFF737FB074605E000BFE1
:100F7000FFF732FBC01B642835D8D8F80000C00545
:100F8000F6D5286A10F4407053D0A18801F440715E
:100F900081424ED0286A4FF4803191FAA1F2B2FA20
:100FA00082F29700664A4FF00108174420F440701F
:100FB000C7F8008491FAA1F1B1FA81F102EB810145
:100FC0000023C1F800342862C00732D0FFF704FBC9
:100FD000074641F2883A4FF0020907E0FFF7FCFAB2
:100FE000C11B514502D90320BDE8F88F99FAA9F039
:100FF000B0FA80F040F040024946B8EB521F01D1F0
:101000002A680CE091FAA1F2B2FA82F242F04002B0
:10101000B1EB521F02D12A6A01E015E06A6A99FA1F
:10102000A9F1B1FA81F101F01F0108FA01F00242C1
:10103000D4D0286A616820F44070084328621EB149
:10104000E86920F08050E8612078C00705D0286B5F
:10105000A16820F00300084328632078800705D5A5
:10106000286BE16820F4403008432863207840076B
:1010700005D5286B216920F4402008432863207897
:10108000800605D5286BE16920F01000084328632D
:101090002068800305D56868A16B20F480000843B0
:1010A00068602078400605D5286B216A20F0200072
:1010B000084328632078000705D5286B616920F470
:1010C0004010084328632078C00605D5286BA16925
:1010D00020F44000084328632088800505D568680F
:1010E000E16A20F40000084368602078000605D516
:1010F000E86A616A20F4F8700843E8622088C00555
:1011000005D5E86AA16A20F478500843E86220888F
:10111000C00405D5286B216B20F480700843286338
:101120002088800405D5286B616B20F4007008438B
:101130002863002058E700000010024000700040C3
:10114000000042422DE9F0470F46050069D04A4EA3
:10115000306800F00700B84209D2306820F007007C
:1011600038433060306800F00700B84259D1287821
:10117000424C800705D56068A96820F0F00008435C
:1011800060602878C0073DD06968012001290DD032
:10119000022923D05FF0020393FAA3F2B2FA82F29B
:1011A00042F02002520904D0226803E04FF40033D9
:1011B000F2E7626A93FAA3F3B3FA83F303F01F032F
:1011C000984002422DD0606820F003000843606020
:1011D000FFF702FA804641F288390CE04FF00073C5
:1011E000DAE700BFFFF7F8F9A0EB0801494502D99B
:1011F0000320BDE8F0876068696800F00C00B0EB80
:10120000810FEFD1306800F00700B8420BD9306889
:1012100020F0070038433060306800F00700B84223
:1012200001D00120E5E72878400705D56068E96826
:1012300020F4E060084360602878000706D5606805
:10124000296920F4605040EAC100606000F01EF897
:101250006168F02292FAA2F201F0F001B2FA82F291
:10126000D140074A515CC8400649086006480068FA
:10127000FFF7D2F90020BCE7002002400010024036
:10128000103600086C00002064000020164A10B5DB
:101290005168164801F00C03042B20D0082B1ED1F6
:1012A0004FF4701494FAA4F401F47013B4FA84F4B3
:1012B000E3400F4CD26AE45C0F2393FAA3F302F0ED
:1012C0000F02B3FA83F3DA40094B1033C9039A5C77
:1012D00006D500231946FEF775FFA0FB040110BDDB
:1012E0000448A4FB000110BD0010024000127A0067
:1012F000F035000800093D002DE9F84F050071D0D8
:101300002878FC4EC0074FF0010425D070686704B0
:10131000C0F38100012807D07068C0F38100022863
:101320001BD17068C00318D597FAA7F0B0FA80F007
:1013300040F02000400901D0306800E0706A97FA60
:10134000A7F1B1FA81F101F01F0104FA01F108429D
:1013500065D068680028D2D061E06868B0F5803F49
:101360000BD010B1B0F5A02F17D0306820F480302A
:101370003060306820F4802002E0306840F4803033
:101380003060F06AA96820F00F000843F0626868D6
:1013900020B3FFF721F980460AE0306840F480204E
:1013A0003060EAE7FFF718F9A0EB0800642871D86D
:1013B00097FAA7F0B0FA80F040F02000400901D081
:1013C000306800E0706A97FAA7F1B1FA81F101F094
:1013D0001F0104FA01F10842E4D020E0FFF7FCF815
:1013E000804607E0C2E000BFFFF7F6F8A0EB080078
:1013F0006428DCD897FAA7F0B0FA80F040F020001B
:10140000400901D0306800E0706A97FAA7F1B1FA9C
:1014100081F101F01F0104FA01F10842E4D12878BA
:10142000DFF8D48280074FF0000A4FF0020730D572
:1014300070684FF0F80B10F00C0F07D07068C0F315
:101440008100022827D17068C00324D497FAA7F03E
:10145000B0FA80F040F02000400901D0306800E090
:10146000706A97FAA7F1B1FA81F101F01F0104FA4D
:1014700001F1084202D02869012877D130689BFA2F
:10148000ABF220F0F8016869B2FA82F290400143B1
:1014900031605AE064E1286988B394FAA4F0B0FAA4
:1014A00080F048F82040FFF797F8814606E000BF3B
:1014B000FFF792F8A0EB090002289AD897FAA7F054
:1014C000B0FA80F040F02000400901D0306800E020
:1014D000706A97FAA7F1B1FA81F101F01F0104FADD
:1014E00001F10842E4D030689BFAABF26969B2FAC4
:1014F00082F220F0F80091400843306025E0FFE7D9
:1015000094FAA4F0B0FA80F048F820A0FFF764F84D
:10151000814605E0FFF760F8A0EB09000228CCD86F
:1015200097FAA7F0B0FA80F040F02000400901D00F
:10153000306800E0706A97FAA7F1B1FA81F101F022
:101540001F0104FA01F10842E4D1287800076CD5A4
:10155000A869A8B394FAA4F0B0FA80F008EB800070
:10156000C0F88044FFF738F8814607E0A4E100BFE7
:10157000FFF732F8A0EB090002289ED897FAA7F0EF
:10158000B0FA80F040F06000B4EB501F01D1306839
:101590000BE097FAA7F0B0FA80F040F06000B7EBEC
:1015A000501F01D1306A00E0706A97FAA7F1B1FAD2
:1015B00081F101F01F0104FA01F21042D8D034E0A9
:1015C000FFE794FAA4F1B1FA81F108EB8101C1F8C7
:1015D00080A4FFF701F8814606E000BFFEF7FCFF9C
:1015E000A0EB090002289AD897FAA7F0B0FA80F089
:1015F00040F06000B4EB501F01D130680BE097FA67
:10160000A7F0B0FA80F040F06000B7EB501F01D1B6
:10161000306A00E0706A97FAA7F1B1FA81F101F03F
:101620001F0104FA01F21042D8D12878400768D58A
:10163000F0694FF00009C00009D4F06940F0805013
:10164000F061F0694FF0010900F0805000902B48E4
:101650000168C90512D4016841F480710160FEF788
:10166000BBFF834606E000BFFEF7B6FFA0EB0B0012
:10167000642875D821480068C005F5D5E8680128B8
:101680000AD008B1052811D0306A20F0010030627C
:10169000306A20F0040002E0306A40F0010030625D
:1016A000E86868B3FEF798FF83460DE0306A40F0C3
:1016B00004003062F0E700BFFEF78EFFA0EB0B01E5
:1016C00041F2883081424BD897FAA7F0B0FA80F007
:1016D00040F04000B4EB501F01D1306813E097FA9E
:1016E000A7F0B0FA80F040F04000B7EB501F09D1EE
:1016F000306A08E0001002400000424200700040E2
:101700000CE040E0706A97FAA7F1B1FA81F101F0BC
:101710001F0104FA01F21042CED02DE0FEF75CFF6B
:10172000834607E0FEF758FFA0EB0B0141F288303B
:10173000814215D897FAA7F0B0FA80F040F0400047
:10174000B4EB501F01D130680CE097FAA7F0B0FA63
:1017500080F040F04000B7EB501F02D1306A01E04A
:1017600083E0706A97FAA7F1B1FA81F101F01F01E5
:1017700004FA01F21042D5D1B9F1000F03D0F0699B
:1017800020F08050F061E86980B37168C1F3810195
:10179000022977D04FF080714F000228504609D0BF
:1017A00091FAA1F1B1FA81F148F82100FEF714FF96
:1017B00005465DE0894691FAA1F1B1FA81F1C24690
:1017C00048F82100FEF708FF804605E0FEF704FF19
:1017D000A0EB0800022848D897FAA7F0B0FA80F0EA
:1017E00040F02000400902D0306801E066E0706AF5
:1017F00097FAA7F1B1FA81F101F01F0104FA01F1A2
:101800000842E3D1D5E908100843716821F4741146
:101810000843706099FAA9F0B0FA80F04AF82040C5
:10182000FEF7DAFE054604E0FEF7D6FE401B02286E
:101830001BD897FAA7F0B0FA80F040F020004009DA
:1018400001D0306800E0706A97FAA7F1B1FA81F12F
:1018500001F01F0104FA01F10842E5D02EE000BFBB
:10186000FEF7BAFE401B022802D90320BDE8F88F1C
:1018700097FAA7F0B0FA80F040F02000400902D0BB
:10188000306801E00BE0706A97FAA7F1B1FA81F1D4
:1018900001F01F0104FA01F10842E1D10EE0012834
:1018A000E4D070682A6A00F48031914204D1696AF8
:1018B00000F47010884201D00120D7E70020D5E75E
:1018C00010B5401EB0F1807F01D3012010BD4FF054
:1018D000E02460610F21601701F0AEFD0020A061DF
:1018E00007202061002010BDFEE70000F0B50023B6
:1018F0000A24302537261F4611E000BFB4EB107FC5
:1019000002D905EB107C01E006EB107C01F813C056
:1019100001EB430C00015B1C8CF80170DBB29342BD
:10192000ECD3F0BD2DE9F04186B014216846FEF7F6
:10193000A3FC1F48416941F480014161416901F400
:1019400080010591416941F400314161416901F42F
:1019500000310591416941F48021416140694FF0B6
:10196000904700F480200590002208213846FEF7B9
:101970002DFEDFF840804FF40046002231464046FD
:10198000FEF724FE0820009001250024CDE9015433
:10199000694638460394FEF73DFD0096CDE90154B3
:1019A000694640460394FEF735FD06B0BDE8F08178
:1019B000001002400004004810B500220F491048F2
:1019C00000F0C6FC08B1FEF710FD0E490C4800F00F
:1019D000A3FE08B1FEF709FD0B49094800F0C4FA5F
:1019E00008B1FEF702FD064800F0ECFE002803D027
:1019F000BDE81040FEF7F9BC10BD0000000000205B
:101A00009C0100204C01002050000020FEE7FEE772
:101A10002DE9F84F044640F68F7B48F60F7A4FF0D9
:101A200002094FF4806868E1B0F8441011F00F0625
:101A300038D030F8267039047ED530F8261001EA07
:101A40000B0141F0800120F8261006EB860004EB24
:101A5000C00595F8740105F5B47500286DD0E878D7
:101A600002286BD02A78216831F8220048F68F735B
:101A7000184048F2C003184321F822002978206852
:101A800030F82120B0F8503052047DD509EBC10167
:101A90005A1808EB4201415A8905890D009174D00A
:101AA0002A89D2E0C9062DD4018801EA0A0141F44D
:101AB00000410180206804F12805B0F850302A78F0
:101AC00009EBC2015A1808EB4201405AC0F3090061
:101AD0006064E16B0844E06300212046FEF731FEBC
:101AE00094F8240000289ED0A86900289BD194F87F
:101AF000240040F080012068A0F84C10002084F8F9
:101B00002400FAE0018804F5B4750A0521D5B0F87F
:101B100050302A78062101EBC2015A1808EB420125
:101B2000405A04F52C71C0F30903EB61EA88206880
:101B300001F03EFC216802E0A2E062E072E0088869
:101B400000EA0B0040F0800008802046FFF7BBF958
:101B5000D3E00904D5D5018801EA0B0141F08001E9
:101B600001802068B0F850202B78062101EBC301DA
:101B70000A4408EB4201405A83059B0DEB6110D0EB
:101B8000696971B1EA8801E053E051E0206801F031
:101B90000FFCE96968690844686100212046FEF786
:101BA000D9FD2068B0F850100844296900F20C40B3
:101BB00051B13E2910D84A08C90700D0521C4FF62F
:101BC000FF7101EA82210FE0018821F4F8410180D0
:101BD000018841F4004107E04A09C90600D1521EBC
:101BE0004FF4004141EA82210180206801884BF6D0
:101BF0008F72114081F4405148F2800211430180FC
:101C00007BE02068B0F850102A78062303EBC2026C
:101C10000A4408EB4201415A8905890D009118D008
:101C2000EA8812E03A4629462046FEF7F1FD009088
:101C30000FE0062202EBC1015A1808EB4201415A9B
:101C40008905890D009104D06A896969009B01F0BA
:101C5000AFFBE96900980844E861696900980844A5
:101C60006861A86918B129690098814204D9297866
:101C70002046FEF76FFD03E02946206801F01EF9BB
:101C800038063AD5226806EB860004EBC00132F82C
:101C9000260000EA0A0040F4004022F8260091F8ED
:101CA0002B002831022801D1F80522D42268B2F88D
:101CB00050300D7809EBC500034408EB4300105A7F
:101CC0008A69C0F3090082420CD9121A8A610BD0CA
:101CD0004A6902444A61CA691044C861206801F037
:101CE000EDF80AE000208861E9B22046FEF729FD00
:101CF00003E03A462046FEF7FEFD2068B0F84410A7
:101D000009043FF591AE0020BDE8F88F7047704799
:101D1000FEF768BC30B59FB028216846FEF7ACFAE4
:101D2000142119A8FEF7A8FA3C210AA8FEF7A4FA84
:101D300001210804CDE90010002402940225049139
:101D4000CDE90750000109906846FFF7D5FA08B1C0
:101D500072B6FEE70F20CDE919054FF48060CDE99A
:101D60001B40012119A81D94FFF7ECF908B172B6C8
:101D7000FEE74FF400300A90400118900AA8FFF7E0
:101D8000D5F8002801D072B6FEE71FB030BD0000C4
:101D90000248016841F470010160704788ED00E07D
:101DA0002DE9F041D0F8C032D0F8B822CAB101EB29
:101DB000810500EB85040026E7693FB103EBC5030D
:101DC0009B6BB7FBF3F503FB157323B1C2F81461EA
:101DD0000020BDE8F08100231A46E66100F07FFC98
:101DE000F6E70220F5E770B50546D0F8B84200F0F6
:101DF0007AFBC4F80C01D5F8B80248B1D5F8BC128A
:101E0000D4F80401CA6804F586719047002070BDBB
:101E1000022070BD70B504460026812100F0B6FA9C
:101E2000002501212046E56200F0B0FA822120461B
:101E3000C4F86C5100F0AAFA2564D4F8B80248B18D
:101E4000D4F8BC0204F52E7440688047206800F086
:101E500016FE2560304670BD10B5D0E9AE4159B1CF
:101E600094F80001FF2807D08B6894F801212146DF
:101E70009847FF2084F80001002010BD0A2101804E
:101E800000487047740000204321018000487047DB
:101E9000C4000020432101800048704780000020DA
:101EA0004321018000487047080100202DE9F041DE
:101EB00004460026007C4FF48077012590B3402330
:101EC00002228121204600F063FB4023E5620222CA
:101ED0000121204600F05CFB0823032282212046DA
:101EE000C4F86C5100F054FB4FF48E70256400F080
:101EF000C7FDC4F8B802F8B10546D4F8BC020068C2
:101F000080470020C5F81401C5F81801207CD5F8D9
:101F1000042198B140230121204600F045FB3046C2
:101F2000BDE8F081FFE73B4602228121204600F018
:101F30002FFB3B46E562CAE70126F0E73B46EAE7AE
:101F400010B5D0F8B81269B1027C002AD1F804218A
:101F500005D04023012100F027FB002010BD4FF4E5
:101F60008073F7E7022010BD02460220002902D04C
:101F70000020C2F8BC127047D0F8B802C0F80411B3
:101F800000207047D0F8B802C0F81021C0F808113E
:101F9000002070472DE9FC410546D0F8B8720020BA
:101FA0008DF80000ADF80400064608780C4610F0E5
:101FB000600121D020293BD1E288AAB100066078D7
:101FC00007D5D5F8BC128B6839469847E288394660
:101FD00026E087F80001A07987F80101E2883946F8
:101FE000284600F06AF828E0D5F8BC126078002294
:101FF0008B682146984720E0607820B10A2809D0F4
:102000000B2815D110E095F89C02032810D102226C
:1020100001A905E095F89C02032809D1012269462F
:10202000284600F064F808E095F89C02032804D0E4
:102030002146284600F036F802263046BDE8FC81ED
:1020400010B5D0F8B812A1B1D1F814210AB101200D
:1020500010BD0122C1F81421D1F810210263B1F89A
:10206000102193B2D1F80821812100F038FB002023
:1020700010BD022010BD10B5D0F8B42252689047B0
:10208000002010BD134610B50A46002100F08CFA5E
:10209000002010BD134610B50A46002100F01FFBBA
:1020A000002010BD10B50446802100F0FDFA204646
:1020B000BDE81040002100F0F7BA10B50323C0F8C6
:1020C0005C21C0F89432C0F8602113460A46002112
:1020D00000F06AFA002010BD10B505210023C0F8F9
:1020E00094121A46194600F05FFA002010BD10B590
:1020F0000223C261C0F89432026213460A460021EC
:1021000000F0EDFA002010BD10B504210023C0F846
:1021100094121A46194600F0E2FA002010BD0000A1
:1021200010B50A46024903A000F0E2F8004810BDCD
:102130006004002043444320436F6E6669670000DB
:1021400012200880004870472000002010B50A4681
:10215000024903A000F0CCF8004810BD6004002044
:1021600043444320496E74657266616365000000F4
:1021700004200880004870471C00002010B50A4663
:10218000024903A000F0B4F8004810BD600400202C
:1021900053544D6963726F656C656374726F6E69D9
:1021A0006373000010B50A46024903A000F0A0F8CE
:1021B000004810BD6004002053544D33322056694E
:1021C000727475616C20436F6D506F727400000003
:1021D00010B51A2008800A480168001D0468001D17
:1021E0000068081809D008220649FFF77FFB054957
:1021F000042210312046FFF779FB0248801E10BDF3
:10220000ACF7FF1F36000020F8B504460020ADF8FB
:10221000000048880D46010A082948D2DFE801F08D
:102220004704091747473C45D4F8B012207C0A6898
:1022300019E0207C02260028D4F8B40205D0C16A37
:1022400068468847014646703EE0816AF8E7C0B2BA
:1022500006282CD2DFE800F0030A1014181CD4F86A
:10226000B002426805E0694690471CE0D4F8B0022D
:102270008268E2B1207CF6E7D4F8B002C268F8E7E1
:10228000D4F8B0020269F4E7D4F8B0024269F0E78A
:10229000D4F8B0028269ECE7207C40B9D4F8B402EB
:1022A000416B6846884701460EE0207C20B12946F4
:1022B0002046FFF7F7FEF8BDD4F8B402016B68467C
:1022C0008847014607204870BDF8000048B1EA88F9
:1022D00052B1824200D90246ADF800202046FFF7F5
:1022E00006FFE8880028E6D12046FFF70DFFF8BD7D
:1022F00070B5002300281ED00446002502E06D1CA6
:10230000EDB2641C2678002EF9D1022404EB4504BA
:1023100014801278CA545B1C0322CA5400245B1C2C
:1023200006E0CA545B1CDAB28C54521CD3B2401C77
:102330000278002AF5D170BD01004FF0000004D0F2
:10234000012901D0022901D00220704701207047E5
:1023500010B580B1D0F8B43213B10023C0F8B43254
:1023600009B1C0F8B012012180F89C12027000F08F
:10237000BFF8002010BD022010BD10B5D0F8C0027B
:10238000FEF718FABDE81040FFF7D6BF10B5D0F839
:10239000C002FEF7E9F9BDE81040FFF7CDBF2DE917
:1023A000F0411746044651B1D4F8B40242691AB15B
:1023B00094F89C02032851D00220BDE8F081D4F8A3
:1023C0009432002504F11400022B03D0042B3AD0E0
:1023D000C3B33CE0D0E903639E4207D9F11AC16060
:1023E0008AB239462046FFF755FE12E08068B0FBFE
:1023F000F3F103FB110199B9984211D3D4F8981263
:1024000088420DD2002211462046FFF743FEC4F851
:10241000985200231A461946204600F0C5F816E0E7
:10242000D4F8B402C16829B194F89C02032801D100
:10243000204688478021204600F036F92046FFF7E5
:102440004BFE04E0FFE78021204600F02DF994F8D0
:10245000A002012804D184F8A05201E02046904750
:102460000020AAE770B51546044649B1D4F8B40275
:1024700082691AB194F89C02032830D0022070BD02
:10248000D4F8941204F5AA70032902D005291ED0AD
:1024900027E0D0E903218A420BD9531AC3600846CA
:1024A000834200D303469AB229462046FFF7EAFD4D
:1024B00017E0D4F8B402016929B194F89C0203280A
:1024C00001D1204688472046FFF71EFE09E0002084
:1024D0000146C4F89402204600F0E6F801E02046E8
:1024E0009047002070BDD0F8C002FEF714BB00007A
:1024F00010B504461C481D49C0F8E842C4F8C002A3
:102500000160082141600221816001610021816137
:102510000162FEF71CFC08B1FDF767FF0022D4F84A
:10252000C0021823114604F53074FEF7EBF8582367
:10253000002280212068FEF7E5F8C02300228121D7
:102540002068FEF7DFF84FF488730022012120682D
:10255000FEF7D8F84FF48073002282212068FEF73E
:10256000D1F8002010BD0000500E0020005C00409B
:102570000A0601F07F01D0F8C00201EB810100EBF7
:10258000C10002D590F82A00704790F86A017047A0
:1025900010B51C461346D0F8C0022246FEF7C4FA16
:1025A000BDE81040FFF7C8BE10B5D0F8C002FEF776
:1025B000EBFABDE81040FFF7BFBE70B5002204463D
:1025C00040231146FFF7E4FF40260125C4F864616B
:1025D0003346002280212046C4F85851FFF7D8FF27
:1025E0006662A56184F89C520020C4F89402606081
:1025F000C4F8A402D4F8B80228B1D4F8B402002177
:10260000426820469047002070BD90F89C12042933
:1026100003D190F89D1280F89C120020704710B5ED
:1026200090F89C12032904D1D0F8B412C96901B101
:102630008847002010BD01740020704710B5D0F805
:10264000C002FEF72CFCBDE81040FFF775BE70B568
:10265000044600F52A70054600F04AF80120C4F847
:102660009402B4F8AE02C4F8980294F8A80210F0EC
:102670001F010AD001290DD0022910D000F08001DD
:10268000204600F011F8002070BD2946204600F0D9
:102690009EF8F8E72946204600F0CAF9F3E72946F4
:1026A000204600F01DF9EEE710B5D0F8C002FEF7A5
:1026B00084FABDE81040FFF73FBE10B5D0F8C00265
:1026C000FEF708FCBDE81040FFF736BE90F89C12FC
:1026D00080F89D12042180F89C120020704710B5EC
:1026E000D0F8C002FEF799FABDE81040FFF724BE0B
:1026F0000A7802704A7842708A78CB7802EB03221B
:1027000042800A794B7902EB032282808A79C97967
:1027100002EB0121C18070470246002011B1C2F8CE
:10272000B41270470220704710B5D0F8B4220224CA
:102730001AB11268904700B90024204610BD00006D
:1027400070B50E461E4D897804462970012931D88E
:1027500094F89C0202280BD003280FD03146204663
:10276000FFF7A0FC29782046BDE87040FFF783BC46
:10277000D9B10320616084F89C0209E071B16068FE
:10278000884212D0C1B22046FFF775FC29786160FB
:102790002046FFF7C9FF02280CD006E0022084F88B
:1027A0009C0220466160FFF766FC2046BDE8704051
:1027B000FFF7AABC31462046BDE87040FFF772BC67
:1027C0007000002010B5FFF778FF002010BD2DE944
:1027D000F0410A78002612F0600208D0202A01D0C9
:1027E000402A70D1D0F8B422926890476DE04B78BF
:1027F000002201250A2B66D2DFE803F0405D655711
:10280000650805652C29FFF7FFFC5EE00446888813
:10281000D8B9C888C8B94888802816D200F07F0780
:1028200094F89C02032810D084F89E723946204602
:10283000FFF704FF2046FFF767FC1FB1022084F872
:102840009C0242E084F89C523FE020463BE0FFF7C8
:1028500077FF3AE0CB88012B35D190F89C32012BE1
:1028600004D0022B02D0032B2DD104E08260012280
:1028700000F1080116E00122011D13E090F89C22EE
:10288000012A03D0022A01D0032A1CD1CA88022AB5
:1028900019D1C560D0F8A41209B10321C160022288
:1028A00000F10C01FFF723FC0FE0498801290CD14E
:1028B000C0F8A45211E090F89C32012B08D0022BF2
:1028C00006D0032B04D0FFF7EDFB3046BDE8F081C6
:1028D00049880129F9D1C0F8A422FFF715FCF4E7D3
:1028E0002DE9F0410A46044610780027097910F0D6
:1028F00060030AD0202B01D0402B50D1D4F8B40271
:1029000011468368204698478FE0C0F341100128A4
:1029100006D05078D0B301282AD003283FD107E051
:10292000D4F8B402114683682046BDE8F041184748
:1029300094F89C02022802D0032872D10AE071B3F5
:1029400080296ED02046FFF7AFFE80212046FFF79A
:10295000ABFE6AE0508838B931B1802904D0D08804
:1029600010B92046FFF7A0FE2046FFF7CDFB5CE044
:1029700094F89C020228E2D0032852D1508898BBD8
:102980004806F1D02046FFF7F8FCEDE7FFE794F8A2
:102990009C020026022803D0032842D112E040E026
:1029A00009B180293DD1080601F07F0000EB8000CD
:1029B00004EB800101D5143101E001F5AA71022276
:1029C0000E602AE0080601F00F0000EB800004EB27
:1029D00080000AD5806920B301F07F0000EB800001
:1029E00004EB800514350BE01FE0D0F85801C0B1AE
:1029F00001F07F0000EB800004EB800505F5AA756F
:102A000041B1802906D02046FFF7B2FD10B1012068
:102A1000286000E02E60022229462046FFF767FB6F
:102A200003E011462046FFF73DFB3846BDE8F08144
:102A300070B5054608780C4610F0600003D02028D9
:102A400001D0402816D195F89C02012803D0022815
:102A500001D003280ED1207901280BD8D5F8B40273
:102A6000826828469047E188014306D12846FFF74F
:102A70004BFB02E02846FFF715FB002070BD7047B6
:102A800000487047300D00202DE9F0470C780026F3
:102A900030F8243048F68F121340CA78002A7DD0CF
:102AA000012A7CD0022A02D0032A7FD0012648F2D4
:102AB0008002134320F824300D7830F8254048F682
:102AC0008F731C402C43144320F825400D7B48F2A3
:102AD000C00C48F6BF744CF280074BF68F79EDB30B
:102AE00091F80080C24630F8285048F280181D4006
:102AF00045EA080520F82A50B0F8505091F80080B7
:102B0000054405EB0815B1F8088028F00108A5F880
:102B10000084B0F8505091F80080054405EB08158A
:102B2000B1F80A8028F00108A5F808844D78002D36
:102B30000D7830F825804FEA48487DD0B8F1000F75
:102B400007DA30F8258008EA030848EA070820F881
:102B500025800F7830F827506D0600E02CE006D570
:102B600030F827501D4045EA0C0520F82750CB7857
:102B70000D78012B30F8253003EA040301D083F0EF
:102B80002003134320F825300B7830F8231001EA96
:102B90000901114320F82310304602E003E008E069
:102BA00004E0BDE8F08743F4007380E743F4C063BA
:102BB0007DE743F480637AE74D782DB3B0F8505049
:102BC0000F78054405EB0715CF8827F00107A5F816
:102BD00000740F7830F827506D0606D530F827506E
:102BE0001D4045EA0C0520F82750CB78012B06D074
:102BF0000B7830F82310214081F02001C9E70B78D1
:102C000030F823102140C4E7B0F850400D78044458
:102C100004EB0514CD8825F00105A4F80854B0F89C
:102C200050400D78044404EB05140D6904F20C4483
:102C300075B13E2D14D800E030E04FEA550CED0799
:102C400001D00CF1010C4FF6FF7505EA8C2511E05F
:102C5000258825F4F8452580258845F4004509E0B8
:102C60004FEA551CED0601D1ACF1010C4FF40045C3
:102C700045EA8C2525800D7830F82540640405D57B
:102C800030F825401C403C4320F825400B7830F8B4
:102C9000231001EA090181F440517AE7B8F1000FED
:102CA00007DA30F8258008EA030848EA070820F820
:102CB00025800F7830F827506D0606D530F827505C
:102CC0001D4045EA0C0520F827500D7830F82530D6
:102CD00003EA090383F44053134320F825308EE7B9
:102CE0002DE9F04391F80C804F780A7848F6BF7CC4
:102CF0004BF68F7948F2800348F2C0054CF280060B
:102D000048F68F74B8F1000F28D0002F30F82270E9
:102D10004FEA474748D0002F05DA30F822702740A5
:102D2000374320F822700A7830F822707F0605D5E4
:102D300030F8227027402F4320F822700D7830F8A9
:102D400025202240324320F825200C7830F824201A
:102D500002EA0C021A4320F824201AE07FB130F86E
:102D60002260760605D530F8226026402E4320F8F2
:102D700022600A7830F8221001EA0C010EE030F8E7
:102D800022506D0405D530F822502540354320F8F7
:102D900022500A7830F8221001EA0901194320F87C
:102DA00022100020BDE8F083002F05DA30F82270F1
:102DB0002740374320F822700A7830F822607606E0
:102DC00005D530F8226026402E4320F822600E7888
:102DD00030F8262022402A4320F826200C7830F8AC
:102DE000242002EA09021A4320F82420C1E7002027
:102DF0007047012120F8401F00210180818001825D
:102E00000846704730F8401F21F43F410180002000
:102E1000704730B50A7BB2BB4A7848F68F7548F2E6
:102E20008004C2B10B7830F82320520607D530F861
:102E300023202A4048F2C0052A4320F82320CA78DC
:102E4000012A20D00A7830F8221048F6BF731940C2
:102E500081F0200114E00A7830F822305B0407D5B5
:102E600030F822302B404CF280052B4320F82230E2
:102E70000A7830F822104BF68F73194081F44051D4
:102E8000214320F82210002030BD10B54A7809787F
:102E9000002A48F2800330F8212005D048F6BF749C
:102EA000224082F0100204E04BF68F74224082F43C
:102EB00080521A4320F82120002010BD2DE9F04F48
:102EC0000D464A78097B04464FF0000948F68F7A90
:102ED00048F2800B4FF6FF774FF40048012A09D0E3
:102EE00000297DD0E87802287BD001287AD0012003
:102EF000BDE8F08FAE692869864200D9064681B1E7
:102F0000E97802291CD0287834F820104906B4F852
:102F10005010214401EB001070D5A0F80C646A89B0
:102F200028E1B3B2EA882046696900F05DFAB4F896
:102F300050002978204400EB0110A0F8046435E12A
:102F4000296A814276D9297834F8210048F2801222
:102F500000EA0A00104324F82100286A801B286236
:102F6000287834F820104906697876D511B10129FE
:102F700021D027E0B4F85010214401EB001000F2FA
:102F80000C404EB13E2E0FD87108F20700D0491CFC
:102F900007EA8121018015E0018821F4F8410180D0
:102FA000018841F40041F5E77109F20600D1491E9C
:102FB00048EA8121EEE7B4F85020111901EB001026
:102FC000A0F80C646A89B3B22046696900F00CFA73
:102FD0006869304468612969286A884206D902E034
:102FE000EDE00DE178E1801B286202E00646C5F8BD
:102FF0002090687818B1012824D02BE0B7E0B4F80D
:1030000050002978204400EB011000F204404EB13A
:103010003E2E10D87108F20700D0491C07EA812122
:10302000018017E0018821F4F8410180018841F412
:103030000041F5E786E07109F20600D1491E48EA31
:103040008121EDE7B4F850002978204400EB01100D
:10305000A0F804642A896FE0FFE711B1012921D0AB
:1030600027E0B4F85010214401EB001000F20440B6
:103070004EB13E2E0FD87108F20700D0491C07EA66
:103080008121018015E0018821F4F8410180018847
:1030900041F40041F5E77109F20600D1491E48EA02
:1030A0008121EEE7B4F85010214401EB0010A0F8A4
:1030B00004642A89B3B22046696900F095F9686909
:1030C000304468612969286A884202D9801B2862D5
:1030D00002E00646C5F82090687810B1012822D099
:1030E00029E0B4F850002978204400EB011000F2E8
:1030F0000C404EB13E2E0FD87108F20700D0491C8B
:1031000007EA8121018016E0018821F4F84101805D
:10311000018841F40041F5E77109F20600D1491E2A
:1031200048EA8121EEE7B4F850100819297800EB3D
:103130000110A0F80C646A89B3B22046696900F0F6
:1031400053F933E02A7834F8220048F68F631840A8
:1031500040EA0B0024F82200B4F850002A782044FA
:1031600000EB02108BB2A0F804342A89E5E7A0F83E
:1031700004642A89B3B22046696900F035F9687899
:1031800010B1012808D011E0297834F8210048F264
:10319000C00200EA0A0006E0297834F821004CF267
:1031A000800200EA0A00104324F82100297834F84C
:1031B000210048F6BF72104080F03000DFE0A969BE
:1031C0002869814202D9091AA961B6E00846C5F802
:1031D0001890B2E0088820F4F8400880088840F48D
:1031E00000400BE03E2876D84208C00700D0521CB1
:1031F00007EA822002E000BF48EA82200880B6E0A9
:1032000092B9B4F850002978204400EB01102969E4
:1032100000F2044069B13E2913D84A08C90700D01A
:10322000521C07EA82210180687888B1012832D0D7
:103230003AE0018821F4F8410180018841F400411D
:10324000F1E74A09C90600D1521E48EA8221EAE79D
:10325000B4F850002978204400EB0110296900F2ED
:103260000C4049B13E290FD84A08C90700D0521C6A
:1032700007EA8221018017E0018821F4F8410180EA
:10328000018841F40041F5E74A09C90600D1521E00
:1032900048EA8221EEE7B4F850100819297800EBCB
:1032A0000110298AA0F80C14E869B0B3297834F821
:1032B0002100420401D5420603D444F240021042E8
:1032C00055D134F8210048F2C00200EA0A00104348
:1032D00024F821004BE03CE0A9692869814202D929
:1032E000091AA96102E00846C5F818908AB9B4F82D
:1032F00050102A78214401EB021101F2044168B117
:103300003E2813D84208C30700D0521C07EA822285
:103310000A80697889B1012921D028E00A8822F43D
:10332000F8420A800A8842F40042F1E74209C306E3
:1033300000D1521E48EA8222EAE7B4F850102A78F7
:10334000214401EB021101F20C4100287FF44AAF45
:1033500040E74209C0067FF44FAF521E4CE7B4F875
:10336000502011192A7801EB0211A1F80C042978D8
:1033700034F821004BF68F72104080F4405040EA40
:103380000B0024F821000020B2E50021A0F8441031
:103390004FF43F41A0F84010002070470148FDF76E
:1033A00056BC0000500E0020B0F8440070470000EA
:1033B00010B500EB42005C0800F5806009D000BF4A
:1033C00030F8042B01F8012B120A01F8012B641EBE
:1033D000F6D1DA0701D00088087010BD11B980213C
:1033E000A0F84C100020704710B55B1C00EB4200A9
:1033F0005B0800F5806009D011F8012B11F8014B32
:1034000042EA042220F8042B5B1EF5D110BDFEE732
:103410000FB4084B10B504A902AA039800F02BF8CA
:10342000044602A9002000F091F8204610BC5DF887
:1034300014FB00004D3500080907090E002804DBC5
:1034400000F1E02080F80014704700F00F0000F158
:10345000E02080F8141D704702E008C8121F08C160
:10346000002AFAD170477047002001E001C1121F05
:10347000002AFBD170472DE9F84F994692468846BD
:103480000546002706E025280AD051464A469047BF
:103490006D1C7F1C28780028F5D13846BDE8F88FD0
:1034A000002315F8011F18462E2915D115F8011F04
:1034B00004232A290DD06FF02F022978A1F13004BE
:1034C000092C09D800EB800002EB400008446D1C79
:1034D000F3E758F8040B6D1C2A78002ADDD0632A24
:1034E00007D0732A0FD0104651464A4690477F1C9A
:1034F0002AE018F8042B8DF8002000218DF8011027
:103500006E46012103E058F8046B4FF0FF315A0773
:103510004FF0000401D409E0641C84420BDA8C42B1
:10352000FADB325D002AF7D105E0641C8C42FCDB3B
:10353000305D0028F9D1274404E016F8010B51460C
:103540004A469047641EF8D26D1CA3E70A68531CD4
:103550000B6010707047000086B0FDF74BF8FEF767
:10356000D9FBFEF7DFF9FEF727FA1E4C1E4F4FF08E
:1035700090454FF400464FF47A781A496846FCF7B4
:1035800086FE184A19A16846FFF742FF6846FCF715
:1035900096FE81B26846FCF711FF2078472804D1D7
:1035A000012208212846FDF711F82078672804D168
:1035B000002208212846FDF709F82078522804D176
:1035C000012231463846FDF701F82078722804D1EF
:1035D000002231463846FCF7F9FF4046FCF708FF69
:1035E000CBE70000840100200004004825730000A0
:1035F00002030405060708090A0B0C0D0E0F101034
:103600000102030405060708090A0B0C0D0E0F1032
:103610000000000000000000010203040607080982
:10362000403600080000002084010000100300085C
:103630000037000884010020BC1300006834000833
:103640001341211B0871041A7D041AA5041AD10420
:103650001A21041A4D04170403090412011402026A
:1036600002164083044057260201020301031A1A7E
:10367000031371031B086D041A69041A9504192FAA
:1036800011821053127A130A0632022A401C1C09B6
:103690000243571125C03209041B01020B130524F4
:1036A0001610010524011009010424020205240654
:1036B000170107058203081C1009048D320A15073B
:1036C0000501021A01072A81070938442A40072AFE
:1036D0008107112B0907440A3B044413AD1E1B0844
:1036E000150413951F42081A590C13A11D1B08E756
:1036F00004C11A95182A891C19041A7D04000000B7
:040000050800018965
:00000001FF
