:020000040800F2
:10000000E8180020A1010008EF38000815330008A7
:10001000ED380008C5090008475700080000000037
:10002000000000000000000000000000EF3B00089E
:10003000D30A000800000000ED3B0008F13B000877
:10004000BB010008BB010008BB010008BB010008A0
:10005000BB010008BB010008BB010008BB01000890
:10006000BB010008BB010008BB010008490A0008E9
:10007000BB010008BB010008BB010008BB01000870
:10008000BB010008BB010008BB010008BB01000860
:10009000D5560008BB010008BB010008BB010008E1
:1000A000BB010008BB010008BB010008BB01000840
:1000B000BB010008BB010008BB010008BB01000830
:1000C000BB010008BB010008BB010008BB01000820
:1000D000BB010008BB010008BB010008BB01000810
:1000E000BB010008BB010008BB010008BB01000800
:1000F000BB010008BB010008BB010008BB010008F0
:10010000000000000000000000000000BB0100082B
:10011000BB010008BB010008BB010008BB010008CF
:10012000550A0008BB010008BB010008BB0100081C
:10013000610A0008BB010008000000000000000088
:10014000BB010008BB010008BB0100080000000063
:10015000000000000000000000000000000000009F
:100160000000000000000000BB010008BB01000807
:10017000BB010008000000000000000000000000BB
:1001800000000000BB010008DFF810D000F0DAFA30
:100190000048004745600008AFF30080E8180020E1
:1001A0000648804706480047FEE7FEE7FEE7FEE711
:1001B000FEE7FEE7FEE7FEE7FEE7FEE7813C00081C
:1001C000890100082DE9F05F0546002092469B4614
:1001D00088460646814640241BE02846414647465D
:1001E000224600F020F853465A46C01A914110D3D7
:1001F00011461846224600F061F92D1A67EB0108F6
:100200004F4622460120002100F058F917EB000963
:100210004E41201EA4F10104DFDC484631462A4647
:100220004346BDE8F09F202A04DB203A21FA02F081
:100230000021704721FA02F3D040C2F12002914020
:1002400008431946704740EA01039B0703D009E0C1
:1002500008C9121F08C0042AFAD203E011F8013BB2
:1002600000F8013B521EF9D27047D2B201E000F80B
:10027000012B491EFBD270470022F6E710B513464A
:100280000A4604461946FFF7F0FF204610BD10B598
:10029000044604E00B7800F8013B03B1491C521EF0
:1002A000F8D2204610BD421C10F8011B0029FBD1DA
:1002B000801A70472DE9FE4F81EA030404F00044E0
:1002C00021F0004100944FF0000B23F0004350EA6E
:1002D00001045ED052EA03045BD0C3F30A54C1F3B5
:1002E0000A552C44A4F2F3340194A0FB0254C1F348
:1002F000130141F48011C3F3130343F4801301FB92
:10030000024400FB034E840A970A44EA815447EAF8
:100310008357A4FB076802958D0A05FB07854FEA02
:10032000932C04FB0C542705029D4FEA065847EA1C
:100330001637B5EB08056EEB070C870E920E47EAF1
:10034000811742EA8312A7FB0201B6EB0B0164EBB3
:1003500000042B0D43EA0C335E1844EB1C50DA46C4
:100360005146E7FB0201C5F313044FEA0B3343EA9E
:1003700014534FEA0432019C43EA0603A4F10C042F
:100380000294009CCDE900B400F0B6F803B0BDE8DB
:10039000F08F00200146F9E72DE9F04D81EA0304D2
:1003A00004F0004B21F0004514464FF0000A23F002
:1003B000004150EA050220D054EA01021DD0C5F3E5
:1003C0000A570246C5F31303C1F31300C1F30A56DB
:1003D00040F4801543F48013A7EB0608101BD646A3
:1003E00008F2FD3873EB050002D308F1010801E0C3
:1003F00092185B41B8F1000F03DA00200146BDE816
:10040000F08D00204FF48011064684460EE0171B45
:1004100073EB050705D3121B63EB050306434CEA98
:10042000010C49084FEA300092185B4150EA01077D
:10043000EDD152EA030012D082EA040083EA0501FA
:10044000084305D0101BAB4106D20122002306E071
:1004500000224FF0004302E06FF0010253101AEB4C
:1004600006004CEB085110EB0A0041EB0B01BDE814
:10047000F04D00F032B80EB540F233410291002148
:10048000CDE900110A460B4600F036F803B000BD76
:1004900030B50B46014600202022012409E021FA54
:1004A00002F59D4205D303FA02F5491B04FA02F551
:1004B0002844151EA2F10102F1DC30BD202A04DB24
:1004C000203A00FA02F1002070479140C2F1200367
:1004D00020FA03F319439040704710B5141E73F1CE
:1004E000000408DA401C41F1000192185B411A43F4
:1004F00001D120F0010010BD2DE9F04D92469B4640
:1005000011B1B1FA81F202E0B0FA80F220329046E5
:10051000FFF7D4FF04460F4640EA0A0041EA0B0108
:1005200053465A46084313D0114653EA010019D0E6
:10053000C8F140025046FFF776FE05460E4650468B
:1005400059464246FFF7BAFF084305D0012004E0B0
:1005500020463946BDE8F08D0020054346EAE076A6
:100560002C4337430A986305E40AA0EB08000022F5
:10057000FD0A44EA47540A3002D500200146E9E763
:10058000010510196941DDE9084500196941BDE817
:10059000F04DA2E72DE9FE4F804681EA0300C00F2F
:1005A0000C46009021F0004123F00045B8EB02001A
:1005B000A94105D24046214690461C460B460246BC
:1005C00023F00040104347D0270DC7F30A00C3F3C0
:1005D0000A510290401A019040286BDAC3F31300CD
:1005E00040F4801B0098924620B10023D2EB030A0E
:1005F00063EB0B0B01985946C0F140025046FFF7E0
:100600005DFF06460D4650465946019A00F0ACF88B
:1006100010EB08006141002487EA115284EAE77375
:100620001A4340D0009A62B3019A012A4FEA075256
:1006300015DC001B61EB02014FF0004202EA075299
:10064000CDE90042001C41F5801132462B46FFF7F0
:1006500053FF03B0BDE8F08F40462146F9E7001B89
:1006600061EB0201001C41F5801300185B4120186A
:10067000A2F5001747EB030140EAD570B6196D41AA
:1006800011E06D084FEA360645EAC0754FEA075299
:10069000001B61EB0201001C41F5801149084FEA83
:1006A00030000019514132462B4603B0BDE8F04FEF
:1006B000FFF713BF0098012240000023D0EB020295
:1006C00063EBE073009821464FEAE074B8EB00005A
:1006D00061EB0401E9E783F000435BE781F000414F
:1006E00058E7C1F30A52C1F3130140F2FF3341F45A
:1006F00080119A4202DA00200146704740F23343EB
:100700009A42A2F2334202DC5242FFF78CBDFFF75D
:10071000D5BE000030B5041E71F1000404DB4FF0BB
:100720000044404264EB0101141E73F1000405DB38
:100730001C464FF00043524263EB0403994208BF4A
:10074000904230BD064C074D06E0E06840F00103E2
:1007500094E8070098471034AC42F6D3FFF718FD31
:100760005C6500087C650008202A06DBCB17203A70
:1007700041FA02F043EAE07306E041FA02F3D040A6
:10078000C2F12002914008431946704770B58C1899
:1007900010F8015B15F0070301D110F8013B2A1195
:1007A00006D110F8012B03E010F8016B01F8016B82
:1007B0005B1EF9D12B0705D40023521E0DD401F87E
:1007C000013BFAE710F8013BCB1A921C03E013F847
:1007D000015B01F8015B521EF9D5A142D8D300207C
:1007E00070BD000070B5044600680022836813F0F5
:1007F0000C0F50D0C3689B0105D5637E012B02D13D
:10080000237E012B22D060290CD0206882685207F9
:1008100006D58268920703D4826842F01002826093
:100820000C290ED020688268120706D582689207CC
:1008300003D4826842F020028260602915D06C29BE
:1008400011D0042501F0CEF8064620E00C21134B10
:1008500002E09A4211D2521C0568ED436D06F8D4AD
:1008600040220260D1E70C25ECE70825EAE700BF4B
:1008700001F0B8F8801B0B2809D9206C40F010005B
:100880002064606C40F001006064012070BD20684D
:1008900080682842ECD1002070BD0000009409005F
:1008A0000146406A026C12F0500F03D0806B026B5D
:1008B00008461047016C41F4007101640168C96881
:1008C00011F4406F0CD1417E51B9016C21F480715B
:1008D0000164016CC90403D4016C41F0010101649D
:1008E00000F0AEBB406A016C41F040010164416C14
:1008F00041F00401416400F0CCBB406A00F0C8BB89
:1009000070B504460068816801F00301012926D111
:100910000168C90723D0816801F00D01012910D1B8
:10092000816841F00201816021680320086001F0C4
:1009300059F805460FE000BF01F054F8401B0228AB
:1009400009D9206C40F010002064606C40F0010078
:100950006064012070BD20688068C007ECD1002071
:1009600070BD000070B504460068816801F00301A5
:10097000012902D10168C90720D18168104A1142BA
:100980000DD1816841F00101816001F02BF805462D
:100990000FE000BF01F026F8401B022809D9206CA7
:1009A00040F010002064606C40F0010060640120A1
:1009B00070BD20680068C043C007EBD1002070BD47
:1009C0003F000080FEE700207047002070470000D5
:1009D00010B500220449054803F070FC044903489F
:1009E00003F066FC002010BDF00C00204405002040
:1009F0000809002010B50C460A6801460548FFF7B3
:100A000046FC044A216800205054034803F034FC9B
:100A1000002010BDCC01002044050020094A10B57B
:100A2000D2F8B822D2F814210AB1012010BD0A462A
:100A30000146044803F042FCBDE81040014803F0C1
:100A40009BBC000044050020014800F024BE0000CB
:100A500078040020014800F01EBE0000BC04002005
:100A6000014800F018BE0000000500200B4B016893
:100A70001422994207D20A4B1944B1FBF2F18900C2
:100A80000164084908E0054B5B421944B1FBF2F1EF
:100A90008900016401490839C163704708040240B4
:100AA000F8FFFDBF0000024030B590F8405001242F
:100AB000AC40C56B6C60046863604368102B0368CE
:100AC00003D099600068C26030BD9A600068C16060
:100AD00030BD704772B6FEE710B5002208214FF016
:100AE000904000F079FFBDE8104000224FF4004133
:100AF000014800F071BF0000000400482DE9F041FA
:100B0000044690F83C00884601280AD0012584F864
:100B10003C502046FFF7F4FE06004FF0000703D0DC
:100B200033E00220BDE8F08125642068816821F06F
:100B300080418160B8F1010F04D12068816841F0E3
:100B4000804181602068816841F00041816000F04F
:100B500049FF05460FE000BF00F044FF401B0A2894
:100B600009D9206C20F0020040F01000206484F8C5
:100B70003C700120D6E7206880680028ECDB206C00
:100B800020F0020040F00100206484F83C70304600
:100B9000C8E70000F0B5002302684FF0A04C3E4CBF
:100BA00094B01F46624501D100940DE0A24202D1EB
:100BB000CDF800C008E0394D394EAA4201D1009667
:100BC00002E0B24214D1009590F83C50012D12D0B1
:100BD000012580F83C5095686D0753D4009DAD68A1
:100BE0006D074FD4624501D0A24206D12D4A05E0DF
:100BF000012014B0F0BD0220FBE72B4A0D6840F63F
:100C00001F7425B3956890F8306025F4604545EA77
:100C100046354E68354395600568AE6806F00306B4
:100C2000012E02D12D68ED0731D1009DAD6805F090
:100C30000305012D03D1009D2D68ED0727D10D6817
:100C400089680D439168A1430D4395601FE0916849
:100C500021F46041916001688D6805F00305012D64
:100C600002D10968C90712D10099896801F003010E
:100C7000012903D100990968C90708D19168A143E6
:100C8000916004E0016C41F020010164012380F8CF
:100C90003C701846ADE70000000100500004005011
:100CA000000500500003005000070050F0B594B05C
:100CB0000024009490F83C202546012A19D00127F1
:100CC00080F83C7003689A6852077CD44A681F26F3
:100CD000052A11D2D3F830C002EB420252009640EE
:100CE0002CEA060C0E6896404CEA060CC3F830C09D
:100CF00035E0022014B0F0BD0A2A0FD2D3F834C078
:100D0000521F02EB4202520096402CEA060C0E687B
:100D100096404CEA060CC3F834C020E00F2A0FD2EC
:100D2000D3F838C00A3A02EB4202520096402CEA4D
:100D3000060C0E6896404CEA060CC3F838C00EE06C
:100D4000D3F83CC00F3A02EB4202520096402CEA24
:100D5000060C0E6896404CEA060CC3F83CC00268CC
:100D6000936813F00C0F4FF0070374D1D1F800E033
:100D7000BEF10A0F10D39669AEF10A0E0EEB4E0CBF
:100D800003FA0CFE26EA0E06D1F808E00EFA0CFE75
:100D900046EA0E0696610FE0D2F814C00EEB4E063E
:100DA00003FA06FE2CEA0E0CD1F808E00EFA06FE55
:100DB0004CEA0E0CC2F814C002684E69D2F80CC09E
:100DC000CCF3C10C00E0FDE04FEA4C0C06FA0CF647
:100DD000D1F810E0DFF848C2BEF1010F42D0BEF1F9
:100DE000020F4DD0BEF1030F58D0BEF1040F63D0F7
:100DF000166E91F800C006F0F846B6EB8C6F03D182
:100E0000166E26F0004616660268566E91F800C00F
:100E100006F0F846B6EB8C6F03D1566E26F000460E
:100E200056660268966E91F800C006F0F846B6EB7A
:100E30008C6F03D1966E26F0004696660268D66ED9
:100E400091F800C006F0F846B6EB8C6F03D1D66E71
:100E500026F00046D6660268966806F00306012E64
:100E60003AD136E0D2F860E00EEA0C0E91F800C0FC
:100E700046EA8C664EEA060E4EF000461666EAE733
:100E8000D2F864E00EEA0C0E91F800C046EA8C66D7
:100E90004EEA060E4EF000465666DCE7D2F868E0F1
:100EA0000EEA0C0E91F800C046EA8C664EEA060E79
:100EB0004EF000469666CEE7D2F86CE00EEA0C0ED5
:100EC00091F800C046EA8C664EEA060E4EF00046E7
:100ED000C0E71668F6077AD1CE68012E06D052F820
:100EE000B03F0E78B740BB43136021E052F8B06FBB
:100EF00091F800C007FA0CF73E4316600A680A2A08
:100F00000BD30668B769093A02EB420293409F434C
:100F10008B6893401F43B7610AE007687E69521CE3
:100F200002EB420293409E438B6893401E437E61D6
:100F300003684FF0A0473B4EBB4201D0B34201D102
:100F4000394A00E0394A0968102904D0112907D02C
:100F500012290AD03BE0D2F808C04FEA0C2C08E076
:100F6000D2F808C04FEACC1C03E0D2F808C04FEA20
:100F70004C2CBCF1000F2ADBBB420DD0B34201D197
:100F800000970CE02A4EDFF8ACC0B34202D1CDF896
:100F900000C004E0634501D1009600E000959E6822
:100FA00006F00306012E02D11E68F6070AD1009E44
:100FB0008EB1B66806F00306012E0CD1009E36688D
:100FC000F60708D0016C41F020010164012480F88B
:100FD0003C5020468EE6102908D011291AD012293B
:100FE000F5D1916841F480019160F0E7BB42EED108
:100FF000916841F4000191600F49104A0968B1FB02
:10100000F2F101EB8101490000E0491E0091002945
:10101000FBD1DCE7BB42DAD1916841F08071E3E7B4
:1010200000F0FF8300010050000300500007005053
:1010300000040050000500507400002040420F00E2
:1010400070B50446006801260D4DB0F1A04F03D1E4
:101050000C4800F0A1FA2E700B492068884204D198
:101060000848503000F098FA6E70084920688842AD
:1010700004D10448A03000F08FFAAE7070BD0000BB
:10108000000000200C02002000010050000400506D
:1010900070477047F0B54FF0000695B00400374632
:1010A0003546009605D0206CC00648D4206C18B197
:1010B00033E0012015B0F0BD6564E564A56484F8F3
:1010C0003C50204600F00CF920688068C00024D411
:1010D0002046FFF715FC0646206CC0061DD4E6B975
:1010E000206C20F4885040F0020020642068816861
:1010F00021F0405181602068816841F08051816019
:101100006E486F490068B0FBF1F000EB80004000D2
:1011100000E0401E00900028FBD120688168C900D3
:1011200002D5806880000AD5206C20F0020040F0D3
:1011300010002064606C40F0010060640126206CA7
:10114000C00676D4002E74D120688168490770D417
:10115000216C21F4807141F0020121644FF0A04E16
:10116000584B704501D0984201D1574A00E0574A88
:10117000DFF85CC15749704501D100930EE09842F9
:1011800002D1CDF800E009E0884202D1CDF800C0DC
:1011900004E0604501D1009100E00095836803F010
:1011A0000303012B02D10068C00710D1009840B1A1
:1011B000806800F00300012803D100980068C00790
:1011C00005D19068636820F4403018439060D4E9FA
:1011D00002201043626B012A02D04FF4805300E0DA
:1011E0000023627E43EA4233184394F820303843A8
:1011F000012B0AD1F2B1226C22F0020242F020024D
:101200002264626C42F001026264A26A012A21D067
:1012100023688B4201D0634518D14FF430774FF4E7
:10122000E071BA4213D04FF480739A420AD1394622
:101230000DE039E0A28C284B03EB4242024342F41A
:101240008030E2E78A4201D1194600E011460143AD
:10125000E06A084321688A6812F00C0F0BD1CA6853
:1012600044F202039A43CA60217E94F83020890335
:1012700041EA420108432268D168184B19400143F2
:10128000D160206901282068016B21F00F0102D193
:10129000E269521E114301636564206C20F0020074
:1012A00040F00100206406E0206C20F0020040F0D5
:1012B0001000206401263046FCE600007400002087
:1012C00040420F0000010050000300500007005092
:1012D00000050050000400500000FEFF07C0F0FFB2
:1012E0002DE9F04786B0054614216846FEF7C4FF95
:1012F0004C4B8026D5F800C01968002403227700E3
:101300004948491C4FF0904A4FF48069BCF1A04F06
:1013100007D0DFF81881C44555D1196001292ED0B6
:1013200035E01960012907D1416941F080514161DF
:10133000416901F080510591416941F400314161F9
:101340004069009200F400300590CDE9012469461F
:10135000504600F065FADFF8DC8035494046E0E8A9
:101360000214A0E8D00204604046C8F81C4051E0D6
:10137000C5F83880C8F8245006B0BDE8F087416948
:1013800041F080514161416901F08051059141690D
:1013900041F4003141614069694600F40030059034
:1013A00030208DE81500504600F03AFADFF88C80C6
:1013B00021494046E0E80214A0E8D002046040461B
:1013C000C8F81C4026E01E498C45D5D1416941F042
:1013D00000514161416901F000510591416941F4B9
:1013E000802141614069009200F480200590CDE9A0
:1013F00001246946134800F013FADFF84C800E49C7
:1014000040465031E0E80214A0E8D00204604046B3
:10141000C8F81C4000F093F90028A9D0FFF75AFB48
:10142000A6E7000004000020001002400001005068
:10143000080002407804002008040240BC04002098
:101440000004005000040048000500202DE9F05F72
:10145000044600688B469246816849077ED494F81A
:101460003C1001290ED001214FF0A048DFF8109167
:10147000444F84F83C10404501D0B84205D1D8F81B
:10148000080304E00220BDE8F09FD9F800004FF007
:10149000000610F01F0F01D0012504E02046FFF7E1
:1014A00061FA050002D084F83C6066E0206C40F6EA
:1014B0000161884340F4807020642068414688427E
:1014C00001D0B84202D1D1F8082301E0D9F80020B8
:1014D00012F01F0F04D0884202D02B4A904207D14D
:1014E000216C21F480112164C06880010ED413E0C6
:1014F000226C42F480122264B84201D1C86802E032
:1015000021480C30006810F0007F05D0206C20F4DA
:10151000005040F480502064206CC00404D5606CFE
:1015200020F00600606400E0666484F83C60A16B13
:1015300016488862A16B1648C862A16B15480863FB
:1015400021681C2008602068416841F0100141605A
:101550002068C16841F00101C16000E00CE0216831
:1015600053465A464031A06B00F010F9206881685C
:1015700041F00401816000E00225284683E7000075
:10158000080700500001005000040050A1080008A6
:10159000FB080008E508000810B5044690F83C0078
:1015A000012808D0012084F83C006C212046FFF778
:1015B00019F910B10BE0022010BD2046FFF7A0F989
:1015C00028B9216C21F4885141F0010121640021E6
:1015D00084F83C1010BD70B5044690F83C0001281A
:1015E00009D0012084F83C006C212046FFF7FAF86E
:1015F000050002D027E0022070BD2068C16821F0FC
:101600000101C160A06B90F82110022907D100F000
:101610001FF8050003D0206C40F0400020642068D3
:10162000416821F010014160204615B1FFF768F9CB
:1016300009E0FFF765F9050005D1206C20F488501A
:1016400040F001002064002084F83C00284670BD72
:1016500010B590F821100022022905D004218163E1
:1016600080F82020012010BD01680B6823F00E03D4
:101670000B6001680B6823F001030B6090F84030A9
:10168000C46B012101FA03F3636080F8211080F834
:101690002020002010BDF0B4C16B0D6801680C68FB
:1016A000066C042202FA06F32B420FD063070DD515
:1016B0000B689B0603D40B6823F004030B6090F8BF
:1016C00040108A40C16B4A60C16A1BE0022303FAE2
:1016D00006F72F424FF0000C4FF0010216D0A7077B
:1016E00014D50C68A40605D40C6824F00A040C6018
:1016F00080F8212090F840108B40C16B4B6080F83F
:1017000020C0816A002918D0F0BC08470823B340E4
:101710002B4212D0230710D50B6823F00E030B6069
:1017200090F84010C36B02FA01F15960826380F8AF
:10173000212080F820C0016BE4E7F0BC704770B551
:10174000040021D0022084F821002268116843F6A9
:10175000F0708143D4E901031843D4E903352B43E6
:10176000184363691843A3691843E369184308439E
:1017700010602046FFF77AF90020A063012184F869
:10178000211084F8200070BD012070BD70B50446A2
:1017900090F82000002501280CD0012084F82000BA
:1017A00094F821600020012E06D084F82000022544
:1017B000284670BD022070BD022684F82160A06317
:1017C0002068066826F0010606602046FFF76CF9DF
:1017D000E06A00282068016802D041F00E0106E0AE
:1017E00041F00A0101602068016821F004010160F4
:1017F0002068016841F001010160D9E770B5044635
:1018000000F0F0F80546601C02D00448007804445B
:1018100000F0E8F8401BA042FAD370BD6800002039
:101820002DE9FC4FDFF894A1002301250AF1040BF8
:1018300003244FF00F0C0BF1040EB8E005FA03F689
:1018400032406FD04F68012F05D0022F03D0112FE7
:1018500001D0122F17D1D0F808905F0004FA07F8D2
:1018600029EA08090097D1F80C8008FA07F848EA35
:101870000908C0F808804768B7430E79C6F3001618
:101880009E403E434660C6684FEA430804FA08F7A4
:10189000BE4301978F6807FA08F73743C7604E6861
:1018A000022E01D0122E13D1DE0800EB8606009620
:1018B000366A5F07FF0E0CFA07F926EA0906D1F827
:1018C000109009FA07F949EA0609009EC6F8209027
:1018D0000668019FBE430F7907F0030707FA08F770
:1018E000374307604E68F60060D5354EB76947F05C
:1018F0000107B761B66923F0030706F001060096F9
:10190000304E3E44B146B6689F074FEA17780CFA4E
:1019100008F7BE43B0F1904F05D02B4FB84204D129
:10192000012712E042E000270FE0284FB84201D122
:1019300002270AE0264FB84201D1032705E0254FD0
:10194000B84201D1042700E0052707FA08F737431A
:10195000C9F80870DAF800605746D1F80480964359
:101960005FEAC83800D516433E60DBF800605F468A
:10197000D1F8048096435FEA883800D516433E606C
:10198000DEF800607746D1F8048096435FEAC82805
:1019900000D516433E60094F0C373E68D1F80480ED
:1019A00096435FEA882800D516433E605B1C0A68B0
:1019B00032FA03F67FF442AFBDE8FC8F0004014029
:1019C00000100240000001400004004800080048E8
:1019D000000C0048001000480AB181617047816224
:1019E00070470000014880687047000068000020D0
:1019F00002488168027811448160704768000020C5
:101A0000074810B5016841F010010160032000F0A3
:101A10006DF8002000F006F800F024F8002010BD5A
:101A20000020024070B50D4D04464FF47A712878BD
:101A3000B1FBF0F00A490968B1FBF0F001F046F99A
:101A400048B9102C07D200222146501E00F02EF873
:101A500000206C6070BD012070BD00006800002097
:101A600074000020094808B5816941F001018161D5
:101A7000816901F001010091C16941F08051C161AA
:101A8000C06900F08050009008BD000000100240C6
:101A9000002809DB00F01F0201219140400980006D
:101AA00000F1E020C0F8001170470000F0B40E4BC8
:101AB0001B680C46C3F30223C3F10705042D00D9AC
:101AC0000425191D072901D2002300E0DB1E012691
:101AD00006FA05F1491E214099409E40761E1640A7
:101AE0003143F0BC03F044BE0CED00E0064900F0C9
:101AF000070208684FF6FF03184040EA0220034A35
:101B000010430860704700000CED00E00000FA058B
:101B100010B50C0607D501F0070101EB810100EBC0
:101B2000C100283005E001EB810100EBC10000F5A8
:101B3000B47099B232B1012202730181190C418152
:101B4000002010BD00220273C180F9E7704701EB4D
:101B5000810200EBC202D0F8E802D26B02F0BBBDFA
:101B600001EB810200EBC202D0F8E802D2F87C213E
:101B700002F014BE70B504460B0601F0070000EB3E
:101B8000800104EBC1014FF001024FF0000503D5C5
:101B900081F82920283103E081F8695101F5B471F9
:101BA000087094F8A802012808D084F8A8222068B8
:101BB00003F032FA84F8A852002070BD022070BDF4
:101BC00070B5044601F00F006268904201D901200F
:101BD00070BD0B0601F0070000EB800104EBC101B2
:101BE0004FF001024FF0000503D581F8292028317C
:101BF00003E081F8695101F5B4718D70087094F8B3
:101C0000A802012808D084F8A822206803F09DFAD1
:101C100084F8A852002070BD022070BD2DE9F05F4D
:101C200004685FEA424C0B788D69B4F850C04FF0FD
:101C300000064BF68F7948F2800A48F68F7B48F20F
:101C4000C00E4FF480672AD54FF0020808EBC30896
:101C5000C44407EB4C07E45BC4F30904A54203D377
:101C60002D1B8D6101D00BE08E61066836F8235084
:101C700005EA090585F4005545EA0A0526F82350CA
:101C8000520609D50D78036833F8252002EA0B02C5
:101C900042EA0E0223F8252084B30A8929E04FF096
:101CA000060808EBC308C44407EB4C07E45BC4F325
:101CB0000904A54203D32D1B8D6101D00BE08E6179
:101CC000066836F8235005EA090585F4005545EA0B
:101CD0000A0526F82350520609D40B78056835F812
:101CE000232002EA0B0242EA0E0225F823202CB13F
:101CF0004A8949690068234603F0F6FC2046BDE89E
:101D0000F09F2DE9F05F05460C4600685FEA426CE3
:101D100016462278A369B0F850C04FF0000148F68B
:101D20008F774CF280094FF6FF7B4FF4004E4FF453
:101D3000806A6CD54FF0020808EBC208E0440AEB59
:101D4000480C30F80C00C0F30900834211D91B1A6B
:101D5000A3610FD0730407D52E6836F822303B40BC
:101D600043EA090326F8223094F82420012A08D0F7
:101D7000C6E0A16111462846FFF7E9FE70046CD465
:101D8000BEE0626902446261E2690244E261236981
:101D9000226A9A4202D31846111A03E084F82410EA
:101DA0000AB110462162617811B1012923D02BE0DC
:101DB0002968B1F850201144227801EB021101F298
:101DC000044148B13E280FD84208C30700D0521C36
:101DD0000BEA82220A8017E00A8822F4F8420A807D
:101DE0000A8842F40042F5E74209C30600D1521EB8
:101DF0004EEA8222EEE72968B1F850201144227899
:101E000001EB0211A1F8040483B2228974E04FF0BF
:101E1000060808EBC208E0440AEB480C30F80C0056
:101E2000C0F30900834211D31B1AA3610FD07304BE
:101E300007D42E6836F822303B4043EA090326F8DF
:101E4000223094F82420012A11D059E0A1611146D2
:101E50002846FFF77CFE700452D42278296831F8B6
:101E60002200384040EA090021F8220048E0626977
:101E700002446261E2690244E2612369226A9A4291
:101E800003D31846111A216204E00AB110462162F8
:101E900084F824106278296812B1012A22D029E03E
:101EA000B1F850201144227801EB021101F20C41EB
:101EB00048B13E280FD84208C30700D0521C0BEA95
:101EC00082220A8016E00A8822F4F8420A800A88F0
:101ED00042F40042F5E74209C30600D1521E4EEA21
:101EE0008222EEE7B1F850201144227801EB021172
:101EF000A1F80C04628983B26169286803F010FCC0
:101F00002278296831F8220048F6BF73184080F023
:101F1000300048F28003184321F822000020BDE879
:101F2000F09F01F0070101EB810100EBC100D0F847
:101F3000840170472DE9F04104460F0601F00700C7
:101F400000EB800104EBC1014FF001064FF00005EA
:101F500003D581F82960283103E081F8695101F542
:101F6000B47108700A61CB704A7802B1C881022B43
:101F700000D10D7194F8A802012809D084F8A86254
:101F8000206802F01DFF284684F8A852BDE8F081C1
:101F90000220FBE770B50C4601F0070505EB850153
:101FA00000EBC101C1E95F230022C1F8842181F85F
:101FB000692181F8685101F5B4716207006803F086
:101FC00019F9002070BD70B5044601F00700626881
:101FD000904201D9012070BD0B064FF000054FF073
:101FE000010207D500EB800104EBC10181F8292033
:101FF000283107E001EB810104EBC10181F869514F
:1020000001F5B4718A70087094F8A802012808D00C
:1020100084F8A822206803F0D4F884F8A85200209D
:1020200070BD022070BD70B50C4601F0070505EBD0
:10203000850100EBC101C1E90F23012281F84C2089
:102040008B6400234B6481F8292001F8285F620724
:10205000006803F0CFF8002070BD10B5044600689A
:1020600003F03EFB000402D5204601F041FC20684D
:1020700003F036FB40050CD5206830F8441F21F4EE
:1020800080610180204600F0F5F80021204600F034
:102090000CF9206803F024FB400405D5206830F8D3
:1020A000441F21F480410180206803F019FB800463
:1020B00005D5206830F8441F21F4005101802068C4
:1020C00003F00EFBC00414D5206830F8401F21F047
:1020D00004010180206830F8401F21F008010180D0
:1020E000204600F0DAF8206830F8441F21F48051CF
:1020F0000180206803F0F4FA000514D5206830F858
:10210000401F41F008010180206830F8441F21F48D
:1021100000610180206830F8401F41F00401018017
:10212000204600F0F7F8206803F0DAFA800508D5B9
:10213000206830F8441F21F400710180204600F02F
:10214000B0F8206803F0CCFAC00505D5206830F857
:10215000441F21F48071018010BD70B586B0040069
:1021600004D094F8A902002518B107E0012006B0B8
:1021700070BD84F8A852204600F042F8032084F88D
:10218000A902206802F0DAFF002001260EE000EB31
:10219000800104EBC10181F8296001F8280FC88192
:1021A000CD700D614D61401CC0B28D61616881428E
:1021B000EDD8002011E000EB800104EBC10181F8B3
:1021C000695181F8680181F86B51C1F87851C1F803
:1021D0007C51401CC0B2C1F8805161688142EAD88C
:1021E000142204F110016846FEF72DF894E80F0060
:1021F00002F09BFF84F8245084F8A9620020B6E71F
:1022000010B586B0044614216846FEF735F8174924
:102210002068884228D1164C606940F40030606123
:102220006069694600F4003005904FF4C05000909A
:102230000220019000200290032003900E200490C1
:102240004FF09040FFF7ECFAE06940F40000E061E5
:10225000E069002200F40000059011461420FFF709
:1022600025FC1420FFF714FC06B010BD005C0040F4
:102270000010024070B5044680680125022801D094
:10228000FEF728FC2946D4F8E80202F070FBD4F8E7
:10229000E802BDE8704002F02CBBD0F8E80202F082
:1022A00050BBD0F8E80202F056BB10B5044690F8D7
:1022B000A80201280BD0012084F8A80284F8241079
:1022C000206803F027FA002084F8A80210BD02203D
:1022D00010BDD0F8E82200F52C71104602F053BB77
:1022E00010B5044690F8A802012810D0012084F807
:1022F000A802206803F0E5F901212046FFF726FC3B
:10230000206802F010FF002084F8A80210BD02200F
:1023100010BD000010B50446D0F8E80202F072FBD0
:10232000A069002804D00348016841F0060101605B
:1023300010BD000010ED00E02DE9F84F04460068E4
:102340000026804DC0036ED5E869C00008D4E86956
:1023500040F08050E861E869012600F0805000906C
:1023600079480168C90512D40168804641F480713A
:102370000160FFF737FB074605E000BFFFF732FBC0
:10238000C01B642835D8D8F80000C005F6D5286AE7
:1023900010F4407053D0A18801F4407181424ED0B6
:1023A000286A4FF4803191FAA1F2B2FA82F29700D2
:1023B000664A4FF00108174420F44070C7F80084C3
:1023C00091FAA1F1B1FA81F102EB81010023C1F888
:1023D00000342862C00732D0FFF704FB074641F201
:1023E000883A4FF0020907E0FFF7FCFAC11B51459C
:1023F00002D90320BDE8F88F99FAA9F0B0FA80F06D
:1024000040F040024946B8EB521F01D12A680CE067
:1024100091FAA1F2B2FA82F242F04002B1EB521FFD
:1024200002D12A6A01E015E06A6A99FAA9F1B1FAC3
:1024300081F101F01F0108FA01F00242D4D0286AAC
:10244000616820F44070084328621EB1E86920F0FA
:102450008050E8612078C00705D0286BA16820F083
:102460000300084328632078800705D5286BE168BE
:1024700020F44030084328632078400705D5286BB6
:10248000216920F44020084328632078800605D580
:10249000286BE16920F0100008432863206880035E
:1024A00005D56868A16B20F4800008436860207837
:1024B000400605D5286B216A20F0200008432863D8
:1024C0002078000705D5286B616920F44010084387
:1024D00028632078C00605D5286BA16920F4400048
:1024E000084328632088800505D56868E16A20F4E0
:1024F0000000084368602078000605D5E86A616A34
:1025000020F4F8700843E8622088C00505D5E86A21
:10251000A16A20F478500843E8622088C00405D5F9
:10252000286B216B20F48070084328632088800486
:1025300005D5286B616B20F40070084328630020E8
:1025400058E70000001002400070004000004242C6
:102550002DE9F0470F46050069D04A4E306800F07B
:102560000700B84209D2306820F0070038433060D5
:10257000306800F00700B84259D12878424C8007F3
:1025800005D56068A96820F0F000084360602878ED
:10259000C0073DD06968012001290DD0022923D050
:1025A0005FF0020393FAA3F2B2FA82F242F0200241
:1025B000520904D0226803E04FF40033F2E7626A64
:1025C00093FAA3F3B3FA83F303F01F039840024294
:1025D0002DD0606820F0030008436060FFF702FA26
:1025E000804641F288390CE04FF00073DAE700BF13
:1025F000FFF7F8F9A0EB0801494502D90320BDE82F
:10260000F0876068696800F00C00B0EB810FEFD1D3
:10261000306800F00700B8420BD9306820F007009E
:1026200038433060306800F00700B84201D0012024
:10263000E5E72878400705D56068E96820F4E060A0
:10264000084360602878000706D56068296920F48F
:10265000605040EAC100606000F01EF86168F0223E
:1026600092FAA2F201F0F001B2FA82F2D140074AE6
:10267000515CC8400649086006480068FFF7D2F977
:102680000020BCE700200240001002404C6500081A
:10269000740000206C000020164A10B551681648DE
:1026A00001F00C03042B20D0082B1ED14FF4701422
:1026B00094FAA4F401F47013B4FA84F4E3400F4CD8
:1026C000D26AE45C0F2393FAA3F302F00F02B3FA89
:1026D00083F3DA40094B1033C9039A5C06D5002313
:1026E0001946FDF76FFDA0FB040110BD0448A4FBD3
:1026F000000110BD0010024000127A002C65000895
:1027000000093D002DE9F84F050071D02878FC4EF6
:10271000C0074FF0010425D070686704C0F3810042
:10272000012807D07068C0F3810002281BD17068AF
:10273000C00318D597FAA7F0B0FA80F040F0200057
:10274000400901D0306800E0706A97FAA7F1B1FA49
:1027500081F101F01F0104FA01F1084265D06868B7
:102760000028D2D061E06868B0F5803F0BD010B18E
:10277000B0F5A02F17D0306820F48030306030687A
:1027800020F4802002E0306840F480303060F06A4D
:10279000A96820F00F000843F062686820B3FFF7D3
:1027A00021F980460AE0306840F480203060EAE792
:1027B000FFF718F9A0EB0800642871D897FAA7F082
:1027C000B0FA80F040F02000400901D0306800E00D
:1027D000706A97FAA7F1B1FA81F101F01F0104FACA
:1027E00001F10842E4D020E0FFF7FCF8804607E062
:1027F000C2E000BFFFF7F6F8A0EB08006428DCD8C1
:1028000097FAA7F0B0FA80F040F02000400901D01C
:10281000306800E0706A97FAA7F1B1FA81F101F02F
:102820001F0104FA01F10842E4D12878DFF8D482CC
:1028300080074FF0000A4FF0020730D570684FF064
:10284000F80B10F00C0F07D07068C0F3810002285D
:1028500027D17068C00324D497FAA7F0B0FA80F0AB
:1028600040F02000400901D0306800E0706A97FA1B
:10287000A7F1B1FA81F101F01F0104FA01F1084258
:1028800002D02869012877D130689BFAABF220F09A
:10289000F8016869B2FA82F29040014331605AE06F
:1028A00064E1286988B394FAA4F0B0FA80F048F89B
:1028B0002040FFF797F8814606E000BFFFF792F847
:1028C000A0EB090002289AD897FAA7F0B0FA80F096
:1028D00040F02000400901D0306800E0706A97FAAB
:1028E000A7F1B1FA81F101F01F0104FA01F10842E8
:1028F000E4D030689BFAABF26969B2FA82F220F058
:10290000F80091400843306025E0FFE794FAA4F016
:10291000B0FA80F048F820A0FFF764F8814605E09F
:10292000FFF760F8A0EB09000228CCD897FAA7F0CF
:10293000B0FA80F040F02000400901D0306800E09B
:10294000706A97FAA7F1B1FA81F101F01F0104FA58
:1029500001F10842E4D1287800076CD5A869A8B332
:1029600094FAA4F0B0FA80F008EB8000C0F880443C
:10297000FFF738F8814607E0A4E100BFFFF732F81F
:10298000A0EB090002289ED897FAA7F0B0FA80F0D1
:1029900040F06000B4EB501F01D130680BE097FAB3
:1029A000A7F0B0FA80F040F06000B7EB501F01D103
:1029B000306A00E0706A97FAA7F1B1FA81F101F08C
:1029C0001F0104FA01F21042D8D034E0FFE794FA74
:1029D000A4F1B1FA81F108EB8101C1F880A4FFF7FD
:1029E00001F8814606E000BFFEF7FCFFA0EB0900FE
:1029F00002289AD897FAA7F0B0FA80F040F0600069
:102A0000B4EB501F01D130680BE097FAA7F0B0FA91
:102A100080F040F06000B7EB501F01D1306A00E059
:102A2000706A97FAA7F1B1FA81F101F01F0104FA77
:102A300001F21042D8D12878400768D5F0694FF0EC
:102A40000009C00009D4F06940F08050F061F069DD
:102A50004FF0010900F0805000902B480168C90533
:102A600012D4016841F480710160FEF7BBFF834618
:102A700006E000BFFEF7B6FFA0EB0B00642875D898
:102A800021480068C005F5D5E86801280AD008B1DA
:102A9000052811D0306A20F001003062306A20F041
:102AA000040002E0306A40F001003062E86868B378
:102AB000FEF798FF83460DE0306A40F00400306274
:102AC000F0E700BFFEF78EFFA0EB0B0141F288306C
:102AD00081424BD897FAA7F0B0FA80F040F040005E
:102AE000B4EB501F01D1306813E097FAA7F0B0FAA9
:102AF00080F040F04000B7EB501F09D1306A08E089
:102B00000010024000004242007000400CE040E033
:102B1000706A97FAA7F1B1FA81F101F01F0104FA86
:102B200001F21042CED02DE0FEF75CFF834607E0B5
:102B3000FEF758FFA0EB0B0141F28830814215D817
:102B400097FAA7F0B0FA80F040F04000B4EB501FC5
:102B500001D130680CE097FAA7F0B0FA80F040F0AD
:102B60004000B7EB501F02D1306A01E083E0706A89
:102B700097FAA7F1B1FA81F101F01F0104FA01F20D
:102B80001042D5D1B9F1000F03D0F06920F0805088
:102B9000F061E86980B37168C1F38101022977D0DF
:102BA0004FF080714F000228504609D091FAA1F1F0
:102BB000B1FA81F148F82100FEF714FF05465DE007
:102BC000894691FAA1F1B1FA81F1C24648F8210093
:102BD000FEF708FF804605E0FEF704FFA0EB0800C3
:102BE000022848D897FAA7F0B0FA80F040F0200009
:102BF000400902D0306801E066E0706A97FAA7F1F8
:102C0000B1FA81F101F01F0104FA01F10842E3D1A8
:102C1000D5E908100843716821F474110843706005
:102C200099FAA9F0B0FA80F04AF82040FEF7DAFEEF
:102C3000054604E0FEF7D6FE401B02281BD897FA93
:102C4000A7F0B0FA80F040F02000400901D03068D1
:102C500000E0706A97FAA7F1B1FA81F101F01F0163
:102C600004FA01F10842E5D02EE000BFFEF7BAFEFB
:102C7000401B022802D90320BDE8F88F97FAA7F07D
:102C8000B0FA80F040F02000400902D0306801E046
:102C90000BE0706A97FAA7F1B1FA81F101F01F0118
:102CA00004FA01F10842E1D10EE00128E4D0706895
:102CB0002A6A00F48031914204D1696A00F47010EC
:102CC000884201D00120D7E70020D5E710B5401E8B
:102CD000B0F1807F01D3012010BD4FF0E02460618E
:102CE0000F21601702F044FD0020A0610720206141
:102CF000002010BD30B590F83C20012A3AD00122C6
:102D000080F83C20CA688B6822F440721A434B68F2
:102D100022F480621A430B6822F400621A430B69A2
:102D200022F480521A434B6922F400521A438B6AF0
:102D300022F480421A430B8B22F4702242EA0342AF
:102D40000D4D03680024AB4202D00C4DAB420CD1B8
:102D50008D8C22F4700242EA0552CD6922F0807215
:102D60002A43096A22F000720A435A6480F83C4000
:102D7000002030BD022030BD002C01400034014055
:102D8000F0B590F83C20012A36D0012480F83C4070
:102D9000022280F83D20026853689568174E184F4C
:102DA000B24201D0BA4204D123F4700C4B6843EA1A
:102DB0000C0323F0700C0B6843EA0C0353600268A9
:102DC000B2420DD0B2F1804F0AD00E4B9A4207D0DA
:102DD0000D4B9A4204D0BA4202D00C4B9A4204D115
:102DE000896825F080031943916080F83D400021F7
:102DF00080F83C100846F0BD0220F0BD002C0140D8
:102E00000034014000040040000800400040014040
:102E100070B586B0044614216846FDF72DFA246883
:102E200032480022324902234FF09045844211D1AA
:102E3000486940F400304861486900F4003005906A
:102E400008150090CDE901320620CDE9032069463E
:102E5000284620E02748B4F1804F0CD0264EB442DB
:102E60001DD14C6944F480244C61496901F48021EE
:102E7000059130211FE04C6944F480244C6149697C
:102E800001F48021059108210091CDE90132012151
:102E9000CDE903216946FEF7C3FC06B070BD174EAD
:102EA000B4420DD14C6944F480244C61496901F469
:102EB0008021059171150091CDE90132694611E03B
:102EC0000F488442E9D1486940F4003048614869BC
:102ED000694600F4003005904FF400400090CDE9C1
:102EE00001322846CDE90323D5E70000002C01403C
:102EF00000100240000400480004004000080040A8
:102F00000034014070B5044690F83C000D4601289D
:102F10000BD0012084F83C000C2A45D007DC5AB1C4
:102F2000042A1BD0082A78D12CE0022070BD102A78
:102F30004ED0142A71D15DE0206800F045FF206872
:102F4000816941F0080181612068816921F00401F3
:102F50008161206881692A69114311E0206800F0CD
:102F600081FF2068816941F4006181612068816985
:102F700021F480618161206881692A6941EA022126
:102F800081614AE0206800F0B5FF2068C16941F026
:102F90000801C1612068C16921F00401C161206894
:102FA000C1692A69114311E0206800F0EBFF206835
:102FB000C16941F40061C1612068C16921F4806187
:102FC000C1612068C1692A6941EA0221C16124E026
:102FD000206801F011F82068416D41F00801416559
:102FE0002068416D21F0040141652068416D2A6926
:102FF000114311E0206801F037F82068416D41F479
:10300000006141652068416D21F48061416520685F
:10301000416D2A6941EA02214165002084F83C00A3
:1030200070BD10B5040003D094F83D0010B107E066
:10303000012010BD002084F83C00204600F022F85A
:10304000022084F83D00211D206800F057FE012079
:1030500084F8480084F83E0084F83F0084F840007B
:1030600084F8410084F8420084F8430084F8440066
:1030700084F8450084F8460084F8470084F83D0051
:10308000002010BD08B51D4A01681D48914207D1B6
:10309000816941F400618161806900F4006014E09D
:1030A000B1F1804F0AD0174A914210D1C16941F065
:1030B0000201C161C06900F0020006E0C16941F08F
:1030C0000101C161C06900F00100009008BD0E4A15
:1030D000914207D1C16941F00401C161C06900F0AA
:1030E0000400F2E7094A9142F0D1816941F40051AC
:1030F0008161806900F40050E7E70000002C014086
:10310000001002400004004000080040003401406C
:1031100030B50446022269B1042916D0082920D00E
:103120000C2929D010292ED094F84300012831D041
:10313000012030BD94F83E000128F9D184F83E20EA
:103140002068C26842F0020209E094F83F000128BA
:10315000EED184F83F202068C26842F00402C260C9
:103160001CE094F840000128E2D184F84020206857
:10317000C26842F00802F2E794F841000128D7D172
:1031800084F8412008E094F842000128D0D184F866
:10319000422003E084F843200C2935D00122206826
:1031A00000F004FE1B4920681B4A1C4B884209D0D2
:1031B000904207D0984205D0194DA84202D0194D2F
:1031C000A84203D1456C45F4004545642068884217
:1031D0000CD0B0F1804F09D01349884206D0134972
:1031E000884203D0904201D0984207D18168104AAA
:1031F0001140062906D0B1F5803F03D0016841F0A7
:1032000001010160002030BD2068C26842F0100258
:10321000A5E70000002C01400034014000400140BF
:103220000044014000480140000400400008004004
:103230000700010030B5044600680D0006D0042DDB
:1032400008D0082D45D00C2D08D146E0C16821F0EA
:10325000020102E0C16821F00401C1600022294698
:10326000206800F0A3FD264B41F2111120688A105E
:1032700098420BD0234B984208D0234B984205D05C
:10328000224B984202D0224B984209D1036A0B424A
:1032900006D1036A134203D1436C23F40043436411
:1032A0002068036A0B4206D1016A114203D101680A
:1032B00021F00101016001209DB1042D14D0082DE1
:1032C00015D00C2D16D0102D17D084F843000020F7
:1032D00030BDC16821F00801BFE7C16821F01001CD
:1032E000BBE784F83E00F2E784F83F00EFE784F89C
:1032F0004000ECE784F84100E9E784F84200E6E7A3
:10330000002C0140003401400040014000440140D5
:1033100000480140FEE70000F0B500230A243025F4
:1033200037261F4611E000BFB4EB107F02D905EB32
:10333000107C01E006EB107C01F813C001EB430C9C
:1033400000015B1C8CF80170DBB29342ECD3F0BD42
:1033500070B58AB000240694079418216846089432
:10336000FCF78AFF1D484FF0A0410125C0E9001479
:1033700005618460457680F82040C0E90A54022641
:10338000C661C46080F83040042141610476446322
:10339000FDF780FE08B172B6FEE706A90F48069455
:1033A000FDF7F8FB08B172B6FEE700950394CDE98E
:1033B00001540494694609480594FDF777FC08B167
:1033C00072B6FEE70096694604480196FDF76EFC6A
:1033D000002801D072B6FEE70AB070BD0C020020D2
:1033E00070B586B018216846FCF746FF1A4819499F
:1033F0000024C0E90014012505618460457680F849
:103400002040C0E90A540226C661C46080F83040FA
:103410000421416104764463FDF73CFE08B172B6B5
:10342000FEE700950394CDE90154049469460A48E7
:103430000594FDF73BFC08B172B6FEE700966946BD
:1034400005480196FDF732FC002801D072B6FEE770
:1034500006B070BD000100505C02002070B58AB05B
:10346000002406940794182168460894FCF704FF8A
:103470001E481D490125C0E9001405618460457698
:1034800080F82040C0E90A540226C661C46080F872
:1034900030400421416104764463FDF7FBFD08B12F
:1034A00072B6FEE706A911480694FDF773FB08B152
:1034B00072B6FEE700950394CDE901540494694681
:1034C0000A480594FDF7F2FB08B172B6FEE70C203E
:1034D000CDE9000669460548FDF7E8FB002801D064
:1034E00072B6FEE70AB070BD00040050AC020020C6
:1034F000154808B5416941F001014161416901F098
:1035000001010091416941F00201416140690022DD
:1035100000F00200009011460B20FEF7C7FA0B20C6
:10352000FEF7B6FA002211463820FEF7BFFA38201F
:10353000FEF7AEFA002211463C20FEF7B7FABDE8CE
:1035400008403C20FEF7A4BA001002402DE9F041EB
:1035500086B014216846FCF78FFE1F48416941F48C
:1035600080014161416901F480010591416941F4A3
:1035700000314161416901F400310591416941F433
:103580008021416140694FF0904700F48020059010
:10359000002208213846FEF71FFADFF840804FF47A
:1035A0000046002231464046FEF716FA08200090F9
:1035B00001250024CDE90154694638460394FEF7FD
:1035C0002FF90096CDE90154694640460394FEF771
:1035D00027F906B0BDE8F081001002400004004861
:1035E00010B596B00024129413941C210BA81494C7
:1035F000FCF742FE2C216846FCF73EFE224821499A
:10360000C0E900144EF66021C0E902410461446142
:103610008461FFF706FD08B172B6FEE712941394B9
:1036200012A919481494FFF7ABFB08B172B6FEE774
:103630006020CDE90B040D940E940F941094082291
:103640000BA911481194FFF75DFC08B172B6FEE7B3
:1036500000944FF40050CDE9044001940294039487
:1036600000030694CDE907400994694606480A9488
:10367000FFF740FB08B172B6FEE70348FFF7C8FB4F
:1036800016B010BD002C0140FC02002010B58AB01D
:103690000024079408941C2168460994FCF7ECFD6B
:1036A00015484FF08041C0E900144EF66021C0E992
:1036B000024104618461FFF7B4FC08B172B6FEE711
:1036C000079407A90C480994FFF75AFB08B172B692
:1036D000FEE76020CDE90004029404226946064812
:1036E0000494FFF70FFC08B172B6FEE70248FFF73B
:1036F0008FFB0AB010BD00004803002010B58AB04F
:103700000024079408941C2168460994FCF7B4FD32
:1037100019481849C0E900144EF66021C0E9024179
:1037200004618461FFF77DFC08B172B6FEE707947F
:1037300007A911480994FFF723FB08B172B6FEE709
:103740006020CDE900040294002269460A480494EE
:10375000FFF7D8FB08B172B6FEE7042269460648B7
:10376000FFF7D0FB08B172B6FEE70348FFF750FB46
:103770000AB010BD000400409403002010B58AB0C8
:103780000024079408941C2168460994FCF774FDF2
:1037900015481449C0E900144EF66021C0E9024101
:1037A00004618461FFF73DFC08B172B6FEE707943F
:1037B00007A90D480994FFF7E3FA08B172B6FEE7CE
:1037C0006020CDE9000402940C2269460648049466
:1037D000FFF798FB08B172B6FEE70348FFF718FB46
:1037E0000AB010BD00080040E003002010B596B0FC
:1037F0000024129413941C210BA81494FCF73CFD94
:103800002C216846FCF738FD22482149C0E9001404
:103810004EF66021C0E90241046144618461FFF712
:1038200000FC08B172B6FEE71294139412A919486D
:103830001494FFF7A5FA08B172B6FEE76020CDE94F
:103840000B040D940E940F94109400220BA91148B0
:103850001194FFF757FB08B172B6FEE700944FF4DE
:103860000050CDE9044001940294039400030694AF
:10387000CDE907400994694606480A94FFF73AFAE9
:1038800008B172B6FEE70348FFF7C2FA16B010BDE2
:10389000003401402C04002010B500220F491048CC
:1038A00000F0F2FE08B1FDF715F90E490C4801F0E1
:1038B000CFF808B1FDF70EF90B49094800F0F0FC0C
:1038C00008B1FDF707F9064801F018F9002803D000
:1038D000BDE81040FDF7FEB810BD00000800002054
:1038E000440500205401002058000020FEE7FEE7B8
:1038F0002DE9F84F044640F68F7B48F60F7A4FF0DB
:1039000002094FF4806868E1B0F8441011F00F0626
:1039100038D030F8267039047ED530F8261001EA08
:103920000B0141F0800120F8261006EB860004EB25
:10393000C00595F8740105F5B47500286DD0E878D8
:1039400002286BD02A78216831F8220048F68F735C
:10395000184048F2C003184321F822002978206853
:1039600030F82120B0F8503052047DD509EBC10168
:103970005A1808EB4201415A8905890D009174D00B
:103980002A89D2E0C9062DD4018801EA0A0141F44E
:1039900000410180206804F12805B0F850302A78F1
:1039A00009EBC2015A1808EB4201405AC0F3090062
:1039B0006064E16B0844E06300212046FEF7C7F82D
:1039C00094F8240000289ED0A86900289BD194F880
:1039D000240040F080012068A0F84C10002084F8FA
:1039E0002400FAE0018804F5B4750A0521D5B0F881
:1039F00050302A78062101EBC2015A1808EB420127
:103A0000405A04F52C71C0F30903EB61EA88206881
:103A100001F06AFE216802E0A2E062E072E008883C
:103A200000EA0B0040F0800008802046FEF751FCC1
:103A3000D3E00904D5D5018801EA0B0141F08001EA
:103A400001802068B0F850202B78062101EBC301DB
:103A50000A4408EB4201405A83059B0DEB6110D0EC
:103A6000696971B1EA8801E053E051E0206801F032
:103A70003BFEE96968690844686100212046FEF759
:103A80006FF82068B0F850100844296900F20C4023
:103A900051B13E2910D84A08C90700D0521C4FF630
:103AA000FF7101EA82210FE0018821F4F8410180D1
:103AB000018841F4004107E04A09C90600D1521EBD
:103AC0004FF4004141EA82210180206801884BF6D1
:103AD0008F72114081F4405148F2800211430180FD
:103AE0007BE02068B0F850102A78062303EBC2026E
:103AF0000A4408EB4201415A8905890D009118D00A
:103B0000EA8812E03A4629462046FEF787F80090F8
:103B10000FE0062202EBC1015A1808EB4201415A9C
:103B20008905890D009104D06A896969009B01F0BB
:103B3000DBFDE96900980844E86169690098084478
:103B40006861A86918B129690098814204D9297867
:103B50002046FEF705F803E02946206801F04AFBFD
:103B600038063AD5226806EB860004EBC00132F82D
:103B7000260000EA0A0040F4004022F8260091F8EE
:103B80002B002831022801D1F80522D42268B2F88E
:103B900050300D7809EBC500034408EB4300105A80
:103BA0008A69C0F3090082420CD9121A8A610BD0CB
:103BB0004A6902444A61CA691044C861206801F038
:103BC00019FB0AE000208861E9B22046FDF7BFFF3B
:103BD00003E03A462046FEF794F82068B0F8441017
:103BE00009043FF591AE0020BDE8F88F704770479B
:103BF000FDF7FEBE30B59FB028210FA8FCF73CFBB7
:103C0000142119A8FCF738FB3C216846FCF734FB6B
:103C10000121002408041194CDE90F100225CDE9FB
:103C2000165013914FF4E01018900FA8FEF76AFD9C
:103C300008B172B6FEE70F20CDE919054FF4806098
:103C4000CDE91B40022119A81D94FEF781FC08B1A3
:103C500072B6FEE7094800904FF480700990400169
:103C60000A900E940C940D946846FEF765FB0028AC
:103C700001D072B6FEE71FB030BD000080310200F7
:103C80000248016841F470010160704788ED00E06E
:103C900010B51548002404600C211448FFF7CAFA37
:103CA0004FF080408463114804219838FFF7C2FA2E
:103CB0000F4804600D4800214C30FFF7BBFA0D4857
:103CC00004600A4804214C38FFF7B4FA00220821A6
:103CD0004FF09040FDF780FEBDE8104000224FF409
:103CE00000410548FDF778BE40080040E003002091
:103CF0003434014038040040000400482DE9F0430A
:103D00000268234B234D244E244C4FF080499842A7
:103D100007D0484505D0A84203D0B04201D0A04208
:103D200003D122F070074A683A431D4FDFF874C090
:103D3000DFF8748098420DD048450BD0A84209D0D6
:103D4000B04207D0A04205D0B84203D0604501D0B0
:103D5000404503D122F44075CA682A434D6922F0D8
:103D600080022A4302608A68C2620A6882629842BC
:103D700007D0A04205D0B84203D0604501D04045ED
:103D800001D10969016301214161BDE8F0830000AF
:103D9000002C0140000400400008004000340140B5
:103DA00000400140004401400048014010B501F0CE
:103DB0001F030121046A99408C430462016A9A40FE
:103DC0001143016210BD00002DE9F043026A22F0A8
:103DD00001020262056A436882691C4C25F00205F3
:103DE00022400C6822F0030214438A68194E2A43C9
:103DF000174D194FDFF864C0DFF86490A84207D070
:103E0000B04205D0B84203D0604501D0484506D144
:103E100022F00808CA6842EA080222F00402A84216
:103E200007D0B04205D0B84203D0604501D0484524
:103E300005D14D6923F440731D438B692B434360C7
:103E40008461496841630262BDE8F0838FFFFEFF31
:103E5000002C01400034014000400140004401407A
:103E600000480140F0B5026A22F010020262056AC1
:103E700042688369194C1B4E23400C6823F440733D
:103E800043EA042425F020038D6843EA0513144D0A
:103E9000A84201D0B04206D1CF6823F0800343EAA4
:103EA000071323F04003A8420AD0B04208D00E4DB9
:103EB000A84205D00D4DA84202D00D4DA84207D111
:103EC0004D6922F4406242EA85028D6942EA850228
:103ED00042608461496881630362F0BDFF8FFFFE29
:103EE000002C0140003401400040014000440140EA
:103EF00000480140F0B5026A22F480720262056A4D
:103F00004368C269194C1B4E22400C6822F0030220
:103F1000144325F400728D6842EA0522144DA8422C
:103F200001D0B04206D1CF6822F4006242EA0722F3
:103F300022F48062A8420AD0B04208D00E4DA842B6
:103F400005D00E4DA84202D00D4DA84207D14D69B3
:103F500023F4405343EA05138D6943EA0513436094
:103F6000C4614968C1630262F0BD00008FFFFEFFBB
:103F7000002C014000340140004001400044014059
:103F80000048014030B5026A22F480520262046A9D
:103F90004268C369124D24F400542B400D6823F489
:103FA000407343EA05238D6844EA05340D4DA84269
:103FB0000BD00D4DA84208D00C4DA84205D00C4D99
:103FC000A84202D00B4DA84204D14D6922F4804290
:103FD00042EA85124260C36149680164046230BDEF
:103FE000FF8FFFFE002C01400034014000400140E3
:103FF000004401400048014030B5026A22F480329A
:104000000262046A4268436D114D2B400D681D43E6
:1040100024F400330C8943EA04430E4CA0420BD035
:104020000D4CA04208D00D4CA04205D00C4CA04233
:1040300002D00C4CA04204D14C6922F4803242EAF6
:1040400004224260456549688165036230BD000015
:104050008FFFFEFF002C0140003401400040014072
:10406000004401400048014030B5026A22F4801249
:104070000262046A4268436D114D24F400142B401F
:104080000D6843EA05230D8944EA05540D4DA84205
:104090000BD00D4DA84208D00C4DA84205D00C4DB8
:1040A000A84202D00B4DA84204D14D6922F48022CF
:1040B00042EA8522426043654968C165046230BDB9
:1040C000FF8FFFFE002C0140003401400040014002
:1040D00000440140004801402DE9F041D0F8C032D1
:1040E000D0F8B822CAB101EB810500EB85040026A7
:1040F000E7693FB103EBC5039B6BB7FBF3F503FB2C
:10410000157323B1C2F814610020BDE8F0810023CB
:104110001A46E66100F07FFCF6E70220F5E770B58D
:104120000546D0F8B84200F07AFBC4F80C01D5F887
:10413000B80248B1D5F8BC12D4F80401CA6804F535
:1041400086719047002070BD022070BD70B5044696
:104150000026812100F0B6FA002501212046E56203
:1041600000F0B0FA82212046C4F86C5100F0AAFA9F
:104170002564D4F8B80248B1D4F8BC0204F52E7412
:1041800040688047206800F016FE2560304670BD0C
:1041900010B5D0E9AE4159B194F80001FF2807D01D
:1041A0008B6894F8012121469847FF2084F800018C
:1041B000002010BD0A210180004870477C000020CB
:1041C0004321018000487047CC000020432101803A
:1041D0000048704788000020432101800048704754
:1041E000100100202DE9F04104460026007C4FF428
:1041F0008077012590B3402302228121204600F0E0
:1042000063FB4023E56202220121204600F05CFBB3
:104210000823032282212046C4F86C5100F054FB8D
:104220004FF48E70256400F0C7FDC4F8B802F8B1F1
:104230000546D4F8BC02006880470020C5F8140188
:10424000C5F81801207CD5F8042198B1402301213C
:10425000204600F045FB3046BDE8F081FFE73B46D5
:1042600002228121204600F02FFB3B46E562CAE78F
:104270000126F0E73B46EAE710B5D0F8B81269B17D
:10428000027C002AD1F8042105D04023012100F04E
:1042900027FB002010BD4FF48073F7E7022010BD0C
:1042A00002460220002902D00020C2F8BC1270474A
:1042B000D0F8B802C0F8041100207047D0F8B80256
:1042C000C0F81021C0F80811002070472DE9FC410A
:1042D0000546D0F8B87200208DF80000ADF8040053
:1042E000064608780C4610F0600121D020293BD109
:1042F000E288AAB10006607807D5D5F8BC128B68B1
:1043000039469847E288394626E087F80001A079C7
:1043100087F80101E2883946284600F06AF828E06B
:10432000D5F8BC12607800228B682146984720E0BF
:10433000607820B10A2809D00B2815D110E095F833
:104340009C02032810D1022201A905E095F89C02E5
:10435000032809D101226946284600F064F808E0E4
:1043600095F89C02032804D02146284600F036F830
:1043700002263046BDE8FC8110B5D0F8B812A1B1D4
:10438000D1F814210AB1012010BD0122C1F8142175
:10439000D1F810210263B1F8102193B2D1F80821AD
:1043A000812100F038FB002010BD022010BD10B5A7
:1043B000D0F8B42252689047002010BD134610B5C3
:1043C0000A46002100F08CFA002010BD134610B5FB
:1043D0000A46002100F01FFB002010BD10B5044666
:1043E000802100F0FDFA2046BDE81040002100F0D9
:1043F000F7BA10B50323C0F85C21C0F89432C0F8B6
:10440000602113460A46002100F06AFA002010BD20
:1044100010B505210023C0F894121A46194600F081
:104420005FFA002010BD10B50223C261C0F89432BB
:10443000026213460A46002100F0EDFA002010BD8A
:1044400010B504210023C0F894121A46194600F052
:10445000E2FA002010BD000010B50A46024903A090
:1044600000F0E2F8004810BD080800204344432053
:10447000436F6E666967000012200880004870472D
:104480002800002010B50A46024903A000F0CCF82D
:10449000004810BD0808002043444320496E74655D
:1044A0007266616365000000042008800048704760
:1044B0002400002010B50A46024903A000F0B4F819
:1044C000004810BD0808002053544D6963726F65A1
:1044D0006C656374726F6E696373000010B50A4691
:1044E000024903A000F0A0F8004810BD0808002011
:1044F00053544D3332205669727475616C20436F8A
:104500006D506F727400000010B51A2008800A48C0
:104510000168001D0468001D0068081809D0082201
:104520000649FEF7F9FE0549042210312046FEF740
:10453000F3FE0248801E10BDACF7FF1F3E000020B6
:10454000F8B504460020ADF8000048880D46010A81
:10455000082948D2DFE801F04704091747473C45DE
:10456000D4F8B012207C0A6819E0207C02260028CA
:10457000D4F8B40205D0C16A68468847014646703F
:104580003EE0816AF8E7C0B206282CD2DFE800F0EE
:10459000030A1014181CD4F8B002426805E06946FA
:1045A00090471CE0D4F8B0028268E2B1207CF6E7C4
:1045B000D4F8B002C268F8E7D4F8B0020269F4E7B0
:1045C000D4F8B0024269F0E7D4F8B0028269ECE7AF
:1045D000207C40B9D4F8B402416B68468847014654
:1045E0000EE0207C20B129462046FFF7F7FEF8BDFB
:1045F000D4F8B402016B684688470146072048702A
:10460000BDF8000048B1EA8852B1824200D90246A2
:10461000ADF800202046FFF706FFE8880028E6D125
:104620002046FFF70DFFF8BD70B5002300281ED00F
:104630000446002502E06D1CEDB2641C2678002EB5
:10464000F9D1022404EB450414801278CA545B1C8F
:104650000322CA5400245B1C06E0CA545B1CDAB275
:104660008C54521CD3B2401C0278002AF5D170BD84
:1046700001004FF0000004D0012901D0022901D02F
:10468000022070470120704710B580B1D0F8B432D5
:1046900013B10023C0F8B43209B1C0F8B01201213F
:1046A00080F89C12027000F0BFF8002010BD0220BC
:1046B00010BD10B5D0F8C002FDF782FABDE8104079
:1046C000FFF7D6BF10B5D0F8C002FDF753FABDE82A
:1046D0001040FFF7CDBF2DE9F0411746044651B118
:1046E000D4F8B40242691AB194F89C02032851D05C
:1046F0000220BDE8F081D4F89432002504F11400C2
:10470000022B03D0042B3AD0C3B33CE0D0E90363BF
:104710009E4207D9F11AC1608AB239462046FFF796
:1047200055FE12E08068B0FBF3F103FB110199B96B
:10473000984211D3D4F8981288420DD20022114623
:104740002046FFF743FEC4F8985200231A46194644
:10475000204600F0C5F816E0D4F8B402C16829B1CB
:1047600094F89C02032801D12046884780212046E6
:1047700000F036F92046FFF74BFE04E0FFE780210A
:10478000204600F02DF994F8A002012804D184F805
:10479000A05201E0204690470020AAE770B51546D8
:1047A000044649B1D4F8B40282691AB194F89C0263
:1047B000032830D0022070BDD4F8941204F5AA70FA
:1047C000032902D005291ED027E0D0E903218A421F
:1047D0000BD9531AC3600846834200D303469AB2EA
:1047E00029462046FFF7EAFD17E0D4F8B402016934
:1047F00029B194F89C02032801D12046884720461D
:10480000FFF71EFE09E000200146C4F8940220468E
:1048100000F0E6F801E020469047002070BDD0F897
:10482000C002FDF77EBB000010B504461C481D49C0
:10483000C0F8E842C4F8C0020160082141600221CA
:1048400081600161002181610162FDF786FC08B190
:10485000FCF740F90022D4F8C0021823114604F5F1
:104860003074FDF755F95823002280212068FDF7A8
:104870004FF9C023002281212068FDF749F94FF448
:104880008873002201212068FDF742F94FF48073FC
:10489000002282212068FDF73BF9002010BD0000B6
:1048A000F8110020005C00400A0601F07F01D0F8FA
:1048B000C00201EB810100EBC10002D590F82A0093
:1048C000704790F86A01704710B51C461346D0F83F
:1048D000C0022246FDF72EFBBDE81040FFF7C8BE20
:1048E00010B5D0F8C002FDF755FBBDE81040FFF74A
:1048F000BFBE70B50022044640231146FFF7E4FF17
:1049000040260125C4F864613346002280212046F8
:10491000C4F85851FFF7D8FF6662A56184F89C522D
:104920000020C4F894026060C4F8A402D4F8B8026D
:1049300028B1D4F8B40200214268204690470020F4
:1049400070BD90F89C12042903D190F89D1280F854
:104950009C120020704710B590F89C12032904D1D6
:10496000D0F8B412C96901B18847002010BD0174A4
:104970000020704710B5D0F8C002FDF796FCBDE8E6
:104980001040FFF775BE70B5044600F52A70054665
:1049900000F04AF80120C4F89402B4F8AE02C4F85A
:1049A000980294F8A80210F01F010AD001290DD036
:1049B000022910D000F08001204600F011F80020FC
:1049C00070BD2946204600F09EF8F8E729462046AB
:1049D00000F0CAF9F3E72946204600F01DF9EEE79A
:1049E00010B5D0F8C002FDF7EEFABDE81040FFF7B1
:1049F0003FBE10B5D0F8C002FDF772FCBDE8104014
:104A0000FFF736BE90F89C1280F89D12042180F8C2
:104A10009C120020704710B5D0F8C002FDF703FBD0
:104A2000BDE81040FFF724BE0A7802704A78427051
:104A30008A78CB7802EB032242800A794B7902EB29
:104A4000032282808A79C97902EB0121C1807047F3
:104A50000246002011B1C2F8B4127047022070471C
:104A600010B5D0F8B42202241AB11268904700B9E8
:104A70000024204610BD000070B50E461E4D8978FA
:104A800004462970012931D894F89C0202280BD0E1
:104A900003280FD031462046FFF7A0FC2978204696
:104AA000BDE87040FFF783BCD9B10320616084F892
:104AB0009C0209E071B16068884212D0C1B2204600
:104AC000FFF775FC297861602046FFF7C9FF0228CF
:104AD0000CD006E0022084F89C0220466160FFF7BB
:104AE00066FC2046BDE87040FFF7AABC3146204670
:104AF000BDE87040FFF772BC7800002010B5FFF7EA
:104B000078FF002010BD2DE9F0410A78002612F050
:104B1000600208D0202A01D0402A70D1D0F8B422F7
:104B2000926890476DE04B78002201250A2B66D2EF
:104B3000DFE803F0405D6557650805652C29FFF740
:104B4000FFFC5EE004468888D8B9C888C8B94888A0
:104B5000802816D200F07F0794F89C02032810D01A
:104B600084F89E7239462046FFF704FF2046FFF77F
:104B700067FC1FB1022084F89C0242E084F89C523A
:104B80003FE020463BE0FFF777FF3AE0CB88012B80
:104B900035D190F89C32012B04D0022B02D0032B8C
:104BA0002DD104E08260012200F1080116E001220B
:104BB000011D13E090F89C22012A03D0022A01D0A3
:104BC000032A1CD1CA88022A19D1C560D0F8A412C0
:104BD00009B10321C160022200F10C01FFF723FC9F
:104BE0000FE0498801290CD1C0F8A45211E090F8D7
:104BF0009C32012B08D0022B06D0032B04D0FFF7E8
:104C0000EDFB3046BDE8F08149880129F9D1C0F8B3
:104C1000A422FFF715FCF4E72DE9F0410A4604460B
:104C200010780027097910F060030AD0202B01D0FA
:104C3000402B50D1D4F8B4021146836820469847DF
:104C40008FE0C0F34110012806D05078D0B301287E
:104C50002AD003283FD107E0D4F8B4021146836874
:104C60002046BDE8F041184794F89C02022802D083
:104C7000032872D10AE071B380296ED02046FFF775
:104C8000AFFE80212046FFF7ABFE6AE0508838B9BE
:104C900031B1802904D0D08810B92046FFF7A0FE9A
:104CA0002046FFF7CDFB5CE094F89C020228E2D09E
:104CB000032852D1508898BB4806F1D02046FFF710
:104CC000F8FCEDE7FFE794F89C020026022803D0E9
:104CD000032842D112E040E009B180293DD1080605
:104CE00001F07F0000EB800004EB800101D514315E
:104CF00001E001F5AA7102220E602AE0080601F027
:104D00000F0000EB800004EB80000AD5806920B31F
:104D100001F07F0000EB800004EB800514350BE010
:104D20001FE0D0F85801C0B101F07F0000EB800017
:104D300004EB800505F5AA7541B1802906D020460F
:104D4000FFF7B2FD10B10120286000E02E600222C2
:104D500029462046FFF767FB03E011462046FFF790
:104D60003DFB3846BDE8F08170B5054608780C4635
:104D700010F0600003D0202801D0402816D195F80B
:104D80009C02012803D0022801D003280ED12079EB
:104D900001280BD8D5F8B402826828469047E188EC
:104DA000014306D12846FFF74BFB02E02846FFF7F8
:104DB00015FB002070BD704700487047D8100020D8
:104DC0002DE9F0470C78002630F8243048F68F1291
:104DD0001340CA78002A7DD0012A7CD0022A02D052
:104DE000032A7FD0012648F28002134320F82430A2
:104DF0000D7830F8254048F68F731C402C4314433F
:104E000020F825400D7B48F2C00C48F6BF744CF2E8
:104E100080074BF68F79EDB391F80080C24630F8E9
:104E2000285048F280181D4045EA080520F82A500D
:104E3000B0F8505091F80080054405EB0815B1F822
:104E4000088028F00108A5F80084B0F8505091F8C7
:104E50000080054405EB0815B1F80A8028F0010828
:104E6000A5F808844D78002D0D7830F825804FEA9C
:104E700048487DD0B8F1000F07DA30F8258008EAFD
:104E8000030848EA070820F825800F7830F82750F3
:104E90006D0600E02CE006D530F827501D4045EAAD
:104EA0000C0520F82750CB780D78012B30F82530F1
:104EB00003EA040301D083F02003134320F82530D4
:104EC0000B7830F8231001EA0901114320F8231070
:104ED000304602E003E008E004E0BDE8F08743F478
:104EE000007380E743F4C0637DE743F480637AE7AF
:104EF0004D782DB3B0F850500F78054405EB0715E9
:104F0000CF8827F00107A5F800740F7830F82750F4
:104F10006D0606D530F827501D4045EA0C0520F8EF
:104F20002750CB78012B06D00B7830F82310214086
:104F300081F02001C9E70B7830F823102140C4E745
:104F4000B0F850400D78044404EB0514CD8825F0EA
:104F50000105A4F80854B0F850400D78044404EB5F
:104F600005140D6904F20C4475B13E2D14D800E00F
:104F700030E04FEA550CED0701D00CF1010C4FF673
:104F8000FF7505EA8C2511E0258825F4F845258074
:104F9000258845F4004509E04FEA551CED0601D18E
:104FA000ACF1010C4FF4004545EA8C2525800D78C5
:104FB00030F82540640405D530F825401C403C43BA
:104FC00020F825400B7830F8231001EA090181F41C
:104FD00040517AE7B8F1000F07DA30F8258008EA87
:104FE000030848EA070820F825800F7830F8275092
:104FF0006D0606D530F827501D4045EA0C0520F80F
:1050000027500D7830F8253003EA090383F4405324
:10501000134320F825308EE72DE9F04391F80C80FA
:105020004F780A7848F6BF7C4BF68F7948F28003B8
:1050300048F2C0054CF2800648F68F74B8F1000FB4
:1050400028D0002F30F822704FEA474748D0002F71
:1050500005DA30F822702740374320F822700A78AA
:1050600030F822707F0605D530F8227027402F4394
:1050700020F822700D7830F825202240324320F8A5
:1050800025200C7830F8242002EA0C021A4320F87C
:1050900024201AE07FB130F82260760605D530F87A
:1050A000226026402E4320F822600A7830F8221031
:1050B00001EA0C010EE030F822506D0405D530F8FD
:1050C00022502540354320F822500A7830F822102B
:1050D00001EA0901194320F822100020BDE8F083FD
:1050E000002F05DA30F822702740374320F822706D
:1050F0000A7830F82260760605D530F8226026401E
:105100002E4320F822600E7830F8262022402A43D1
:1051100020F826200C7830F8242002EA09021A43ED
:1051200020F82420C1E700207047012120F8401F0B
:1051300000210180818001820846704730F8401FBD
:1051400021F43F4101800020704730B50A7BB2BB9B
:105150004A7848F68F7548F28004C2B10B7830F86F
:105160002320520607D530F823202A4048F2C005F4
:105170002A4320F82320CA78012A20D00A7830F860
:10518000221048F6BF73194081F0200114E00A781C
:1051900030F822305B0407D530F822302B404CF237
:1051A00080052B4320F822300A7830F822104BF685
:1051B0008F73194081F44051214320F822100020C0
:1051C00030BD10B54A780978002A48F2800330F8DB
:1051D000212005D048F6BF74224082F0100204E07E
:1051E0004BF68F74224082F480521A4320F821201B
:1051F000002010BD2DE9F04F0D464A78097B04468A
:105200004FF0000948F68F7A48F2800B4FF6FF778F
:105210004FF40048012A09D000297DD0E8780228FF
:105220007BD001287AD00120BDE8F08FAE692869D3
:10523000864200D9064681B1E97802291CD0287837
:1052400034F820104906B4F85010214401EB001046
:1052500070D5A0F80C646A8928E1B3B2EA882046C8
:10526000696900F05DFAB4F850002978204400EB39
:105270000110A0F8046435E1296A814276D92978C1
:1052800034F8210048F2801200EA0A00104324F8A2
:105290002100286A801B2862287834F820104906EB
:1052A000697876D511B1012921D027E0B4F85010E2
:1052B000214401EB001000F20C404EB13E2E0FD8FD
:1052C0007108F20700D0491C07EA8121018015E02E
:1052D000018821F4F8410180018841F40041F5E79B
:1052E0007109F20600D1491E48EA8121EEE7B4F8BF
:1052F0005020111901EB0010A0F80C646A89B3B2B8
:105300002046696900F00CFA6869304468612969CF
:10531000286A884206D902E0EDE00DE178E1801BC1
:10532000286202E00646C5F82090687818B1012886
:1053300024D02BE0B7E0B4F850002978204400EBEB
:10534000011000F204404EB13E2E10D87108F20751
:1053500000D0491C07EA8121018017E0018821F46F
:10536000F8410180018841F40041F5E786E07109C8
:10537000F20600D1491E48EA8121EDE7B4F8500059
:105380002978204400EB0110A0F804642A896FE01A
:10539000FFE711B1012921D027E0B4F850102144D2
:1053A00001EB001000F204404EB13E2E0FD8710800
:1053B000F20700D0491C07EA8121018015E001882D
:1053C00021F4F8410180018841F40041F5E77109B9
:1053D000F20600D1491E48EA8121EEE7B4F85010E8
:1053E000214401EB0010A0F804642A89B3B22046DE
:1053F000696900F095F96869304468612969286A2B
:10540000884202D9801B286202E00646C5F8209037
:10541000687810B1012822D029E0B4F8500029782A
:10542000204400EB011000F20C404EB13E2E0FD88C
:105430007108F20700D0491C07EA8121018016E0BB
:10544000018821F4F8410180018841F40041F5E729
:105450007109F20600D1491E48EA8121EEE7B4F84D
:1054600050100819297800EB0110A0F80C646A8923
:10547000B3B22046696900F053F933E02A7834F872
:10548000220048F68F63184040EA0B0024F82200FF
:10549000B4F850002A78204400EB02108BB2A0F838
:1054A00004342A89E5E7A0F804642A89B3B22046C7
:1054B000696900F035F9687810B1012808D011E069
:1054C000297834F8210048F2C00200EA0A0006E018
:1054D000297834F821004CF2800200EA0A001043D7
:1054E00024F82100297834F8210048F6BF721040D2
:1054F00080F03000DFE0A9692869814202D9091AE9
:10550000A961B6E00846C5F81890B2E0088820F412
:10551000F8400880088840F400400BE03E2876D828
:105520004208C00700D0521C07EA822002E000BFF8
:1055300048EA82200880B6E092B9B4F85000297891
:10554000204400EB0110296900F2044069B13E29B2
:1055500013D84A08C90700D0521C07EA82210180EB
:10556000687888B1012832D03AE0018821F4F84106
:105570000180018841F40041F1E74A09C90600D1E0
:10558000521E48EA8221EAE7B4F850002978204404
:1055900000EB0110296900F20C4049B13E290FD8F7
:1055A0004A08C90700D0521C07EA8221018017E08F
:1055B000018821F4F8410180018841F40041F5E7B8
:1055C0004A09C90600D1521E48EA8221EEE7B4F822
:1055D00050100819297800EB0110298AA0F80C1442
:1055E000E869B0B3297834F82100420401D54206B5
:1055F00003D444F24002104255D134F8210048F25D
:10560000C00200EA0A00104324F821004BE03CE00D
:10561000A9692869814202D9091AA96102E00846EC
:10562000C5F818908AB9B4F850102A78214401EBD3
:10563000021101F2044168B13E2813D84208C307A1
:1056400000D0521C07EA82220A80697889B10129B8
:1056500021D028E00A8822F4F8420A800A8842F41D
:105660000042F1E74209C30600D1521E48EA8222F5
:10567000EAE7B4F850102A78214401EB021101F254
:105680000C4100287FF44AAF40E74209C0067FF48E
:105690004FAF521E4CE7B4F8502011192A7801EB95
:1056A0000211A1F80C04297834F821004BF68F720E
:1056B000104080F4405040EA0B0024F82100002004
:1056C000B2E50021A0F844104FF43F41A0F840108B
:1056D000002070470148FCF7C0BC0000F811002012
:1056E000B0F844007047000010B500EB42005C08C1
:1056F00000F5806009D000BF30F8042B01F8012BC1
:10570000120A01F8012B641EF6D1DA0701D00088D5
:10571000087010BD11B98021A0F84C10002070470E
:1057200010B55B1C00EB42005B0800F5806009D0FF
:1057300011F8012B11F8014B42EA042220F8042B46
:105740005B1EF5D110BDFEE70FB4084B10B504A9E0
:1057500002AA039800F0EEF8044602A9002000F027
:105760006CFC204610BC5DF814FB00003B60000898
:105770000907090E002804DB00F1E02080F800147E
:10578000704700F00F0000F1E02080F8141D704712
:1057900002E008C8121F08C1002AFAD170477047FA
:1057A000002001E001C1121F002AFBD17047000058
:1057B0002DE9FF5F82B00021DDE90430020DDDF844
:1057C00040B0034318D044F61050A2F2FF324243D7
:1057D0001514119801281FD0A5EB0B00401C5FEA9F
:1057E000000A4FF000064E4FDFF83891B0465046A1
:1057F00015D5CAF1000413E0119801244AA3012829
:1058000001D16FEA0B010298119AC0E90031C0E999
:10581000024206B0BDE8F09FCBF10000DFE704468E
:105820000021404A491842EB0450CDE9001012E033
:10583000E00707D032463B4640464946FAF73AFD74
:105840008046894632463B4610461946FAF732FDF5
:1058500006460F466410002CEAD1DDE90401DDE9BB
:105860000023BAF1000F06DAFAF724FD42464B4650
:10587000FAF720FD05E0FAF78FFD42464B46FAF7AE
:105880008BFD04460E460022284BFAF743FF03D84F
:105890004FF0FF30014607E00022254B20463146FD
:1058A000FAF778FEFAF71DFF102409E0002C0ADB56
:1058B0000A220023FAF786FC039B30321A55641E35
:1058C00050EA0102F2D1641C039AC4F1110314449A
:1058D000119A012A03D0012208430DD10AE008439E
:1058E00004D000204FF0110B119072E7A3EB0B05D1
:1058F0006D1E0DE05B4504DD4FF0000205F1010572
:1059000004E003DA4FF00002A5F10105002AECD013
:1059100002981199C0E90231C0E9004579E7000019
:10592000000014400000F03F300000000000F04391
:105930000000E03F2DE9FF4F95B09A4688460646A5
:105940000025EEE1252877D100242746F94A0121D8
:10595000039400E0044316F8013F203B01FA03F0F2
:105960001042F7D130782A2811D06FF02F03307809
:10597000A0F13002092A16D8039A44F0020402EB7F
:10598000820203EB42021044761C0390EFE758F8C2
:10599000042B0392002A03DA504244F4005403908B
:1059A00044F00204761C30782E2816D116F8010F28
:1059B00044F004042A280DD06FF02F023078A0F1B3
:1059C0003003092B09D807EB870302EB4303C71801
:1059D000761CF3E758F8047B761C30786C280FD0DF
:1059E00006DC4C2817D068280DD06A2814D104E0B2
:1059F000742810D07A280FD10DE044F400140AE086
:105A000044F4801401E044F440147278824202D1DC
:105A100004F58014761C761C307866280BD013DCD5
:105A2000582877D009DC002875D04528F6D04628BC
:105A3000F4D047281AD193E118E0632835D06428C0
:105A400079D0652812D18BE1702873D008DC6728E3
:105A5000F1D069286FD06E280DD06F2806D1ACE048
:105A600073282CD0752874D0782853D052461799B3
:105A700090476D1C54E1C4F30250022809D003285A
:105A80000DD0D8F8001004280DD00D6008F10408DE
:105A900046E1D8F80010EA17C1E90052F6E7D8F855
:105AA00000100D80F2E70D70F0E718F8041B8DF878
:105AB000001000208DF80100EB46012003E058F8AB
:105AC00004BB4FF0FF3061074FF0000102D40DE03E
:105AD00009F101018946B9420FDA8145F8DB1BF86B
