:020000040800F2
:1000000068140020A1010008B31900088518000831
:10001000B1190008270300086F360008000000002F
:10002000000000000000000000000000B31C0008F9
:100030007103000800000000B11C0008B51C000896
:10004000BB010008BB010008BB010008BB010008A0
:10005000BB010008BB010008BB010008BB01000890
:10006000BB010008BB010008BB010008BB01000880
:10007000BB010008BB010008BB010008BB01000870
:10008000BB010008BB010008BB010008BB01000860
:10009000FD350008BB010008BB010008BB010008DA
:1000A000BB010008BB010008BB010008BB01000840
:1000B000BB010008BB010008BB010008BB01000830
:1000C000BB010008BB010008BB010008BB01000820
:1000D000BB010008BB010008BB010008BB01000810
:1000E000BB010008BB010008BB010008BB01000800
:1000F000BB010008BB010008BB010008BB010008F0
:10010000000000000000000000000000BB0100082B
:10011000BB010008BB010008BB010008BB010008CF
:10012000BB010008BB010008BB010008BB010008BF
:10013000BB010008BB010008000000000000000037
:10014000BB010008BB010008BB0100080000000063
:10015000000000000000000000000000000000009F
:100160000000000000000000BB010008BB01000807
:10017000BB010008000000000000000000000000BB
:1001800000000000BB010008DFF810D000F08EF87E
:1001900000480047AF360008AFF300806814002025
:1001A0000648804706480047FEE7FEE7FEE7FEE711
:1001B000FEE7FEE7FEE7FEE7FEE7FEE7351D000887
:1001C000890100082DE9F05F0546002092469B4614
:1001D00088460646814640241BE02846414647465D
:1001E000224600F020F853465A46C01A914110D3D7
:1001F00011461846224600F04AF82D1A67EB01080E
:100200004F4622460120002100F041F817EB00097B
:100210004E41201EA4F10104DFDC484631462A4647
:100220004346BDE8F09F202A04DB203A21FA02F081
:100230000021704721FA02F3D040C2F12002914020
:1002400008431946704740EA01039B0703D009E0C1
:1002500008C9121F08C0042AFAD203E011F8013BB2
:1002600000F8013B521EF9D27047D2B201E000F80B
:10027000012B491EFBD270470022F6E710B513464A
:100280000A4604461946FFF7F0FF204610BD202A13
:1002900004DB203A00FA02F1002070479140C2F1DD
:1002A000200320FA03F3194390407047064C074D92
:1002B00006E0E06840F0010394E807009847103436
:1002C000AC42F6D3FFF764FFF036000810370008A1
:1002D00070B58C1810F8015B15F0070301D110F808
:1002E000013B2A1106D110F8012B03E010F8016B35
:1002F00001F8016B5B1EF9D12B0705D40023521EB8
:100300000DD401F8013BFAE710F8013BCB1A921C1F
:1003100003E013F8015B01F8015B521EF9D5A1421D
:10032000D8D3002070BDFEE704284FF000007047CE
:100330000020704710B500220449054801F00DFE69
:100340000449034801F003FE002010BD700800209E
:10035000840100208804002010B50146034801F004
:10036000F6FD024801F0D2FD002010BD84010020FE
:10037000704772B6FEE7000070B50B480168001DBB
:100380000568001D0068084400280CD0074C0822AE
:10039000A11C01F078FA04F112012846BDE8704072
:1003A000042201F070BA70BDACF7FF1F44000020BA
:1003B0002DE9FC4FDFF894A1002301250AF1040B7D
:1003C00003244FF00F0C0BF1040EB8E005FA03F60E
:1003D00032406FD04F68012F05D0022F03D0112F6C
:1003E00001D0122F17D1D0F808905F0004FA07F857
:1003F00029EA08090097D1F80C8008FA07F848EABA
:100400000908C0F808804768B7430E79C6F300169C
:100410009E403E434660C6684FEA430804FA08F728
:10042000BE4301978F6807FA08F73743C7604E68E5
:10043000022E01D0122E13D1DE0800EB86060096A4
:10044000366A5F07FF0E0CFA07F926EA0906D1F8AB
:10045000109009FA07F949EA0609009EC6F82090AB
:100460000668019FBE430F7907F0030707FA08F7F4
:10047000374307604E68F60060D5354EB76947F0E0
:100480000107B761B66923F0030706F0010600967D
:10049000304E3E44B146B6689F074FEA17780CFAD3
:1004A00008F7BE43B0F1904F05D02B4FB84204D1AE
:1004B000012712E042E000270FE0284FB84201D1A7
:1004C00002270AE0264FB84201D1032705E0254F55
:1004D000B84201D1042700E0052707FA08F737439F
:1004E000C9F80870DAF800605746D1F804809643DE
:1004F0005FEAC83800D516433E60DBF800605F460F
:10050000D1F8048096435FEA883800D516433E60F0
:10051000DEF800607746D1F8048096435FEAC82889
:1005200000D516433E60094F0C373E68D1F8048071
:1005300096435FEA882800D516433E605B1C0A6834
:1005400032FA03F67FF442AFBDE8FC8F00040140AD
:10055000001002400000014000040048000800486C
:10056000000C0048001000480AB1816170478162A8
:1005700070470000014880687047000000000020BC
:1005800002488168027811448160704700000020B1
:10059000074810B5016841F010010160032000F028
:1005A0006DF8002000F006F800F024F8002010BDDF
:1005B0000020024070B50D4D04464FF47A71287842
:1005C000B1FBF0F00A490968B1FBF0F001F046F91F
:1005D00048B9102C07D200222146501E00F02EF8F8
:1005E00000206C6070BD012070BD00000000002084
:1005F0000C000020094808B5816941F001018161C2
:10060000816901F001010091C16941F08051C1612E
:10061000C06900F08050009008BD0000001002404A
:10062000002809DB00F01F020121914040098000F1
:1006300000F1E020C0F8001170470000F0B40E4B4C
:100640001B680C46C3F30223C3F10705042D00D930
:100650000425191D072901D2002300E0DB1E012615
:1006600006FA05F1491E214099409E40761E16402B
:100670003143F0BC02F0FCBF0CED00E0064900F095
:10068000070208684FF6FF03184040EA0220034AB9
:1006900010430860704700000CED00E00000FA0510
:1006A00010B50C0607D501F0070101EB810100EB45
:1006B000C100283005E001EB810100EBC10000F52D
:1006C000B47099B232B1012202730181190C4181D7
:1006D000002010BD00220273C180F9E7704701EBD2
:1006E000810200EBC202D0F8E802D26B01F004BF35
:1006F00001EB810200EBC202D0F8E802D2F87C21C3
:1007000001F065BF70B504460B0601F0070000EB71
:10071000800104EBC1014FF001024FF0000503D549
:1007200081F82920283103E081F8695101F5B4717D
:10073000087094F8A802012808D084F8A82220683C
:1007400002F0FEFB84F8A852002070BD022070BDAC
:1007500070B5044601F00F006268904201D9012093
:1007600070BD0B0601F0070000EB800104EBC10136
:100770004FF001024FF0000503D581F82920283100
:1007800003E081F8695101F5B4718D70087094F837
:10079000A802012808D084F8A822206802F069FC89
:1007A00084F8A852002070BD022070BD2DE9F05FD2
:1007B00004685FEA424C0B788D69B4F850C04FF082
:1007C00000064BF68F7948F2800A48F68F7B48F294
:1007D000C00E4FF480672AD54FF0020808EBC3081B
:1007E000C44407EB4C07E45BC4F30904A54203D3FC
:1007F0002D1B8D6101D00BE08E61066836F8235009
:1008000005EA090585F4005545EA0A0526F823504E
:10081000520609D50D78036833F8252002EA0B0249
:1008200042EA0E0223F8252084B30A8929E04FF01A
:10083000060808EBC308C44407EB4C07E45BC4F3A9
:100840000904A54203D32D1B8D6101D00BE08E61FD
:10085000066836F8235005EA090585F4005545EA8F
:100860000A0526F82350520609D40B78056835F896
:10087000232002EA0B0242EA0E0225F823202CB1C3
:100880004A8949690068234602F0C2FE2046BDE855
:10089000F09F2DE9F05F05460C4600685FEA426C68
:1008A00016462278A369B0F850C04FF0000148F610
:1008B0008F774CF280094FF6FF7B4FF4004E4FF4D8
:1008C000806A6CD54FF0020808EBC208E0440AEBDE
:1008D000480C30F80C00C0F30900834211D91B1AF0
:1008E000A3610FD0730407D52E6836F822303B4041
:1008F00043EA090326F8223094F82420012A08D07C
:10090000C6E0A16111462846FFF7E9FE70046CD4E9
:10091000BEE0626902446261E2690244E261236905
:10092000226A9A4202D31846111A03E084F824106E
:100930000AB110462162617811B1012923D02BE060
:100940002968B1F850201144227801EB021101F21C
:10095000044148B13E280FD84208C30700D0521CBA
:100960000BEA82220A8017E00A8822F4F8420A8001
:100970000A8842F40042F5E74209C30600D1521E3C
:100980004EEA8222EEE72968B1F85020114422781D
:1009900001EB0211A1F8040483B2228974E04FF044
:1009A000060808EBC208E0440AEB480C30F80C00DB
:1009B000C0F30900834211D31B1AA3610FD0730443
:1009C00007D42E6836F822303B4043EA090326F864
:1009D000223094F82420012A11D059E0A161114657
:1009E0002846FFF77CFE700452D42278296831F83B
:1009F0002200384040EA090021F8220048E06269FC
:100A000002446261E2690244E2612369226A9A4215
:100A100003D31846111A216204E00AB1104621627C
:100A200084F824106278296812B1012A22D029E0C2
:100A3000B1F850201144227801EB021101F20C416F
:100A400048B13E280FD84208C30700D0521C0BEA19
:100A500082220A8016E00A8822F4F8420A800A8874
:100A600042F40042F5E74209C30600D1521E4EEAA5
:100A70008222EEE7B1F850201144227801EB0211F6
:100A8000A1F80C04628983B26169286802F0DCFD78
:100A90002278296831F8220048F6BF73184080F0A8
:100AA000300048F28003184321F822000020BDE8FE
:100AB000F09F01F0070101EB810100EBC100D0F8CC
:100AC000840170472DE9F04104460F0601F007004C
:100AD00000EB800104EBC1014FF001064FF000056F
:100AE00003D581F82960283103E081F8695101F5C7
:100AF000B47108700A61CB704A7802B1C881022BC8
:100B000000D10D7194F8A802012809D084F8A862D8
:100B1000206802F0E9F8284684F8A852BDE8F08180
:100B20000220FBE770B50C4601F0070505EB8501D7
:100B300000EBC101C1E95F230022C1F8842181F8E3
:100B4000692181F8685101F5B4716207006802F00B
:100B5000E5FA002070BD70B5044601F00700626838
:100B6000904201D9012070BD0B064FF000054FF0F7
:100B7000010207D500EB800104EBC10181F82920B7
:100B8000283107E001EB810104EBC10181F86951D3
:100B900001F5B4718A70087094F8A802012808D091
:100BA00084F8A822206802F0A0FA84F8A852002055
:100BB00070BD022070BD70B50C4601F0070505EB55
:100BC000850100EBC101C1E90F23012281F84C200E
:100BD0008B6400234B6481F8292001F8285F6207A9
:100BE000006802F09BFA002070BD10B50446006852
:100BF00002F00AFD000402D5204600F0DBFE20686A
:100C000002F002FD40050CD5206830F8441F21F4A5
:100C100080610180204600F0F5F80021204600F0B8
:100C20000CF9206802F0F0FC400405D5206830F88B
:100C3000441F21F480410180206802F0E5FC80041B
:100C400005D5206830F8441F21F400510180206848
:100C500002F0DAFCC00414D5206830F8401F21F0FF
:100C600004010180206830F8401F21F00801018054
:100C7000204600F0DAF8206830F8441F21F4805153
:100C80000180206802F0C0FC000514D5206830F80F
:100C9000401F41F008010180206830F8441F21F412
:100CA00000610180206830F8401F41F0040101809C
:100CB000204600F0F7F8206802F0A6FC800508D571
:100CC000206830F8441F21F400710180204600F0B4
:100CD000B0F8206802F098FCC00505D5206830F80F
:100CE000441F21F48071018010BD70B586B00400EE
:100CF00004D094F8A902002518B107E0012006B03D
:100D000070BD84F8A852204600F042F8032084F811
:100D1000A902206802F0A6F9002001260EE000EBEF
:100D2000800104EBC10181F8296001F8280FC88116
:100D3000CD700D614D61401CC0B28D616168814212
:100D4000EDD8002011E000EB800104EBC10181F837
:100D5000695181F8680181F86B51C1F87851C1F887
:100D60007C51401CC0B2C1F8805161688142EAD810
:100D7000142204F110016846FFF765FA94E80F00A9
:100D800002F067F984F8245084F8A9620020B6E7DD
:100D900010B586B000210191029103910491059153
:100DA0000068A0F18041B1F5B84126D1144C6069CA
:100DB00040F400306061606900F4003000904FF44E
:100DC000C050019002200290032004900E20059054
:100DD00001A94FF09040FFF7EBFAE06940F4000002
:100DE000E061E06900F40000009000221146142048
:100DF000FFF724FC1420FFF713FC06B010BD000021
:100E00000010024070B504460125A068022801D0F8
:100E1000FFF7AFFA2946D4F8E80201F0C8FCD4F88D
:100E2000E802BDE8704001F083BCD0F8E80201F0B0
:100E3000A8BCD0F8E80201F0AEBC10B5044690F8AA
:100E4000A80201280BD0012084F8A80284F82410FD
:100E5000206802F0F3FB002084F8A80210BD0220F5
:100E600010BDD0F8E82200F52C71104601F0ABBCA3
:100E700010B5044690F8A802012810D0012084F88B
:100E8000A802206802F0B1FB01212046FFF726FCF2
:100E9000206802F0DCF8002084F8A80210BD0220CF
:100EA00010BD000010B50446D4F8E80201F0CCFCF7
:100EB000A069002804D00348016841F006010160E0
:100EC00010BD000010ED00E02DE9F84F0446006869
:100ED0000026804DC0036ED5E869C00008D4E869DB
:100EE00040F08050E861E869012600F080500090F1
:100EF00079480168C90512D40168804641F48071BF
:100F00000160FFF737FB074605E000BFFFF732FB44
:100F1000C01B642835D8D8F80000C005F6D5286A6B
:100F200010F4407053D0A18801F4407181424ED03A
:100F3000286A4FF4803191FAA1F2B2FA82F2970056
:100F4000664A4FF00108174420F44070C7F8008447
:100F500091FAA1F1B1FA81F102EB81010023C1F80C
:100F600000342862C00732D0FFF704FB074641F285
:100F7000883A4FF0020907E0FFF7FCFAC11B514520
:100F800002D90320BDE8F88F99FAA9F0B0FA80F0F1
:100F900040F040024946B8EB521F01D12A680CE0EC
:100FA00091FAA1F2B2FA82F242F04002B1EB521F82
:100FB00002D12A6A01E015E06A6A99FAA9F1B1FA48
:100FC00081F101F01F0108FA01F00242D4D0286A31
:100FD000616820F44070084328621EB1E86920F07F
:100FE0008050E8612078C00705D0286BA16820F008
:100FF0000300084328632078800705D5286BE16843
:1010000020F44030084328632078400705D5286B3A
:10101000216920F44020084328632078800605D504
:10102000286BE16920F010000843286320688003E2
:1010300005D56868A16B20F48000084368602078BB
:10104000400605D5286B216A20F02000084328635C
:101050002078000705D5286B616920F4401008430B
:1010600028632078C00605D5286BA16920F44000CC
:10107000084328632088800505D56868E16A20F464
:101080000000084368602078000605D5E86A616AB8
:1010900020F4F8700843E8622088C00505D5E86AA6
:1010A000A16A20F478500843E8622088C00405D57E
:1010B000286B216B20F4807008432863208880040B
:1010C00005D5286B616B20F400700843286300206D
:1010D00058E700000010024000700040000042424B
:1010E0002DE9F0470F46050069D04A4E306800F000
:1010F0000700B84209D2306820F00700384330605A
:10110000306800F00700B84259D12878424C800777
:1011100005D56068A96820F0F00008436060287871
:10112000C0073DD06968012001290DD0022923D0D4
:101130005FF0020393FAA3F2B2FA82F242F02002C5
:10114000520904D0226803E04FF40033F2E7626AE8
:1011500093FAA3F3B3FA83F303F01F039840024218
:101160002DD0606820F0030008436060FFF702FAAA
:10117000804641F288390CE04FF00073DAE700BF97
:10118000FFF7F8F9A0EB0801494502D90320BDE8B3
:10119000F0876068696800F00C00B0EB810FEFD158
:1011A000306800F00700B8420BD9306820F0070023
:1011B00038433060306800F00700B84201D00120A9
:1011C000E5E72878400705D56068E96820F4E06025
:1011D000084360602878000706D56068296920F414
:1011E000605040EAC100606000F01EF86168F022C3
:1011F00092FAA2F201F0F001B2FA82F2D140074A6B
:10120000515CC8400649086006480068FFF7D2F9FB
:101210000020BCE70020024000100240E036000839
:101220000C00002004000020164A10B55168164832
:1012300001F00C03042B20D0082B1ED14FF47014A6
:1012400094FAA4F401F47013B4FA84F4E3400F4C5C
:10125000D26AE45C0F2393FAA3F302F00F02B3FA0D
:1012600083F3DA40094B1033C9039A5C06D5002397
:101270001946FEF7A7FFA0FB040110BD0448A4FB1C
:10128000000110BD0010024000127A00C0360008B4
:1012900000093D002DE9F84F050071D02878FC4E7B
:1012A000C0074FF0010425D070686704C0F38100C7
:1012B000012807D07068C0F3810002281BD1706834
:1012C000C00318D597FAA7F0B0FA80F040F02000DC
:1012D000400901D0306800E0706A97FAA7F1B1FACE
:1012E00081F101F01F0104FA01F1084265D068683C
:1012F0000028D2D061E06868B0F5803F0BD010B113
:10130000B0F5A02F17D0306820F4803030603068FE
:1013100020F4802002E0306840F480303060F06AD1
:10132000A96820F00F000843F062686820B3FFF757
:1013300021F980460AE0306840F480203060EAE716
:10134000FFF718F9A0EB0800642871D897FAA7F006
:10135000B0FA80F040F02000400901D0306800E091
:10136000706A97FAA7F1B1FA81F101F01F0104FA4E
:1013700001F10842E4D020E0FFF7FCF8804607E0E6
:10138000C2E000BFFFF7F6F8A0EB08006428DCD845
:1013900097FAA7F0B0FA80F040F02000400901D0A1
:1013A000306800E0706A97FAA7F1B1FA81F101F0B4
:1013B0001F0104FA01F10842E4D12878DFF8D48251
:1013C00080074FF0000A4FF0020730D570684FF0E9
:1013D000F80B10F00C0F07D07068C0F381000228E2
:1013E00027D17068C00324D497FAA7F0B0FA80F030
:1013F00040F02000400901D0306800E0706A97FAA0
:10140000A7F1B1FA81F101F01F0104FA01F10842DC
:1014100002D02869012877D130689BFAABF220F01E
:10142000F8016869B2FA82F29040014331605AE0F3
:1014300064E1286988B394FAA4F0B0FA80F048F81F
:101440002040FFF797F8814606E000BFFFF792F8CB
:10145000A0EB090002289AD897FAA7F0B0FA80F01A
:1014600040F02000400901D0306800E0706A97FA2F
:10147000A7F1B1FA81F101F01F0104FA01F108426C
:10148000E4D030689BFAABF26969B2FA82F220F0DC
:10149000F80091400843306025E0FFE794FAA4F09B
:1014A000B0FA80F048F820A0FFF764F8814605E024
:1014B000FFF760F8A0EB09000228CCD897FAA7F054
:1014C000B0FA80F040F02000400901D0306800E020
:1014D000706A97FAA7F1B1FA81F101F01F0104FADD
:1014E00001F10842E4D1287800076CD5A869A8B3B7
:1014F00094FAA4F0B0FA80F008EB8000C0F88044C1
:10150000FFF738F8814607E0A4E100BFFFF732F8A3
:10151000A0EB090002289ED897FAA7F0B0FA80F055
:1015200040F06000B4EB501F01D130680BE097FA37
:10153000A7F0B0FA80F040F06000B7EB501F01D187
:10154000306A00E0706A97FAA7F1B1FA81F101F010
:101550001F0104FA01F21042D8D034E0FFE794FAF8
:10156000A4F1B1FA81F108EB8101C1F880A4FFF781
:1015700001F8814606E000BFFEF7FCFFA0EB090082
:1015800002289AD897FAA7F0B0FA80F040F06000ED
:10159000B4EB501F01D130680BE097FAA7F0B0FA16
:1015A00080F040F06000B7EB501F01D1306A00E0DE
:1015B000706A97FAA7F1B1FA81F101F01F0104FAFC
:1015C00001F21042D8D12878400768D5F0694FF071
:1015D0000009C00009D4F06940F08050F061F06962
:1015E0004FF0010900F0805000902B480168C905B8
:1015F00012D4016841F480710160FEF7BBFF83469D
:1016000006E000BFFEF7B6FFA0EB0B00642875D81C
:1016100021480068C005F5D5E86801280AD008B15E
:10162000052811D0306A20F001003062306A20F0C5
:10163000040002E0306A40F001003062E86868B3FC
:10164000FEF798FF83460DE0306A40F004003062F8
:10165000F0E700BFFEF78EFFA0EB0B0141F28830F0
:1016600081424BD897FAA7F0B0FA80F040F04000E2
:10167000B4EB501F01D1306813E097FAA7F0B0FA2D
:1016800080F040F04000B7EB501F09D1306A08E00D
:101690000010024000004242007000400CE040E0B8
:1016A000706A97FAA7F1B1FA81F101F01F0104FA0B
:1016B00001F21042CED02DE0FEF75CFF834607E03A
:1016C000FEF758FFA0EB0B0141F28830814215D89C
:1016D00097FAA7F0B0FA80F040F04000B4EB501F4A
:1016E00001D130680CE097FAA7F0B0FA80F040F032
:1016F0004000B7EB501F02D1306A01E083E0706A0E
:1017000097FAA7F1B1FA81F101F01F0104FA01F291
:101710001042D5D1B9F1000F03D0F06920F080500C
:10172000F061E86980B37168C1F38101022977D063
:101730004FF080714F000228504609D091FAA1F174
:10174000B1FA81F148F82100FEF714FF05465DE08B
:10175000894691FAA1F1B1FA81F1C24648F8210017
:10176000FEF708FF804605E0FEF704FFA0EB080047
:10177000022848D897FAA7F0B0FA80F040F020008D
:10178000400902D0306801E066E0706A97FAA7F17C
:10179000B1FA81F101F01F0104FA01F10842E3D12D
:1017A000D5E908100843716821F47411084370608A
:1017B00099FAA9F0B0FA80F04AF82040FEF7DAFE74
:1017C000054604E0FEF7D6FE401B02281BD897FA18
:1017D000A7F0B0FA80F040F02000400901D0306856
:1017E00000E0706A97FAA7F1B1FA81F101F01F01E8
:1017F00004FA01F10842E5D02EE000BFFEF7BAFE80
:10180000401B022802D90320BDE8F88F97FAA7F001
:10181000B0FA80F040F02000400902D0306801E0CA
:101820000BE0706A97FAA7F1B1FA81F101F01F019C
:1018300004FA01F10842E1D10EE00128E4D0706819
:101840002A6A00F48031914204D1696A00F4701070
:10185000884201D00120D7E70020D5E710B5401E0F
:10186000B0F1807F01D3012010BD4FF0E024606112
:101870000F21601701F0FCFE0020A061072020610D
:10188000002010BDFEE7F0B40023002A18D90A2476
:10189000302537269C46B4EB107F04D905EB107732
:1018A00001F8137003E006EB107701F813700001E4
:1018B00001EB430787F801C05B1CDBB29342EAD31C
:1018C000F0BC70472DE9F04186B014216846FEF760
:1018D000D3FC2048416941F480014161416901F430
:1018E00080010591416941F400314161416901F490
:1018F00000310591416941F480214161406948F21C
:10190000084400F480204FF09047059000222146C3
:101910003846FEF729FEDFF8408048F238260022DC
:1019200031464046FEF720FE0125CDE90045002462
:101930000294694638460394FEF73AFD0096CDE9D5
:101940000154694640460394FEF732FD06B0BDE8F7
:10195000F0810000001002400004004810B5002291
:101960000F49104800F0A0FD08B1FEF702FD0E4936
:101970000C4800F08FFF08B1FEF7FBFC0B4909484B
:1019800000F0DDFA08B1FEF7F4FC064801F034F887
:10199000002803D0BDE81040FEF7EBBC10BD0000EE
:1019A00010000020840100204C0100206000002075
:1019B000FEE7FEE72DE9F84F044640F68F7B48F638
:1019C0000F7A4FF002094FF4806868E1B0F84410D4
:1019D00011F00F0638D030F8267039047ED530F873
:1019E000261001EA0B0141F0800120F8261006EBD9
:1019F000860004EBC00595F8740105F5B475002860
:101A00006DD0E87802286BD02A78216831F822005E
:101A100048F68F73184048F2C003184321F822009B
:101A20002978206830F82120B0F8503052047DD554
:101A300009EBC1015A1808EB4201415A8905890D89
:101A4000009174D02A89D2E0C9062DD4018801EA18
:101A50000A0141F400410180206804F12805B0F832
:101A600050302A7809EBC2015A1808EB4201405A5B
:101A7000C0F309006064E16B0844E0630021204684
:101A8000FEF72DFE94F8240000289ED0A8690028B7
:101A90009BD194F8240040F080012068A0F84C10FD
:101AA000002084F82400FAE0018804F5B4750A05E2
:101AB00021D5B0F850302A78062101EBC2015A181E
:101AC00008EB4201405A04F52C71C0F30903EB61A5
:101AD000EA88206801F09CFD216802E0A2E062E053
:101AE00072E0088800EA0B0040F080000880204681
:101AF000FFF7B7F9D3E00904D5D5018801EA0B0156
:101B000041F0800101802068B0F850202B78062138
:101B100001EBC3010A4408EB4201405A83059B0DC7
:101B2000EB6110D0696971B1EA8801E053E051E0DE
:101B3000206801F06DFDE969686908446861002169
:101B40002046FEF7D5FD2068B0F8501008442969FA
:101B500000F20C4051B13E2910D84A08C90700D004
:101B6000521C4FF6FF7101EA82210FE0018821F437
:101B7000F8410180018841F4004107E04A09C906A3
:101B800000D1521E4FF4004141EA822101802068B9
:101B900001884BF68F72114081F4405148F2800267
:101BA000114301807BE02068B0F850102A780623AA
:101BB00003EBC2020A4408EB4201415A8905890D30
:101BC000009118D0EA8812E03A4629462046FEF7EE
:101BD000EDFD00900FE0062202EBC1015A1808EB60
:101BE0004201415A8905890D009104D06A896969C9
:101BF000009B01F00DFDE96900980844E8616969FE
:101C0000009808446861A86918B129690098814260
:101C100004D929782046FEF76BFD03E029462068A9
:101C200001F07CFA38063AD5226806EB860004EB10
:101C3000C00132F8260000EA0A0040F4004022F811
:101C4000260091F82B002831022801D1F80522D472
:101C50002268B2F850300D7809EBC500034408EB58
:101C60004300105A8A69C0F3090082420CD9121A43
:101C70008A610BD04A6902444A61CA691044C8614A
:101C8000206801F04BFA0AE000208861E9B22046A2
:101C9000FEF725FD03E03A462046FEF7FAFD2068F0
:101CA000B0F8441009043FF591AE0020BDE8F88F6C
:101CB00070477047FEF764BC30B59FB02821684676
:101CC000FEF7DAFA142119A8FEF7D6FA3C210AA881
:101CD000FEF7D2FA01210804CDE900100024029495
:101CE00002250491CDE90750000109906846FFF7ED
:101CF000D1FA08B172B6FEE70F20CDE919054FF40D
:101D00008060CDE91B40012119A81D94FFF7E8F977
:101D100008B172B6FEE74FF400300A904001189007
:101D20000AA8FFF7D1F8002801D072B6FEE71FB06D
:101D300030BD00000248016841F470010160704745
:101D400088ED00E070B5D0F8B822D0F8C052002A73
:101D50001BD001EB810C00EB8C030026DC6954B135
:101D600005EBCC0CDCF838C0B4FBFCF50CFB154CD7
:101D7000BCF1000F03D0C2F81461002070BDDE6119
:101D800000231A4600F069FDF7E7022070BD70B528
:101D90000546D5F8B842284600F05EFCC4F80C01B0
:101DA000D5F8B80248B1D5F8BC12D4F80401CA6815
:101DB00004F586719047002070BD022070BD70B59B
:101DC000044600268121204600F08DFB0025E562B7
:101DD0000121204600F087FBC4F86C518221204687
:101DE00000F081FB2564D4F8B80248B1D4F8BC02F5
:101DF00040688047D4F8B80200F070FFC4F8B852C9
:101E0000304670BD10B5D0F8B842D0F8BC120029E9
:101E10000BD094F80001FF2807D08B6894F80121BB
:101E200021469847FF2084F80001002010BD0000E3
:101E30000A2101800048704774000020432101807E
:101E400000487047C40000204321018000487047CB
:101E500080000020432101800048704708010020D5
:101E600070B504460026207C0125002831D040238F
:101E700002228121204600F046FCE5624023022236
:101E80000121204600F03FFCC4F86C5108230322D6
:101E90008221204600F037FC25644FF48E7000F05C
:101EA0001FFFC4F8B80230B30546D4F8BC0200687E
:101EB00080470020C5F81401C5F81801207CE0B166
:101EC000402301212046D5F8042100F028FC3046AB
:101ED00070BD4FF4807302228121204600F013FC74
:101EE000E5624FF4807302220121204600F00BFCD2
:101EF000C4F86C51CAE70126E9E74FF48073012169
:101F00002046D5F8042100F00AFCE0E710B5D0F82F
:101F1000B812002911D0027C3AB1D1F80421402333
:101F2000012100F0FCFB002010BDD1F804214FF48A
:101F30008073012100F0F3FBF5E7022010BD02469B
:101F40000220002902D0C2F8BC1200207047D0F84D
:101F5000B802C0F8041100207047D0F8B802C0F8E9
:101F60000811C0F8102100207047F0B583B0054675
:101F70000C46D5F8B8720020029001900026207817
:101F800010F060012ED0202907D02146284600F00D
:101F900089F8022603B03046F0BDE288D2B110F0D5
:101FA000800F0BD0D5F8BC1260788B683946984703
:101FB000E2883946284600F09BF8EBE7607887F81E
:101FC0000001A07987F80101E2883946284600F02F
:101FD00075F8DFE7D5F8BC12607800228B682146DF
:101FE0009847D7E7607848B10A2817D00B2825D042
:101FF0002146284600F056F80226CBE795F89C02C9
:10200000032805D02146284600F04CF80226C1E7F7
:10201000022201A9284600F06BF8BBE795F89C0264
:10202000032805D02146284600F03CF80226B1E7F7
:10203000012202A9284600F05BF8ABE795F89C0264
:102040000328A7D02146284600F02CF80226A1E755
:1020500010B5D0F8B42252689047002010BD90F817
:102060009C22012A05D0022A03D0032A01D000F0C5
:1020700019B84988012904D10021C0F8A41200F040
:1020800044B8704710B513460A46002100F047FBDC
:10209000002010BD10B513460A46002100F0DDFBFC
:1020A000002010BD10B504468021204600F0BAFB88
:1020B0002046BDE81040002100F0B4BB10B503235A
:1020C000C0F89432C0F85C21C0F8602113460A467B
:1020D000002100F024FB002010BD10B50521C0F840
:1020E000941200231A46194600F019FB002010BD77
:1020F00010B50223C0F89432C261026213460A4648
:10210000002100F0AAFB002010BD10B50421C0F88A
:10211000941200231A46194600F09FFB002010BDC0
:1021200010B5002806D00A46054906A000F088F937
:10213000034810BD0A46024902A000F081F9F7E702
:102140004804002043444320436F6E6669670000E3
:1021500012200880004870473000002010B5002889
:1021600006D00A46054906A000F06AF9034810BDEA
:102170000A46024902A000F063F9F7E7480400208C
:1021800043444320496E74657266616365000000D4
:1021900004200880004870472C00002010B50A4633
:1021A000024903A000F04CF9004810BD480400208B
:1021B00053544D6963726F656C656374726F6E69B9
:1021C0006373000010B5002806D00A46054906A032
:1021D00000F036F9034810BD0A46024902A000F09B
:1021E0002FF9F7E74804002053544D333220566945
:1021F000727475616C20436F6D506F7274000000D3
:1022000010B51A200880FEF7B7F8014810BD00008D
:1022100044000020CA88012A01D0FFF743BF90F88C
:102220009C22012A05D0022A03D0032A08D0FFF7F6
:1022300039BF00218160012200F10801FFF758BF7A
:102240000122011DFFF754BF2DE9F84304460F4654
:1022500000200090002600257888010A082970D205
:10226000DFE801F0AB040C22ABAB8B9AD4F8B012D0
:10227000207C0A68694690470646A3E0207C4FF020
:10228000020840B1D4F8B402C16A684688470646DD
:1022900086F8018096E0D4F8B402816A68468847DF
:1022A000064686F801808DE0C0B206285FD2DFE8DE
:1022B00000F0031221303F4FD4F8B002426822B13F
:1022C000207C6946904706467CE039462046FFF769
:1022D000E9FE012576E0D4F8B002826822B1207CC4
:1022E0006946904706466DE039462046FFF7DAFE1C
:1022F000012567E0D4F8B002C26822B1207C6946AB
:10230000904706465EE039462046FFF7CBFE0125A2
:1023100058E0D4F8B002026922B1207C69469047A7
:1023200006464FE039462046FFF7BCFE012549E04E
:10233000D4F8B00242692AB1207C6946904706462B
:1023400040E03AE039462046FFF7ACFE012539E08F
:10235000D4F8B002826922B1207C694690470646D3
:1023600030E039462046FFF79DFE01252AE0394638
:102370002046FFF797FE012524E0207C28B139464E
:102380002046FFF78FFE01251CE0D4F8B402416B14
:1023900068468847064615E0207C28B13946204625
:1023A000FFF780FE01250DE0D4F8B402016B68460A
:1023B000884706460721717004E039462046FFF73A
:1023C00071FE0125002D12D1BDF8000048B1FA8838
:1023D0003AB1824200D90246009231462046FFF7C8
:1023E00087FEF888002802D12046FFF78EFEBDE860
:1023F000F88300210278002A05D0491CC9B2401C8C
:102400000278002AF9D10846704790F89C22012AE8
:1024100005D0022A03D0032A01D0FFF743BECA88A1
:10242000022A01D0FFF73EBE0121C160D0F8A412FC
:1024300009B10321C160022200F10C01FFF758BE6F
:1024400070B504460D461646002C1AD02046FFF7FC
:10245000D0FF022101EB400030803078287003214A
:1024600002206970217800290BD0002214F8013B6A
:10247000411CC9B22B54481CC0B26A5421780029AF
:10248000F4D170BD01460020002906D0012905D0F5
:10249000022905D0032905D0022070470220704789
:1024A000012070470220704710B5002810D0D0F8E6
:1024B000B43213B10023C0F8B43209B1C0F8B0127D
:1024C000012180F89C12027000F0CAF8002010BDB3
:1024D000022010BD10B5D0F8C002FEF739F9BDE8F2
:1024E0001040FFF7CFBF10B5D0F8C002FEF70AF9D1
:1024F000BDE81040FFF7C6BF70B5044694460029FA
:1025000009D0D4F8B40242691AB194F89C020328A5
:1025100059D0022070BD04F11400D4F894120025A3
:10252000022904D0042940D000293ED041E0C368EC
:1025300001698B420DD9591AC1608AB261462046A1
:10254000FFF7A8FD00231A461946204600F0E7F8D9
:102550002FE08068B0FBF1F201FB12029AB98842C9
:1025600011D3D4F8981288420DD200221146204689
:10257000FFF790FDC4F8985200231A4619462046EA
:1025800000F0CDF815E0D4F8B402C16829B194F890
:102590009C02032801D1204688478021204600F074
:1025A00041F92046FFF799FD03E08021204600F025
:1025B00039F994F8A002012807D1204600F073F9F8
:1025C00084F8A05201E020469047002070BD10B56D
:1025D000044608461146002809D0D4F8B4128A6986
:1025E0001AB194F89C12032931D0022010BD04F5D1
:1025F000AA70D4F89432032B02D0052B1FD029E007
:10260000D0F810C0C36863450BD9A3EB0C03C360BB
:102610000069834200D303469AB22046FFF732FD99
:1026200018E0D4F8B402016929B194F89C02032897
:1026300001D1204688472046FFF767FD0AE00020C9
:10264000C4F894020021204600F0ECF802E00146B4
:1026500020469047002010BDD0F8C002FEF729BAEE
:1026600010B504461D48C0F8E842C4F8C0021C4931
:1026700001600821416002218160016100218161C6
:102680000162FEF732FB08B1FDF773FE002218234A
:102690001146D4F8C002FEF703F858230022802127
:1026A000D4F8C002FDF7FCFFC02300228121D4F83A
:1026B000C002FDF7F5FF4FF4887300220121D4F822
:1026C000C002FDF7EDFF4FF4807300228221D4F8A1
:1026D000C002FDF7E5FF002010BD0000780D0020CE
:1026E000005C004011F0800F01F07F01D0F8C002C3
:1026F00001EB810100EBC10002D090F82A00704785
:1027000090F86A01704710B59C461346D0F8C00295
:102710006246FEF7D7F9BDE81040FFF7B3BE10B52B
:10272000D0F8C002FEF7FEF9BDE81040FFF7AABEE0
:1027300070B504460022402311462046FFF7E3FF10
:102740000125C4F858514026C4F864614023002292
:1027500080212046FFF7D7FFA561666284F89C526E
:102760000020C4F894026060C4F8A402D4F8B8024F
:1027700028B1D4F8B40200214268204690470020D6
:1027800070BD90F89C12042903D190F89D1280F836
:102790009C120020704710B590F89C12032904D1B8
:1027A000D0F8B412C96901B18847002010BD017486
:1027B0000020704710B5D0F8C002FEF73EFBBDE820
:1027C0001040FFF75FBE10B5044604F52A7000F014
:1027D0004DF80120C4F89402B4F8AE02C4F898028F
:1027E00094F8A81211F01F000AD001280ED0022878
:1027F00012D001F08001204600F014F8002010BD36
:1028000004F52A71204600F0FCF8F7E704F52A7178
:10281000204600F02EFAF1E704F52A71204600F078
:1028200030F9EBE710B5D0F8C002FEF794F9BDE837
:102830001040FFF727BE10B5D0F8C002FEF718FB16
:10284000BDE81040FFF71EBE90F89C1280F89D1264
:10285000042180F89C120020704710B5D0F8C00207
:10286000FEF7A9F9BDE81040FFF70CBE0A78027028
:102870004A7842708A78CB7802EB032242800A7948
:102880004B7902EB032282808A79C97902EB01211C
:10289000C180704702460020002902D0C2F8B4125D
:1028A0007047022070470020704770B50446888842
:1028B000002821D1C888F8B9488880281CD200F0A7
:1028C0007F0594F89C0203280DD084F89E52294677
:1028D0002046FFF76FFF2046FFF717FC45B10220A7
:1028E00084F89C0270BD2046BDE87040FFF7DABB5B
:1028F000012084F89C0270BD2046BDE87040FFF7BF
:10290000D1BB10B50224D0F8B422002A03D012683B
:10291000904700B90024204610BD000070B5044661
:102920000D46304EA9783170012905D92946204637
:10293000BDE87040FFF7B6BB94F89C0202280BD0AC
:10294000032823D029462046FFF7ACFB31782046E8
:10295000BDE87040FFF77CBB99B16160032084F84B
:102960009C022046FFF7CDFF022804D02046BDE898
:102970007040FFF7CABB29462046BDE87040FFF70C
:1029800091BB2046BDE87040FFF7BFBB91B16068C6
:10299000884221D0C1B22046FFF75AFB31786160EE
:1029A0002046FFF7AEFF022810D02046BDE8704059
:1029B000FFF7ABBB022084F89C0261602046FFF762
:1029C00047FB2046BDE87040FFF79FBB29462046E5
:1029D000BDE87040FFF766BB2046BDE87040FFF7DA
:1029E00094BB0000700000204988012903D1C0F881
:1029F000A412FFF78ABB704710B5FFF71CFF002039
:102A000010BD10B503460024087810F060020ED007
:102A1000202A06D0402A04D01846FFF743FB204660
:102A200010BDD3F8B402826818469047F7E748789B
:102A30000A2822D2DFE800F0151D211921090521FD
:102A4000110D1846FFF700FCE9E71846FFF72DFFC8
:102A5000E5E71846FFF762FFE1E71846FFF7DAFB04
:102A6000DDE71846FFF7D1FCD9E71846FFF7BCFFB2
:102A7000D5E71846FFF7F3FAD1E71846FFF712FB40
:102A8000CDE72DE9F0410446084600260179037898
:102A900013F0600211D0202A08D0402A06D0014647
:102AA0002046FFF7FFFA3046BDE8F081D4F8B412B3
:102AB0008A68014620469047F5E703F06002202A25
:102AC0000BD04278002A61D0012A37D0032A0CD0DB
:102AD00001462046FFF7E6FAE5E7D4F8B4128A6823
:102AE00001462046BDE8F041104794F89C22022A96
:102AF00006D0032A14D001462046FFF7D3FAD2E7C6
:102B000049B1802907D02046FFF78CFE802120465E
:102B1000FFF788FEC7E701462046FFF7C3FAC2E782
:102B200042883AB931B1802904D0C08810B9204612
:102B3000FFF778FE2046FFF7E8FAB4E794F89C2206
:102B4000022A06D0032A14D001462046FFF7AAFA2B
:102B5000A9E749B1802907D02046FFF763FE80210D
:102B60002046FFF75FFE9EE701462046FFF79AFAF0
:102B700099E74088002896D111F07F0F02D02046B7
:102B8000FFF7A8FC2046FFF7C0FA8CE794F89C22D8
:102B90000027022A06D0032A26D001462046FFF746
:102BA00081FA80E731B1802904D001462046FFF741
:102BB00079FA78E711F0800F08D001F07F0000EB80
:102BC000800004EB800000F1140107E001F07F00B9
:102BD00000EB800004EB800000F5AA710F60022278
:102BE0002046FFF785FA5EE711F0800F0CD001F068
:102BF0000F0202EB820204EB820292696AB901467B
:102C00002046FFF74FFA4EE701F00F0202EB820277
:102C100004EB8202D2F858215AB111F0800F0DD086
:102C200001F07F0000EB800004EB800000F1140550
:102C30000CE001462046FFF735FA34E701F07F004B
:102C400000EB800004EB800000F5AA7541B18029FB
:102C500006D02046FFF746FD20B10120286002E0A3
:102C60002F6000E02F60022229462046FFF740FA3D
:102C700019E770B505460C46207810F0600209D0BF
:102C8000202A07D0402A05D021462846FFF70AFA15
:102C9000002070BD95F89C22012A08D0022A06D097
:102CA000032A04D021462846FFF7FCF9F0E72079F3
:102CB00001280ED8D5F8B4022146826828469047EC
:102CC000E1880029E4D10028E2D12846FFF71DFA67
:102CD000DEE721462846FFF7E5F9D9E7704700000F
:102CE00000487047580C00202DE9F0470C7800266A
:102CF00030F8243048F68F121340CA78002A7DD06D
:102D0000012A7CD0022A02D0032A7FD0012648F271
:102D10008002134320F824300D7830F8254048F61F
:102D20008F731C402C43144320F825400D7B48F240
:102D3000C00C48F6BF744CF280074BF68F79EDB3A8
:102D400091F80080C24630F8285048F280181D40A3
:102D500045EA080520F82A50B0F8505091F8008054
:102D6000054405EB0815B1F8088028F00108A5F81E
:102D70000084B0F8505091F80080054405EB081528
:102D8000B1F80A8028F00108A5F808844D78002DD4
:102D90000D7830F825804FEA48487DD0B8F1000F13
:102DA00007DA30F8258008EA030848EA070820F81F
:102DB00025800F7830F827506D0600E02CE006D50E
:102DC00030F827501D4045EA0C0520F82750CB78F5
:102DD0000D78012B30F8253003EA040301D083F08D
:102DE0002003134320F825300B7830F8231001EA34
:102DF0000901114320F82310304602E003E008E007
:102E000004E0BDE8F08743F4007380E743F4C06357
:102E10007DE743F480637AE74D782DB3B0F85050E6
:102E20000F78054405EB0715CF8827F00107A5F8B3
:102E300000740F7830F827506D0606D530F827500B
:102E40001D4045EA0C0520F82750CB78012B06D011
:102E50000B7830F82310214081F02001C9E70B786E
:102E600030F823102140C4E7B0F850400D780444F6
:102E700004EB0514CD8825F00105A4F80854B0F83A
:102E800050400D78044404EB05140D6904F20C4421
:102E900075B13E2D14D800E030E04FEA550CED0737
:102EA00001D00CF1010C4FF6FF7505EA8C2511E0FD
:102EB000258825F4F8452580258845F4004509E056
:102EC0004FEA551CED0601D1ACF1010C4FF4004561
:102ED00045EA8C2525800D7830F82540640405D519
:102EE00030F825401C403C4320F825400B7830F852
:102EF000231001EA090181F440517AE7B8F1000F8B
:102F000007DA30F8258008EA030848EA070820F8BD
:102F100025800F7830F827506D0606D530F82750F9
:102F20001D4045EA0C0520F827500D7830F8253073
:102F300003EA090383F44053134320F825308EE756
:102F40002DE9F04391F80C804F780A7848F6BF7C61
:102F50004BF68F7948F2800348F2C0054CF28006A8
:102F600048F68F74B8F1000F28D0002F30F8227087
:102F70004FEA474748D0002F05DA30F82270274043
:102F8000374320F822700A7830F822707F0605D582
:102F900030F8227027402F4320F822700D7830F847
:102FA00025202240324320F825200C7830F82420B8
:102FB00002EA0C021A4320F824201AE07FB130F80C
:102FC0002260760605D530F8226026402E4320F890
:102FD00022600A7830F8221001EA0C010EE030F885
:102FE00022506D0405D530F822502540354320F895
:102FF00022500A7830F8221001EA0901194320F81A
:1030000022100020BDE8F083002F05DA30F822708E
:103010002740374320F822700A7830F8226076067D
:1030200005D530F8226026402E4320F822600E7825
:1030300030F8262022402A4320F826200C7830F849
:10304000242002EA09021A4320F82420C1E70020C4
:103050007047012120F8401F0021018081800182FA
:103060000846704730F8401F21F43F41018000209E
:10307000704730B50A7BB2BB4A7848F68F7548F284
:103080008004C2B10B7830F82320520607D530F8FF
:1030900023202A4048F2C0052A4320F82320CA787A
:1030A000012A20D00A7830F8221048F6BF73194060
:1030B00081F0200114E00A7830F822305B0407D553
:1030C00030F822302B404CF280052B4320F8223080
:1030D0000A7830F822104BF68F73194081F4405172
:1030E000214320F82210002030BD10B54A7809781D
:1030F000002A48F2800330F8212005D048F6BF743A
:10310000224082F0100204E04BF68F74224082F4D9
:1031100080521A4320F82120002010BD2DE9F04FE5
:103120000D464A78097B04464FF0000948F68F7A2D
:1031300048F2800B4FF6FF774FF40048012A09D080
:1031400000297DD0E87802287BD001287AD00120A0
:10315000BDE8F08FAE692869864200D9064681B184
:10316000E97802291CD0287834F820104906B4F8F0
:103170005010214401EB001070D5A0F80C646A894E
:1031800028E1B3B2EA882046696900F05DFAB4F834
:1031900050002978204400EB0110A0F8046435E1C8
:1031A000296A814276D9297834F8210048F28012C0
:1031B00000EA0A00104324F82100286A801B2862D4
:1031C000287834F820104906697876D511B101299C
:1031D00021D027E0B4F85010214401EB001000F298
:1031E0000C404EB13E2E0FD87108F20700D0491C9A
:1031F00007EA8121018015E0018821F4F84101806E
:10320000018841F40041F5E77109F20600D1491E39
:1032100048EA8121EEE7B4F85020111901EB0010C3
:10322000A0F80C646A89B3B22046696900F00CFA10
:103230006869304468612969286A884206D902E0D1
:10324000EDE00DE178E1801B286202E00646C5F85A
:103250002090687818B1012824D02BE0B7E0B4F8AA
:1032600050002978204400EB011000F204404EB1D8
:103270003E2E10D87108F20700D0491C07EA8121C0
:10328000018017E0018821F4F8410180018841F4B0
:103290000041F5E786E07109F20600D1491E48EACF
:1032A0008121EDE7B4F850002978204400EB0110AB
:1032B000A0F804642A896FE0FFE711B1012921D049
:1032C00027E0B4F85010214401EB001000F2044054
:1032D0004EB13E2E0FD87108F20700D0491C07EA04
:1032E0008121018015E0018821F4F84101800188E5
:1032F00041F40041F5E77109F20600D1491E48EAA0
:103300008121EEE7B4F85010214401EB0010A0F841
:1033100004642A89B3B22046696900F095F96869A6
:10332000304468612969286A884202D9801B286272
:1033300002E00646C5F82090687810B1012822D036
:1033400029E0B4F850002978204400EB011000F285
:103350000C404EB13E2E0FD87108F20700D0491C28
:1033600007EA8121018016E0018821F4F8410180FB
:10337000018841F40041F5E77109F20600D1491EC8
:1033800048EA8121EEE7B4F850100819297800EBDB
:103390000110A0F80C646A89B3B22046696900F094
:1033A00053F933E02A7834F8220048F68F63184046
:1033B00040EA0B0024F82200B4F850002A78204498
:1033C00000EB02108BB2A0F804342A89E5E7A0F8DC
:1033D00004642A89B3B22046696900F035F9687837
:1033E00010B1012808D011E0297834F8210048F202
:1033F000C00200EA0A0006E0297834F821004CF205
:10340000800200EA0A00104324F82100297834F8E9
:10341000210048F6BF72104080F03000DFE0A9695B
:103420002869814202D9091AA961B6E00846C5F89F
:103430001890B2E0088820F4F8400880088840F42A
:1034400000400BE03E2876D84208C00700D0521C4E
:1034500007EA822002E000BF48EA82200880B6E046
:1034600092B9B4F850002978204400EB0110296982
:1034700000F2044069B13E2913D84A08C90700D0B8
:10348000521C07EA82210180687888B1012832D075
:103490003AE0018821F4F8410180018841F40041BB
:1034A000F1E74A09C90600D1521E48EA8221EAE73B
:1034B000B4F850002978204400EB0110296900F28B
:1034C0000C4049B13E290FD84A08C90700D0521C08
:1034D00007EA8221018017E0018821F4F841018088
:1034E000018841F40041F5E74A09C90600D1521E9E
:1034F00048EA8221EEE7B4F850100819297800EB69
:103500000110298AA0F80C14E869B0B3297834F8BE
:103510002100420401D5420603D444F24002104285
:1035200055D134F8210048F2C00200EA0A001043E5
:1035300024F821004BE03CE0A9692869814202D9C6
:10354000091AA96102E00846C5F818908AB9B4F8CA
:1035500050102A78214401EB021101F2044168B1B4
:103560003E2813D84208C30700D0521C07EA822223
:103570000A80697889B1012921D028E00A8822F4DB
:10358000F8420A800A8842F40042F1E74209C30681
:1035900000D1521E48EA8222EAE7B4F850102A7895
:1035A000214401EB021101F20C4100287FF44AAFE3
:1035B00040E74209C0067FF44FAF521E4CE7B4F813
:1035C000502011192A7801EB0211A1F80C04297876
:1035D00034F821004BF68F72104080F4405040EADE
:1035E0000B0024F821000020B2E50021A0F84410CF
:1035F0004FF43F41A0F84010002070470148FDF70C
:10360000F4BA0000780D0020B0F8440070470000C4
:1036100010B500EB42005C0800F5806009D000BFE7
:1036200030F8042B01F8012B120A01F8012B641E5B
:10363000F6D1DA0701D00088087010BD11B98021D9
:10364000A0F84C100020704710B55B1C00EB420046
:103650005B0800F5806009D011F8012B11F8014BCF
:1036600042EA042220F8042B5B1EF5D110BDFEE7D0
:103670000907090E002804DB00F1E02080F800149F
:10368000704700F00F0000F1E02080F8141D704733
:1036900002E008C8121F08C1002AFAD1704770471B
:1036A000002001E001C1121F002AFBD17047FCF786
:1036B0006FFFFEF701FBFEF705F9FEF74FF9FEE796
:1036C00002030405060708090A0B0C0D0E0F101063
:1036D0000102030405060708090A0B0C0D0E0F1062
:1036E00000000000000000000102030406070809B2
:1036F000103700080000002084010000D0020008FC
:10370000D037000884010020E4120000A036000831
:103710003201821013127A1351211B0891041A9D51
:10372000041AC5041301221B0821081A5D0417049A
:103730000309041201140202021640830440571DBB
:103740000201020341031A1A031335031B08310453
:103750001A29041A590441130A0632022A407C1C11
:10376000090243471125C03209041B01020B13054E
:103770002416100105240110090104240202052465
:1037800006170107058203081C1009047D320A157B
:10379000070501021A01072A81070938442A400750
:1037A0002A8107112B0907440A3B044413611E14A4
:1037B00008BF1D4C086B1FE81A05101A45101A8F18
:1037C00004C11A49181A3D041A55041A310400009C
:040000050800018965
:00000001FF
